{
  "contracts/JIRA.sol": {
    "JIRA": {
      "abi": [
        {
          "inputs": [
            {
              "internalType": "uint256",
              "name": "id",
              "type": "uint256"
            },
            {
              "internalType": "string",
              "name": "time",
              "type": "string"
            }
          ],
          "name": "activeNewSprint",
          "outputs": [],
          "stateMutability": "nonpayable",
          "type": "function"
        },
        {
          "inputs": [],
          "name": "activeSprintId",
          "outputs": [
            {
              "internalType": "uint256",
              "name": "",
              "type": "uint256"
            }
          ],
          "stateMutability": "view",
          "type": "function"
        },
        {
          "inputs": [
            {
              "internalType": "string",
              "name": "abiLink",
              "type": "string"
            }
          ],
          "name": "addConfluence",
          "outputs": [],
          "stateMutability": "nonpayable",
          "type": "function"
        },
        {
          "inputs": [
            {
              "internalType": "string",
              "name": "uid",
              "type": "string"
            },
            {
              "internalType": "string",
              "name": "name",
              "type": "string"
            },
            {
              "internalType": "string",
              "name": "role",
              "type": "string"
            },
            {
              "internalType": "string",
              "name": "image",
              "type": "string"
            },
            {
              "internalType": "string",
              "name": "initialBoardData",
              "type": "string"
            }
          ],
          "name": "addUser",
          "outputs": [],
          "stateMutability": "nonpayable",
          "type": "function"
        },
        {
          "inputs": [
            {
              "internalType": "string",
              "name": "owner",
              "type": "string"
            },
            {
              "internalType": "uint256",
              "name": "index",
              "type": "uint256"
            },
            {
              "internalType": "string",
              "name": "ownersBoardData",
              "type": "string"
            },
            {
              "internalType": "string",
              "name": "tracking",
              "type": "string"
            }
          ],
          "name": "assignOwner",
          "outputs": [],
          "stateMutability": "nonpayable",
          "type": "function"
        },
        {
          "inputs": [
            {
              "internalType": "string",
              "name": "position",
              "type": "string"
            },
            {
              "internalType": "uint256",
              "name": "index",
              "type": "uint256"
            },
            {
              "internalType": "string",
              "name": "abiLink",
              "type": "string"
            },
            {
              "internalType": "string",
              "name": "uid",
              "type": "string"
            },
            {
              "internalType": "string",
              "name": "trackingData",
              "type": "string"
            }
          ],
          "name": "changePosition",
          "outputs": [],
          "stateMutability": "nonpayable",
          "type": "function"
        },
        {
          "inputs": [],
          "name": "confluence",
          "outputs": [
            {
              "internalType": "string",
              "name": "",
              "type": "string"
            }
          ],
          "stateMutability": "view",
          "type": "function"
        },
        {
          "inputs": [
            {
              "internalType": "string",
              "name": "name",
              "type": "string"
            },
            {
              "internalType": "string",
              "name": "startDate",
              "type": "string"
            },
            {
              "internalType": "string",
              "name": "enddate",
              "type": "string"
            },
            {
              "internalType": "string",
              "name": "abiLink",
              "type": "string"
            }
          ],
          "name": "createSprint",
          "outputs": [],
          "stateMutability": "nonpayable",
          "type": "function"
        },
        {
          "inputs": [
            {
              "internalType": "string",
              "name": "sprintId",
              "type": "string"
            },
            {
              "internalType": "string",
              "name": "id",
              "type": "string"
            },
            {
              "internalType": "string",
              "name": "abiLink",
              "type": "string"
            },
            {
              "internalType": "string",
              "name": "repoterUid",
              "type": "string"
            },
            {
              "internalType": "string",
              "name": "tracking",
              "type": "string"
            }
          ],
          "name": "createTicket",
          "outputs": [
            {
              "components": [
                {
                  "internalType": "uint256",
                  "name": "index",
                  "type": "uint256"
                },
                {
                  "internalType": "string",
                  "name": "sprintId",
                  "type": "string"
                },
                {
                  "internalType": "string",
                  "name": "id",
                  "type": "string"
                },
                {
                  "internalType": "string",
                  "name": "abiLink",
                  "type": "string"
                },
                {
                  "internalType": "string",
                  "name": "repoter",
                  "type": "string"
                },
                {
                  "internalType": "string",
                  "name": "owner",
                  "type": "string"
                },
                {
                  "internalType": "string",
                  "name": "position",
                  "type": "string"
                },
                {
                  "internalType": "bool",
                  "name": "status",
                  "type": "bool"
                },
                {
                  "internalType": "string",
                  "name": "tracking",
                  "type": "string"
                },
                {
                  "internalType": "string",
                  "name": "comments",
                  "type": "string"
                }
              ],
              "internalType": "struct JIRA.Ticket",
              "name": "",
              "type": "tuple"
            }
          ],
          "stateMutability": "nonpayable",
          "type": "function"
        },
        {
          "inputs": [],
          "name": "getAllSprints",
          "outputs": [
            {
              "components": [
                {
                  "internalType": "uint256",
                  "name": "id",
                  "type": "uint256"
                },
                {
                  "internalType": "string",
                  "name": "name",
                  "type": "string"
                },
                {
                  "internalType": "string",
                  "name": "startDate",
                  "type": "string"
                },
                {
                  "internalType": "string",
                  "name": "enddate",
                  "type": "string"
                },
                {
                  "internalType": "string",
                  "name": "abiLink",
                  "type": "string"
                }
              ],
              "internalType": "struct JIRA.Sprint[]",
              "name": "",
              "type": "tuple[]"
            }
          ],
          "stateMutability": "view",
          "type": "function"
        },
        {
          "inputs": [],
          "name": "getAllTickets",
          "outputs": [
            {
              "components": [
                {
                  "internalType": "uint256",
                  "name": "index",
                  "type": "uint256"
                },
                {
                  "internalType": "string",
                  "name": "sprintId",
                  "type": "string"
                },
                {
                  "internalType": "string",
                  "name": "id",
                  "type": "string"
                },
                {
                  "internalType": "string",
                  "name": "abiLink",
                  "type": "string"
                },
                {
                  "internalType": "string",
                  "name": "repoter",
                  "type": "string"
                },
                {
                  "internalType": "string",
                  "name": "owner",
                  "type": "string"
                },
                {
                  "internalType": "string",
                  "name": "position",
                  "type": "string"
                },
                {
                  "internalType": "bool",
                  "name": "status",
                  "type": "bool"
                },
                {
                  "internalType": "string",
                  "name": "tracking",
                  "type": "string"
                },
                {
                  "internalType": "string",
                  "name": "comments",
                  "type": "string"
                }
              ],
              "internalType": "struct JIRA.Ticket[]",
              "name": "",
              "type": "tuple[]"
            }
          ],
          "stateMutability": "view",
          "type": "function"
        },
        {
          "inputs": [],
          "name": "getAllUser",
          "outputs": [
            {
              "internalType": "string[]",
              "name": "",
              "type": "string[]"
            }
          ],
          "stateMutability": "view",
          "type": "function"
        },
        {
          "inputs": [
            {
              "internalType": "uint256",
              "name": "index",
              "type": "uint256"
            }
          ],
          "name": "getTicketsAbi",
          "outputs": [
            {
              "internalType": "string",
              "name": "",
              "type": "string"
            }
          ],
          "stateMutability": "view",
          "type": "function"
        },
        {
          "inputs": [
            {
              "internalType": "uint256",
              "name": "index",
              "type": "uint256"
            }
          ],
          "name": "getTicketsOwnerImg",
          "outputs": [
            {
              "internalType": "string",
              "name": "",
              "type": "string"
            }
          ],
          "stateMutability": "view",
          "type": "function"
        },
        {
          "inputs": [],
          "name": "initialize",
          "outputs": [],
          "stateMutability": "nonpayable",
          "type": "function"
        },
        {
          "inputs": [
            {
              "internalType": "string",
              "name": "uid",
              "type": "string"
            }
          ],
          "name": "login",
          "outputs": [
            {
              "internalType": "bool",
              "name": "",
              "type": "bool"
            }
          ],
          "stateMutability": "view",
          "type": "function"
        },
        {
          "inputs": [],
          "name": "manager",
          "outputs": [
            {
              "internalType": "address",
              "name": "",
              "type": "address"
            }
          ],
          "stateMutability": "view",
          "type": "function"
        },
        {
          "inputs": [],
          "name": "project",
          "outputs": [
            {
              "internalType": "string",
              "name": "",
              "type": "string"
            }
          ],
          "stateMutability": "view",
          "type": "function"
        },
        {
          "inputs": [
            {
              "internalType": "string",
              "name": "abiLink",
              "type": "string"
            },
            {
              "internalType": "string",
              "name": "uid",
              "type": "string"
            }
          ],
          "name": "setBoardDataToUser",
          "outputs": [],
          "stateMutability": "nonpayable",
          "type": "function"
        },
        {
          "inputs": [
            {
              "internalType": "string",
              "name": "commentdata",
              "type": "string"
            },
            {
              "internalType": "uint256",
              "name": "index",
              "type": "uint256"
            },
            {
              "internalType": "string",
              "name": "tracking",
              "type": "string"
            }
          ],
          "name": "setComments",
          "outputs": [],
          "stateMutability": "nonpayable",
          "type": "function"
        },
        {
          "inputs": [
            {
              "internalType": "string",
              "name": "sprintId",
              "type": "string"
            },
            {
              "internalType": "uint256",
              "name": "index",
              "type": "uint256"
            },
            {
              "internalType": "string",
              "name": "tracking",
              "type": "string"
            }
          ],
          "name": "setSprintToTicket",
          "outputs": [],
          "stateMutability": "nonpayable",
          "type": "function"
        },
        {
          "inputs": [
            {
              "internalType": "string",
              "name": "abiLink",
              "type": "string"
            },
            {
              "internalType": "uint256",
              "name": "index",
              "type": "uint256"
            }
          ],
          "name": "setTicketTracking",
          "outputs": [],
          "stateMutability": "nonpayable",
          "type": "function"
        },
        {
          "inputs": [
            {
              "internalType": "string",
              "name": "abiLink",
              "type": "string"
            },
            {
              "internalType": "string",
              "name": "uid",
              "type": "string"
            }
          ],
          "name": "setUserAbi",
          "outputs": [],
          "stateMutability": "nonpayable",
          "type": "function"
        },
        {
          "inputs": [
            {
              "internalType": "uint256",
              "name": "",
              "type": "uint256"
            }
          ],
          "name": "sprints",
          "outputs": [
            {
              "internalType": "uint256",
              "name": "id",
              "type": "uint256"
            },
            {
              "internalType": "string",
              "name": "name",
              "type": "string"
            },
            {
              "internalType": "string",
              "name": "startDate",
              "type": "string"
            },
            {
              "internalType": "string",
              "name": "enddate",
              "type": "string"
            },
            {
              "internalType": "string",
              "name": "abiLink",
              "type": "string"
            }
          ],
          "stateMutability": "view",
          "type": "function"
        },
        {
          "inputs": [
            {
              "internalType": "uint256",
              "name": "",
              "type": "uint256"
            }
          ],
          "name": "tickets",
          "outputs": [
            {
              "internalType": "uint256",
              "name": "index",
              "type": "uint256"
            },
            {
              "internalType": "string",
              "name": "sprintId",
              "type": "string"
            },
            {
              "internalType": "string",
              "name": "id",
              "type": "string"
            },
            {
              "internalType": "string",
              "name": "abiLink",
              "type": "string"
            },
            {
              "internalType": "string",
              "name": "repoter",
              "type": "string"
            },
            {
              "internalType": "string",
              "name": "owner",
              "type": "string"
            },
            {
              "internalType": "string",
              "name": "position",
              "type": "string"
            },
            {
              "internalType": "bool",
              "name": "status",
              "type": "bool"
            },
            {
              "internalType": "string",
              "name": "tracking",
              "type": "string"
            },
            {
              "internalType": "string",
              "name": "comments",
              "type": "string"
            }
          ],
          "stateMutability": "view",
          "type": "function"
        },
        {
          "inputs": [
            {
              "internalType": "string",
              "name": "senderUid",
              "type": "string"
            },
            {
              "internalType": "string",
              "name": "receiverUid",
              "type": "string"
            },
            {
              "internalType": "string",
              "name": "updatedSenderAbi",
              "type": "string"
            },
            {
              "internalType": "string",
              "name": "updatedReceiverAbi",
              "type": "string"
            },
            {
              "internalType": "uint256",
              "name": "index",
              "type": "uint256"
            },
            {
              "internalType": "string",
              "name": "trackingData",
              "type": "string"
            }
          ],
          "name": "transferTicket",
          "outputs": [],
          "stateMutability": "nonpayable",
          "type": "function"
        },
        {
          "inputs": [
            {
              "internalType": "string",
              "name": "abiLink",
              "type": "string"
            },
            {
              "internalType": "uint256",
              "name": "index",
              "type": "uint256"
            },
            {
              "internalType": "string",
              "name": "trackingData",
              "type": "string"
            },
            {
              "internalType": "bool",
              "name": "status",
              "type": "bool"
            }
          ],
          "name": "updateTicket",
          "outputs": [],
          "stateMutability": "nonpayable",
          "type": "function"
        },
        {
          "inputs": [
            {
              "internalType": "string",
              "name": "newOwnerUid",
              "type": "string"
            },
            {
              "internalType": "uint256",
              "name": "index",
              "type": "uint256"
            }
          ],
          "name": "updateTicketOwner",
          "outputs": [],
          "stateMutability": "nonpayable",
          "type": "function"
        },
        {
          "inputs": [
            {
              "internalType": "uint256",
              "name": "",
              "type": "uint256"
            }
          ],
          "name": "userList",
          "outputs": [
            {
              "internalType": "string",
              "name": "",
              "type": "string"
            }
          ],
          "stateMutability": "view",
          "type": "function"
        },
        {
          "inputs": [
            {
              "internalType": "string",
              "name": "",
              "type": "string"
            }
          ],
          "name": "users",
          "outputs": [
            {
              "internalType": "string",
              "name": "name",
              "type": "string"
            },
            {
              "internalType": "string",
              "name": "role",
              "type": "string"
            },
            {
              "internalType": "string",
              "name": "boardData",
              "type": "string"
            },
            {
              "internalType": "string",
              "name": "profileImg",
              "type": "string"
            },
            {
              "internalType": "string",
              "name": "abiLink",
              "type": "string"
            },
            {
              "internalType": "string",
              "name": "uid",
              "type": "string"
            }
          ],
          "stateMutability": "view",
          "type": "function"
        }
      ],
      "evm": {
        "bytecode": {
          "linkReferences": {},
          "object": "608060405234801561001057600080fd5b50613b4a806100206000396000f3fe608060405234801561001057600080fd5b50600436106101da5760003560e01c806356aa6387116101045780639f4216e8116100a2578063cda7efab11610071578063cda7efab14610563578063cf6194511461057f578063e7b8f6ab1461059b578063f60ca60d146105b7576101da565b80639f4216e8146104df578063b37a3d821461050f578063ba46415d1461052b578063c472609b14610547576101da565b80637a7bdd59116100de5780637a7bdd59146104595780638129fc1c14610489578063837d1d411461049357806397208cdc146104af576101da565b806356aa6387146103ea578063689e1c03146104065780636cba7beb1461043b576101da565b80633b3d673d1161017c57806347f2d2be1161014b57806347f2d2be14610343578063481c6a751461035f57806348b012b71461037d57806350b44712146103b1576101da565b80633b3d673d146102d15780633c06af24146102ed57806341f9e57c1461030957806347531df814610325576101da565b806312d92c52116101b857806312d92c52146102495780631d738a98146102675780633434e7b5146102835780633a7d280c146102a1576101da565b806303e96fe3146101df5780630d8b3e9b146101fd5780630f1a97601461022d575b600080fd5b6101e76105d5565b6040516101f491906129ed565b60405180910390f35b61021760048036038101906102129190612b58565b610aea565b6040516102249190612d6a565b60405180910390f35b61024760048036038101906102429190612db8565b610ce6565b005b610251610d31565b60405161025e9190612e23565b60405180910390f35b610281600480360381019061027c9190612e3e565b610d37565b005b61028b610e1a565b6040516102989190612f5f565b60405180910390f35b6102bb60048036038101906102b69190612f81565b610ea8565b6040516102c89190612fd9565b60405180910390f35b6102eb60048036038101906102e69190612ff4565b610f75565b005b61030760048036038101906103029190612f81565b610fb9565b005b610323600480360381019061031e9190613050565b610fd3565b005b61032d611012565b60405161033a919061318a565b60405180910390f35b61035d60048036038101906103589190612ff4565b6110eb565b005b61036761112f565b60405161037491906131ed565b60405180910390f35b61039760048036038101906103929190613208565b611155565b6040516103a8959493929190613235565b60405180910390f35b6103cb60048036038101906103c69190613208565b6113bb565b6040516103e19a999897969594939291906132a4565b60405180910390f35b61040460048036038101906103ff91906133a4565b61186c565b005b610420600480360381019061041b9190612f81565b6118e7565b60405161043296959493929190613443565b60405180910390f35b610443611c69565b604051610450919061361b565b60405180910390f35b610473600480360381019061046e9190613208565b611f1a565b6040516104809190612f5f565b60405180910390f35b610491611fd7565b005b6104ad60048036038101906104a8919061363d565b61206e565b005b6104c960048036038101906104c49190613208565b6120d8565b6040516104d69190612f5f565b60405180910390f35b6104f960048036038101906104f49190613208565b6121b5565b6040516105069190612f5f565b60405180910390f35b61052960048036038101906105249190612b58565b612261565b005b61054560048036038101906105409190613728565b6123b5565b005b610561600480360381019061055c91906137e3565b61246c565b005b61057d6004803603810190610578919061386e565b6124ca565b005b61059960048036038101906105949190613050565b612530565b005b6105b560048036038101906105b091906137e3565b61256f565b005b6105bf6125cd565b6040516105cc9190612f5f565b60405180910390f35b60606002805480602002602001604051908101604052809291908181526020016000905b82821015610ae157838290600052602060002090600a02016040518061014001604052908160008201548152602001600182018054610637906139b6565b80601f0160208091040260200160405190810160405280929190818152602001828054610663906139b6565b80156106b05780601f10610685576101008083540402835291602001916106b0565b820191906000526020600020905b81548152906001019060200180831161069357829003601f168201915b505050505081526020016002820180546106c9906139b6565b80601f01602080910402602001604051908101604052809291908181526020018280546106f5906139b6565b80156107425780601f1061071757610100808354040283529160200191610742565b820191906000526020600020905b81548152906001019060200180831161072557829003601f168201915b5050505050815260200160038201805461075b906139b6565b80601f0160208091040260200160405190810160405280929190818152602001828054610787906139b6565b80156107d45780601f106107a9576101008083540402835291602001916107d4565b820191906000526020600020905b8154815290600101906020018083116107b757829003601f168201915b505050505081526020016004820180546107ed906139b6565b80601f0160208091040260200160405190810160405280929190818152602001828054610819906139b6565b80156108665780601f1061083b57610100808354040283529160200191610866565b820191906000526020600020905b81548152906001019060200180831161084957829003601f168201915b5050505050815260200160058201805461087f906139b6565b80601f01602080910402602001604051908101604052809291908181526020018280546108ab906139b6565b80156108f85780601f106108cd576101008083540402835291602001916108f8565b820191906000526020600020905b8154815290600101906020018083116108db57829003601f168201915b50505050508152602001600682018054610911906139b6565b80601f016020809104026020016040519081016040528092919081815260200182805461093d906139b6565b801561098a5780601f1061095f5761010080835404028352916020019161098a565b820191906000526020600020905b81548152906001019060200180831161096d57829003601f168201915b505050505081526020016007820160009054906101000a900460ff161515151581526020016008820180546109be906139b6565b80601f01602080910402602001604051908101604052809291908181526020018280546109ea906139b6565b8015610a375780601f10610a0c57610100808354040283529160200191610a37565b820191906000526020600020905b815481529060010190602001808311610a1a57829003601f168201915b50505050508152602001600982018054610a50906139b6565b80601f0160208091040260200160405190810160405280929190818152602001828054610a7c906139b6565b8015610ac95780601f10610a9e57610100808354040283529160200191610ac9565b820191906000526020600020905b815481529060010190602001808311610aac57829003601f168201915b505050505081525050815260200190600101906105f9565b50505050905090565b610af261265b565b600060405180610140016040528060028054905081526020018881526020018781526020018681526020018581526020016040518060200160405280600081525081526020016040518060400160405280600181526020017f3100000000000000000000000000000000000000000000000000000000000000815250815260200160011515815260200184815260200160405180602001604052806000815250815250905060028190806001815401808255809150506001900390600052602060002090600a0201600090919091909150600082015181600001556020820151816001019080519060200190610be99291906126b0565b506040820151816002019080519060200190610c069291906126b0565b506060820151816003019080519060200190610c239291906126b0565b506080820151816004019080519060200190610c409291906126b0565b5060a0820151816005019080519060200190610c5d9291906126b0565b5060c0820151816006019080519060200190610c7a9291906126b0565b5060e08201518160070160006101000a81548160ff021916908315150217905550610100820151816008019080519060200190610cb89291906126b0565b50610120820151816009019080519060200190610cd69291906126b0565b5050508091505095945050505050565b81600781905550600060018381548110610d0357610d026139e7565b5b9060005260206000209060050201905081816002019080519060200190610d2b9291906126b0565b50505050565b60075481565b60006040518060a0016040528060018054905081526020018681526020018581526020018481526020018381525090506001819080600181540180825580915050600190039060005260206000209060050201600090919091909150600082015181600001556020820151816001019080519060200190610db99291906126b0565b506040820151816002019080519060200190610dd69291906126b0565b506060820151816003019080519060200190610df39291906126b0565b506080820151816004019080519060200190610e109291906126b0565b5050505050505050565b60068054610e27906139b6565b80601f0160208091040260200160405190810160405280929190818152602001828054610e53906139b6565b8015610ea05780601f10610e7557610100808354040283529160200191610ea0565b820191906000526020600020905b815481529060010190602001808311610e8357829003601f168201915b505050505081565b600080600083604051610ebb9190613a52565b90815260200160405180910390206000018054610ed7906139b6565b80601f0160208091040260200160405190810160405280929190818152602001828054610f03906139b6565b8015610f505780601f10610f2557610100808354040283529160200191610f50565b820191906000526020600020905b815481529060010190602001808311610f3357829003601f168201915b505050505090506000815103610f6a576000915050610f70565b60019150505b919050565b600060028281548110610f8b57610f8a6139e7565b5b90600052602060002090600a0201905082816005019080519060200190610fb39291906126b0565b50505050565b8060069080519060200190610fcf9291906126b0565b5050565b60008082604051610fe49190613a52565b908152602001604051809103902090508281600201908051906020019061100c9291906126b0565b50505050565b60606003805480602002602001604051908101604052809291908181526020016000905b828210156110e2578382906000526020600020018054611055906139b6565b80601f0160208091040260200160405190810160405280929190818152602001828054611081906139b6565b80156110ce5780601f106110a3576101008083540402835291602001916110ce565b820191906000526020600020905b8154815290600101906020018083116110b157829003601f168201915b505050505081526020019060010190611036565b50505050905090565b600060028281548110611101576111006139e7565b5b90600052602060002090600a02019050828160080190805190602001906111299291906126b0565b50505050565b600460009054906101000a900473ffffffffffffffffffffffffffffffffffffffff1681565b6001818154811061116557600080fd5b906000526020600020906005020160009150905080600001549080600101805461118e906139b6565b80601f01602080910402602001604051908101604052809291908181526020018280546111ba906139b6565b80156112075780601f106111dc57610100808354040283529160200191611207565b820191906000526020600020905b8154815290600101906020018083116111ea57829003601f168201915b50505050509080600201805461121c906139b6565b80601f0160208091040260200160405190810160405280929190818152602001828054611248906139b6565b80156112955780601f1061126a57610100808354040283529160200191611295565b820191906000526020600020905b81548152906001019060200180831161127857829003601f168201915b5050505050908060030180546112aa906139b6565b80601f01602080910402602001604051908101604052809291908181526020018280546112d6906139b6565b80156113235780601f106112f857610100808354040283529160200191611323565b820191906000526020600020905b81548152906001019060200180831161130657829003601f168201915b505050505090806004018054611338906139b6565b80601f0160208091040260200160405190810160405280929190818152602001828054611364906139b6565b80156113b15780601f10611386576101008083540402835291602001916113b1565b820191906000526020600020905b81548152906001019060200180831161139457829003601f168201915b5050505050905085565b600281815481106113cb57600080fd5b90600052602060002090600a02016000915090508060000154908060010180546113f4906139b6565b80601f0160208091040260200160405190810160405280929190818152602001828054611420906139b6565b801561146d5780601f106114425761010080835404028352916020019161146d565b820191906000526020600020905b81548152906001019060200180831161145057829003601f168201915b505050505090806002018054611482906139b6565b80601f01602080910402602001604051908101604052809291908181526020018280546114ae906139b6565b80156114fb5780601f106114d0576101008083540402835291602001916114fb565b820191906000526020600020905b8154815290600101906020018083116114de57829003601f168201915b505050505090806003018054611510906139b6565b80601f016020809104026020016040519081016040528092919081815260200182805461153c906139b6565b80156115895780601f1061155e57610100808354040283529160200191611589565b820191906000526020600020905b81548152906001019060200180831161156c57829003601f168201915b50505050509080600401805461159e906139b6565b80601f01602080910402602001604051908101604052809291908181526020018280546115ca906139b6565b80156116175780601f106115ec57610100808354040283529160200191611617565b820191906000526020600020905b8154815290600101906020018083116115fa57829003601f168201915b50505050509080600501805461162c906139b6565b80601f0160208091040260200160405190810160405280929190818152602001828054611658906139b6565b80156116a55780601f1061167a576101008083540402835291602001916116a5565b820191906000526020600020905b81548152906001019060200180831161168857829003601f168201915b5050505050908060060180546116ba906139b6565b80601f01602080910402602001604051908101604052809291908181526020018280546116e6906139b6565b80156117335780601f1061170857610100808354040283529160200191611733565b820191906000526020600020905b81548152906001019060200180831161171657829003601f168201915b5050505050908060070160009054906101000a900460ff169080600801805461175b906139b6565b80601f0160208091040260200160405190810160405280929190818152602001828054611787906139b6565b80156117d45780601f106117a9576101008083540402835291602001916117d4565b820191906000526020600020905b8154815290600101906020018083116117b757829003601f168201915b5050505050908060090180546117e9906139b6565b80601f0160208091040260200160405190810160405280929190818152602001828054611815906139b6565b80156118625780601f1061183757610100808354040283529160200191611862565b820191906000526020600020905b81548152906001019060200180831161184557829003601f168201915b505050505090508a565b600060028481548110611882576118816139e7565b5b90600052602060002090600a02019050848160030190805190602001906118aa9291906126b0565b50828160080190805190602001906118c39291906126b0565b50818160070160006101000a81548160ff0219169083151502179055505050505050565b600081805160208101820180518482526020830160208501208183528095505050505050600091509050806000018054611920906139b6565b80601f016020809104026020016040519081016040528092919081815260200182805461194c906139b6565b80156119995780601f1061196e57610100808354040283529160200191611999565b820191906000526020600020905b81548152906001019060200180831161197c57829003601f168201915b5050505050908060010180546119ae906139b6565b80601f01602080910402602001604051908101604052809291908181526020018280546119da906139b6565b8015611a275780601f106119fc57610100808354040283529160200191611a27565b820191906000526020600020905b815481529060010190602001808311611a0a57829003601f168201915b505050505090806002018054611a3c906139b6565b80601f0160208091040260200160405190810160405280929190818152602001828054611a68906139b6565b8015611ab55780601f10611a8a57610100808354040283529160200191611ab5565b820191906000526020600020905b815481529060010190602001808311611a9857829003601f168201915b505050505090806003018054611aca906139b6565b80601f0160208091040260200160405190810160405280929190818152602001828054611af6906139b6565b8015611b435780601f10611b1857610100808354040283529160200191611b43565b820191906000526020600020905b815481529060010190602001808311611b2657829003601f168201915b505050505090806004018054611b58906139b6565b80601f0160208091040260200160405190810160405280929190818152602001828054611b84906139b6565b8015611bd15780601f10611ba657610100808354040283529160200191611bd1565b820191906000526020600020905b815481529060010190602001808311611bb457829003601f168201915b505050505090806005018054611be6906139b6565b80601f0160208091040260200160405190810160405280929190818152602001828054611c12906139b6565b8015611c5f5780601f10611c3457610100808354040283529160200191611c5f565b820191906000526020600020905b815481529060010190602001808311611c4257829003601f168201915b5050505050905086565b60606001805480602002602001604051908101604052809291908181526020016000905b82821015611f1157838290600052602060002090600502016040518060a001604052908160008201548152602001600182018054611cca906139b6565b80601f0160208091040260200160405190810160405280929190818152602001828054611cf6906139b6565b8015611d435780601f10611d1857610100808354040283529160200191611d43565b820191906000526020600020905b815481529060010190602001808311611d2657829003601f168201915b50505050508152602001600282018054611d5c906139b6565b80601f0160208091040260200160405190810160405280929190818152602001828054611d88906139b6565b8015611dd55780601f10611daa57610100808354040283529160200191611dd5565b820191906000526020600020905b815481529060010190602001808311611db857829003601f168201915b50505050508152602001600382018054611dee906139b6565b80601f0160208091040260200160405190810160405280929190818152602001828054611e1a906139b6565b8015611e675780601f10611e3c57610100808354040283529160200191611e67565b820191906000526020600020905b815481529060010190602001808311611e4a57829003601f168201915b50505050508152602001600482018054611e80906139b6565b80601f0160208091040260200160405190810160405280929190818152602001828054611eac906139b6565b8015611ef95780601f10611ece57610100808354040283529160200191611ef9565b820191906000526020600020905b815481529060010190602001808311611edc57829003601f168201915b50505050508152505081526020019060010190611c8d565b50505050905090565b6060600060028381548110611f3257611f316139e7565b5b90600052602060002090600a02019050806003018054611f51906139b6565b80601f0160208091040260200160405190810160405280929190818152602001828054611f7d906139b6565b8015611fca5780601f10611f9f57610100808354040283529160200191611fca565b820191906000526020600020905b815481529060010190602001808311611fad57829003601f168201915b5050505050915050919050565b33600460006101000a81548173ffffffffffffffffffffffffffffffffffffffff021916908373ffffffffffffffffffffffffffffffffffffffff1602179055506040518060400160405280600c81526020017f4a4952412057656220332e300000000000000000000000000000000000000000815250600590805190602001906120639291906126b0565b506000600781905550565b600060028581548110612084576120836139e7565b5b90600052602060002090600a02019050858160060190805190602001906120ac9291906126b0565b50818160080190805190602001906120c59291906126b0565b506120d08484610fd3565b505050505050565b60606000600283815481106120f0576120ef6139e7565b5b90600052602060002090600a020190506000816005016040516121139190613afd565b9081526020016040518091039020600301805461212f906139b6565b80601f016020809104026020016040519081016040528092919081815260200182805461215b906139b6565b80156121a85780601f1061217d576101008083540402835291602001916121a8565b820191906000526020600020905b81548152906001019060200180831161218b57829003601f168201915b5050505050915050919050565b600381815481106121c557600080fd5b9060005260206000200160009150905080546121e0906139b6565b80601f016020809104026020016040519081016040528092919081815260200182805461220c906139b6565b80156122595780601f1061222e57610100808354040283529160200191612259565b820191906000526020600020905b81548152906001019060200180831161223c57829003601f168201915b505050505081565b60006040518060c00160405280868152602001858152602001838152602001848152602001604051806020016040528060008152508152602001878152509050806000876040516122b29190613a52565b908152602001604051809103902060008201518160000190805190602001906122dc9291906126b0565b5060208201518160010190805190602001906122f99291906126b0565b5060408201518160020190805190602001906123169291906126b0565b5060608201518160030190805190602001906123339291906126b0565b5060808201518160040190805190602001906123509291906126b0565b5060a082015181600501908051906020019061236d9291906126b0565b509050506003869080600181540180825580915050600190039060005260206000200160009091909190915090805190602001906123ac9291906126b0565b50505050505050565b6000600284815481106123cb576123ca6139e7565b5b90600052602060002090600a02019050848160050190805190602001906123f39291906126b0565b506040518060400160405280600181526020017f31000000000000000000000000000000000000000000000000000000000000008152508160060190805190602001906124419291906126b0565b508181600801908051906020019061245a9291906126b0565b506124658386610fd3565b5050505050565b600060028381548110612482576124816139e7565b5b90600052602060002090600a02019050838160010190805190602001906124aa9291906126b0565b50818160080190805190602001906124c39291906126b0565b5050505050565b6124d48487610fd3565b6124de8386610fd3565b6124e88583610f75565b6000600283815481106124fe576124fd6139e7565b5b90600052602060002090600a02019050818160080190805190602001906125269291906126b0565b5050505050505050565b600080826040516125419190613a52565b90815260200160405180910390209050828160040190805190602001906125699291906126b0565b50505050565b600060028381548110612585576125846139e7565b5b90600052602060002090600a02019050838160090190805190602001906125ad9291906126b0565b50818160080190805190602001906125c69291906126b0565b5050505050565b600580546125da906139b6565b80601f0160208091040260200160405190810160405280929190818152602001828054612606906139b6565b80156126535780601f1061262857610100808354040283529160200191612653565b820191906000526020600020905b81548152906001019060200180831161263657829003601f168201915b505050505081565b6040518061014001604052806000815260200160608152602001606081526020016060815260200160608152602001606081526020016060815260200160001515815260200160608152602001606081525090565b8280546126bc906139b6565b90600052602060002090601f0160209004810192826126de5760008555612725565b82601f106126f757805160ff1916838001178555612725565b82800160010185558215612725579182015b82811115612724578251825591602001919060010190612709565b5b5090506127329190612736565b5090565b5b8082111561274f576000816000905550600101612737565b5090565b600081519050919050565b600082825260208201905092915050565b6000819050602082019050919050565b6000819050919050565b6127928161277f565b82525050565b600081519050919050565b600082825260208201905092915050565b60005b838110156127d25780820151818401526020810190506127b7565b838111156127e1576000848401525b50505050565b6000601f19601f8301169050919050565b600061280382612798565b61280d81856127a3565b935061281d8185602086016127b4565b612826816127e7565b840191505092915050565b60008115159050919050565b61284681612831565b82525050565b6000610140830160008301516128656000860182612789565b506020830151848203602086015261287d82826127f8565b9150506040830151848203604086015261289782826127f8565b915050606083015184820360608601526128b182826127f8565b915050608083015184820360808601526128cb82826127f8565b91505060a083015184820360a08601526128e582826127f8565b91505060c083015184820360c08601526128ff82826127f8565b91505060e083015161291460e086018261283d565b5061010083015184820361010086015261292e82826127f8565b91505061012083015184820361012086015261294a82826127f8565b9150508091505092915050565b6000612963838361284c565b905092915050565b6000602082019050919050565b600061298382612753565b61298d818561275e565b93508360208202850161299f8561276f565b8060005b858110156129db57848403895281516129bc8582612957565b94506129c78361296b565b925060208a019950506001810190506129a3565b50829750879550505050505092915050565b60006020820190508181036000830152612a078184612978565b905092915050565b6000604051905090565b600080fd5b600080fd5b600080fd5b600080fd5b7f4e487b7100000000000000000000000000000000000000000000000000000000600052604160045260246000fd5b612a65826127e7565b810181811067ffffffffffffffff82111715612a8457612a83612a2d565b5b80604052505050565b6000612a97612a0f565b9050612aa38282612a5c565b919050565b600067ffffffffffffffff821115612ac357612ac2612a2d565b5b612acc826127e7565b9050602081019050919050565b82818337600083830152505050565b6000612afb612af684612aa8565b612a8d565b905082815260208101848484011115612b1757612b16612a28565b5b612b22848285612ad9565b509392505050565b600082601f830112612b3f57612b3e612a23565b5b8135612b4f848260208601612ae8565b91505092915050565b600080600080600060a08688031215612b7457612b73612a19565b5b600086013567ffffffffffffffff811115612b9257612b91612a1e565b5b612b9e88828901612b2a565b955050602086013567ffffffffffffffff811115612bbf57612bbe612a1e565b5b612bcb88828901612b2a565b945050604086013567ffffffffffffffff811115612bec57612beb612a1e565b5b612bf888828901612b2a565b935050606086013567ffffffffffffffff811115612c1957612c18612a1e565b5b612c2588828901612b2a565b925050608086013567ffffffffffffffff811115612c4657612c45612a1e565b5b612c5288828901612b2a565b9150509295509295909350565b600061014083016000830151612c786000860182612789565b5060208301518482036020860152612c9082826127f8565b91505060408301518482036040860152612caa82826127f8565b91505060608301518482036060860152612cc482826127f8565b91505060808301518482036080860152612cde82826127f8565b91505060a083015184820360a0860152612cf882826127f8565b91505060c083015184820360c0860152612d1282826127f8565b91505060e0830151612d2760e086018261283d565b50610100830151848203610100860152612d4182826127f8565b915050610120830151848203610120860152612d5d82826127f8565b9150508091505092915050565b60006020820190508181036000830152612d848184612c5f565b905092915050565b612d958161277f565b8114612da057600080fd5b50565b600081359050612db281612d8c565b92915050565b60008060408385031215612dcf57612dce612a19565b5b6000612ddd85828601612da3565b925050602083013567ffffffffffffffff811115612dfe57612dfd612a1e565b5b612e0a85828601612b2a565b9150509250929050565b612e1d8161277f565b82525050565b6000602082019050612e386000830184612e14565b92915050565b60008060008060808587031215612e5857612e57612a19565b5b600085013567ffffffffffffffff811115612e7657612e75612a1e565b5b612e8287828801612b2a565b945050602085013567ffffffffffffffff811115612ea357612ea2612a1e565b5b612eaf87828801612b2a565b935050604085013567ffffffffffffffff811115612ed057612ecf612a1e565b5b612edc87828801612b2a565b925050606085013567ffffffffffffffff811115612efd57612efc612a1e565b5b612f0987828801612b2a565b91505092959194509250565b600082825260208201905092915050565b6000612f3182612798565b612f3b8185612f15565b9350612f4b8185602086016127b4565b612f54816127e7565b840191505092915050565b60006020820190508181036000830152612f798184612f26565b905092915050565b600060208284031215612f9757612f96612a19565b5b600082013567ffffffffffffffff811115612fb557612fb4612a1e565b5b612fc184828501612b2a565b91505092915050565b612fd381612831565b82525050565b6000602082019050612fee6000830184612fca565b92915050565b6000806040838503121561300b5761300a612a19565b5b600083013567ffffffffffffffff81111561302957613028612a1e565b5b61303585828601612b2a565b925050602061304685828601612da3565b9150509250929050565b6000806040838503121561306757613066612a19565b5b600083013567ffffffffffffffff81111561308557613084612a1e565b5b61309185828601612b2a565b925050602083013567ffffffffffffffff8111156130b2576130b1612a1e565b5b6130be85828601612b2a565b9150509250929050565b600081519050919050565b600082825260208201905092915050565b6000819050602082019050919050565b600061310083836127f8565b905092915050565b6000602082019050919050565b6000613120826130c8565b61312a81856130d3565b93508360208202850161313c856130e4565b8060005b85811015613178578484038952815161315985826130f4565b945061316483613108565b925060208a01995050600181019050613140565b50829750879550505050505092915050565b600060208201905081810360008301526131a48184613115565b905092915050565b600073ffffffffffffffffffffffffffffffffffffffff82169050919050565b60006131d7826131ac565b9050919050565b6131e7816131cc565b82525050565b600060208201905061320260008301846131de565b92915050565b60006020828403121561321e5761321d612a19565b5b600061322c84828501612da3565b91505092915050565b600060a08201905061324a6000830188612e14565b818103602083015261325c8187612f26565b905081810360408301526132708186612f26565b905081810360608301526132848185612f26565b905081810360808301526132988184612f26565b90509695505050505050565b6000610140820190506132ba600083018d612e14565b81810360208301526132cc818c612f26565b905081810360408301526132e0818b612f26565b905081810360608301526132f4818a612f26565b905081810360808301526133088189612f26565b905081810360a083015261331c8188612f26565b905081810360c08301526133308187612f26565b905061333f60e0830186612fca565b8181036101008301526133528185612f26565b90508181036101208301526133678184612f26565b90509b9a5050505050505050505050565b61338181612831565b811461338c57600080fd5b50565b60008135905061339e81613378565b92915050565b600080600080608085870312156133be576133bd612a19565b5b600085013567ffffffffffffffff8111156133dc576133db612a1e565b5b6133e887828801612b2a565b94505060206133f987828801612da3565b935050604085013567ffffffffffffffff81111561341a57613419612a1e565b5b61342687828801612b2a565b92505060606134378782880161338f565b91505092959194509250565b600060c082019050818103600083015261345d8189612f26565b905081810360208301526134718188612f26565b905081810360408301526134858187612f26565b905081810360608301526134998186612f26565b905081810360808301526134ad8185612f26565b905081810360a08301526134c18184612f26565b9050979650505050505050565b600081519050919050565b600082825260208201905092915050565b6000819050602082019050919050565b600060a0830160008301516135126000860182612789565b506020830151848203602086015261352a82826127f8565b9150506040830151848203604086015261354482826127f8565b9150506060830151848203606086015261355e82826127f8565b9150506080830151848203608086015261357882826127f8565b9150508091505092915050565b600061359183836134fa565b905092915050565b6000602082019050919050565b60006135b1826134ce565b6135bb81856134d9565b9350836020820285016135cd856134ea565b8060005b8581101561360957848403895281516135ea8582613585565b94506135f583613599565b925060208a019950506001810190506135d1565b50829750879550505050505092915050565b6000602082019050818103600083015261363581846135a6565b905092915050565b600080600080600060a0868803121561365957613658612a19565b5b600086013567ffffffffffffffff81111561367757613676612a1e565b5b61368388828901612b2a565b955050602061369488828901612da3565b945050604086013567ffffffffffffffff8111156136b5576136b4612a1e565b5b6136c188828901612b2a565b935050606086013567ffffffffffffffff8111156136e2576136e1612a1e565b5b6136ee88828901612b2a565b925050608086013567ffffffffffffffff81111561370f5761370e612a1e565b5b61371b88828901612b2a565b9150509295509295909350565b6000806000806080858703121561374257613741612a19565b5b600085013567ffffffffffffffff8111156137605761375f612a1e565b5b61376c87828801612b2a565b945050602061377d87828801612da3565b935050604085013567ffffffffffffffff81111561379e5761379d612a1e565b5b6137aa87828801612b2a565b925050606085013567ffffffffffffffff8111156137cb576137ca612a1e565b5b6137d787828801612b2a565b91505092959194509250565b6000806000606084860312156137fc576137fb612a19565b5b600084013567ffffffffffffffff81111561381a57613819612a1e565b5b61382686828701612b2a565b935050602061383786828701612da3565b925050604084013567ffffffffffffffff81111561385857613857612a1e565b5b61386486828701612b2a565b9150509250925092565b60008060008060008060c0878903121561388b5761388a612a19565b5b600087013567ffffffffffffffff8111156138a9576138a8612a1e565b5b6138b589828a01612b2a565b965050602087013567ffffffffffffffff8111156138d6576138d5612a1e565b5b6138e289828a01612b2a565b955050604087013567ffffffffffffffff81111561390357613902612a1e565b5b61390f89828a01612b2a565b945050606087013567ffffffffffffffff8111156139305761392f612a1e565b5b61393c89828a01612b2a565b935050608061394d89828a01612da3565b92505060a087013567ffffffffffffffff81111561396e5761396d612a1e565b5b61397a89828a01612b2a565b9150509295509295509295565b7f4e487b7100000000000000000000000000000000000000000000000000000000600052602260045260246000fd5b600060028204905060018216806139ce57607f821691505b6020821081036139e1576139e0613987565b5b50919050565b7f4e487b7100000000000000000000000000000000000000000000000000000000600052603260045260246000fd5b600081905092915050565b6000613a2c82612798565b613a368185613a16565b9350613a468185602086016127b4565b80840191505092915050565b6000613a5e8284613a21565b915081905092915050565b60008190508160005260206000209050919050565b60008154613a8b816139b6565b613a958186613a16565b94506001821660008114613ab05760018114613ac157613af4565b60ff19831686528186019350613af4565b613aca85613a69565b60005b83811015613aec57815481890152600182019150602081019050613acd565b838801955050505b50505092915050565b6000613b098284613a7e565b91508190509291505056fea2646970667358221220db558ba86701f7f59003ba50b1e802e28fa99a289b33d6d51ed4eee1543ed96064736f6c634300080d0033",
          "opcodes": "PUSH1 0x80 PUSH1 0x40 MSTORE CALLVALUE DUP1 ISZERO PUSH2 0x10 JUMPI PUSH1 0x0 DUP1 REVERT JUMPDEST POP PUSH2 0x3B4A DUP1 PUSH2 0x20 PUSH1 0x0 CODECOPY PUSH1 0x0 RETURN INVALID PUSH1 0x80 PUSH1 0x40 MSTORE CALLVALUE DUP1 ISZERO PUSH2 0x10 JUMPI PUSH1 0x0 DUP1 REVERT JUMPDEST POP PUSH1 0x4 CALLDATASIZE LT PUSH2 0x1DA JUMPI PUSH1 0x0 CALLDATALOAD PUSH1 0xE0 SHR DUP1 PUSH4 0x56AA6387 GT PUSH2 0x104 JUMPI DUP1 PUSH4 0x9F4216E8 GT PUSH2 0xA2 JUMPI DUP1 PUSH4 0xCDA7EFAB GT PUSH2 0x71 JUMPI DUP1 PUSH4 0xCDA7EFAB EQ PUSH2 0x563 JUMPI DUP1 PUSH4 0xCF619451 EQ PUSH2 0x57F JUMPI DUP1 PUSH4 0xE7B8F6AB EQ PUSH2 0x59B JUMPI DUP1 PUSH4 0xF60CA60D EQ PUSH2 0x5B7 JUMPI PUSH2 0x1DA JUMP JUMPDEST DUP1 PUSH4 0x9F4216E8 EQ PUSH2 0x4DF JUMPI DUP1 PUSH4 0xB37A3D82 EQ PUSH2 0x50F JUMPI DUP1 PUSH4 0xBA46415D EQ PUSH2 0x52B JUMPI DUP1 PUSH4 0xC472609B EQ PUSH2 0x547 JUMPI PUSH2 0x1DA JUMP JUMPDEST DUP1 PUSH4 0x7A7BDD59 GT PUSH2 0xDE JUMPI DUP1 PUSH4 0x7A7BDD59 EQ PUSH2 0x459 JUMPI DUP1 PUSH4 0x8129FC1C EQ PUSH2 0x489 JUMPI DUP1 PUSH4 0x837D1D41 EQ PUSH2 0x493 JUMPI DUP1 PUSH4 0x97208CDC EQ PUSH2 0x4AF JUMPI PUSH2 0x1DA JUMP JUMPDEST DUP1 PUSH4 0x56AA6387 EQ PUSH2 0x3EA JUMPI DUP1 PUSH4 0x689E1C03 EQ PUSH2 0x406 JUMPI DUP1 PUSH4 0x6CBA7BEB EQ PUSH2 0x43B JUMPI PUSH2 0x1DA JUMP JUMPDEST DUP1 PUSH4 0x3B3D673D GT PUSH2 0x17C JUMPI DUP1 PUSH4 0x47F2D2BE GT PUSH2 0x14B JUMPI DUP1 PUSH4 0x47F2D2BE EQ PUSH2 0x343 JUMPI DUP1 PUSH4 0x481C6A75 EQ PUSH2 0x35F JUMPI DUP1 PUSH4 0x48B012B7 EQ PUSH2 0x37D JUMPI DUP1 PUSH4 0x50B44712 EQ PUSH2 0x3B1 JUMPI PUSH2 0x1DA JUMP JUMPDEST DUP1 PUSH4 0x3B3D673D EQ PUSH2 0x2D1 JUMPI DUP1 PUSH4 0x3C06AF24 EQ PUSH2 0x2ED JUMPI DUP1 PUSH4 0x41F9E57C EQ PUSH2 0x309 JUMPI DUP1 PUSH4 0x47531DF8 EQ PUSH2 0x325 JUMPI PUSH2 0x1DA JUMP JUMPDEST DUP1 PUSH4 0x12D92C52 GT PUSH2 0x1B8 JUMPI DUP1 PUSH4 0x12D92C52 EQ PUSH2 0x249 JUMPI DUP1 PUSH4 0x1D738A98 EQ PUSH2 0x267 JUMPI DUP1 PUSH4 0x3434E7B5 EQ PUSH2 0x283 JUMPI DUP1 PUSH4 0x3A7D280C EQ PUSH2 0x2A1 JUMPI PUSH2 0x1DA JUMP JUMPDEST DUP1 PUSH4 0x3E96FE3 EQ PUSH2 0x1DF JUMPI DUP1 PUSH4 0xD8B3E9B EQ PUSH2 0x1FD JUMPI DUP1 PUSH4 0xF1A9760 EQ PUSH2 0x22D JUMPI JUMPDEST PUSH1 0x0 DUP1 REVERT JUMPDEST PUSH2 0x1E7 PUSH2 0x5D5 JUMP JUMPDEST PUSH1 0x40 MLOAD PUSH2 0x1F4 SWAP2 SWAP1 PUSH2 0x29ED JUMP JUMPDEST PUSH1 0x40 MLOAD DUP1 SWAP2 SUB SWAP1 RETURN JUMPDEST PUSH2 0x217 PUSH1 0x4 DUP1 CALLDATASIZE SUB DUP2 ADD SWAP1 PUSH2 0x212 SWAP2 SWAP1 PUSH2 0x2B58 JUMP JUMPDEST PUSH2 0xAEA JUMP JUMPDEST PUSH1 0x40 MLOAD PUSH2 0x224 SWAP2 SWAP1 PUSH2 0x2D6A JUMP JUMPDEST PUSH1 0x40 MLOAD DUP1 SWAP2 SUB SWAP1 RETURN JUMPDEST PUSH2 0x247 PUSH1 0x4 DUP1 CALLDATASIZE SUB DUP2 ADD SWAP1 PUSH2 0x242 SWAP2 SWAP1 PUSH2 0x2DB8 JUMP JUMPDEST PUSH2 0xCE6 JUMP JUMPDEST STOP JUMPDEST PUSH2 0x251 PUSH2 0xD31 JUMP JUMPDEST PUSH1 0x40 MLOAD PUSH2 0x25E SWAP2 SWAP1 PUSH2 0x2E23 JUMP JUMPDEST PUSH1 0x40 MLOAD DUP1 SWAP2 SUB SWAP1 RETURN JUMPDEST PUSH2 0x281 PUSH1 0x4 DUP1 CALLDATASIZE SUB DUP2 ADD SWAP1 PUSH2 0x27C SWAP2 SWAP1 PUSH2 0x2E3E JUMP JUMPDEST PUSH2 0xD37 JUMP JUMPDEST STOP JUMPDEST PUSH2 0x28B PUSH2 0xE1A JUMP JUMPDEST PUSH1 0x40 MLOAD PUSH2 0x298 SWAP2 SWAP1 PUSH2 0x2F5F JUMP JUMPDEST PUSH1 0x40 MLOAD DUP1 SWAP2 SUB SWAP1 RETURN JUMPDEST PUSH2 0x2BB PUSH1 0x4 DUP1 CALLDATASIZE SUB DUP2 ADD SWAP1 PUSH2 0x2B6 SWAP2 SWAP1 PUSH2 0x2F81 JUMP JUMPDEST PUSH2 0xEA8 JUMP JUMPDEST PUSH1 0x40 MLOAD PUSH2 0x2C8 SWAP2 SWAP1 PUSH2 0x2FD9 JUMP JUMPDEST PUSH1 0x40 MLOAD DUP1 SWAP2 SUB SWAP1 RETURN JUMPDEST PUSH2 0x2EB PUSH1 0x4 DUP1 CALLDATASIZE SUB DUP2 ADD SWAP1 PUSH2 0x2E6 SWAP2 SWAP1 PUSH2 0x2FF4 JUMP JUMPDEST PUSH2 0xF75 JUMP JUMPDEST STOP JUMPDEST PUSH2 0x307 PUSH1 0x4 DUP1 CALLDATASIZE SUB DUP2 ADD SWAP1 PUSH2 0x302 SWAP2 SWAP1 PUSH2 0x2F81 JUMP JUMPDEST PUSH2 0xFB9 JUMP JUMPDEST STOP JUMPDEST PUSH2 0x323 PUSH1 0x4 DUP1 CALLDATASIZE SUB DUP2 ADD SWAP1 PUSH2 0x31E SWAP2 SWAP1 PUSH2 0x3050 JUMP JUMPDEST PUSH2 0xFD3 JUMP JUMPDEST STOP JUMPDEST PUSH2 0x32D PUSH2 0x1012 JUMP JUMPDEST PUSH1 0x40 MLOAD PUSH2 0x33A SWAP2 SWAP1 PUSH2 0x318A JUMP JUMPDEST PUSH1 0x40 MLOAD DUP1 SWAP2 SUB SWAP1 RETURN JUMPDEST PUSH2 0x35D PUSH1 0x4 DUP1 CALLDATASIZE SUB DUP2 ADD SWAP1 PUSH2 0x358 SWAP2 SWAP1 PUSH2 0x2FF4 JUMP JUMPDEST PUSH2 0x10EB JUMP JUMPDEST STOP JUMPDEST PUSH2 0x367 PUSH2 0x112F JUMP JUMPDEST PUSH1 0x40 MLOAD PUSH2 0x374 SWAP2 SWAP1 PUSH2 0x31ED JUMP JUMPDEST PUSH1 0x40 MLOAD DUP1 SWAP2 SUB SWAP1 RETURN JUMPDEST PUSH2 0x397 PUSH1 0x4 DUP1 CALLDATASIZE SUB DUP2 ADD SWAP1 PUSH2 0x392 SWAP2 SWAP1 PUSH2 0x3208 JUMP JUMPDEST PUSH2 0x1155 JUMP JUMPDEST PUSH1 0x40 MLOAD PUSH2 0x3A8 SWAP6 SWAP5 SWAP4 SWAP3 SWAP2 SWAP1 PUSH2 0x3235 JUMP JUMPDEST PUSH1 0x40 MLOAD DUP1 SWAP2 SUB SWAP1 RETURN JUMPDEST PUSH2 0x3CB PUSH1 0x4 DUP1 CALLDATASIZE SUB DUP2 ADD SWAP1 PUSH2 0x3C6 SWAP2 SWAP1 PUSH2 0x3208 JUMP JUMPDEST PUSH2 0x13BB JUMP JUMPDEST PUSH1 0x40 MLOAD PUSH2 0x3E1 SWAP11 SWAP10 SWAP9 SWAP8 SWAP7 SWAP6 SWAP5 SWAP4 SWAP3 SWAP2 SWAP1 PUSH2 0x32A4 JUMP JUMPDEST PUSH1 0x40 MLOAD DUP1 SWAP2 SUB SWAP1 RETURN JUMPDEST PUSH2 0x404 PUSH1 0x4 DUP1 CALLDATASIZE SUB DUP2 ADD SWAP1 PUSH2 0x3FF SWAP2 SWAP1 PUSH2 0x33A4 JUMP JUMPDEST PUSH2 0x186C JUMP JUMPDEST STOP JUMPDEST PUSH2 0x420 PUSH1 0x4 DUP1 CALLDATASIZE SUB DUP2 ADD SWAP1 PUSH2 0x41B SWAP2 SWAP1 PUSH2 0x2F81 JUMP JUMPDEST PUSH2 0x18E7 JUMP JUMPDEST PUSH1 0x40 MLOAD PUSH2 0x432 SWAP7 SWAP6 SWAP5 SWAP4 SWAP3 SWAP2 SWAP1 PUSH2 0x3443 JUMP JUMPDEST PUSH1 0x40 MLOAD DUP1 SWAP2 SUB SWAP1 RETURN JUMPDEST PUSH2 0x443 PUSH2 0x1C69 JUMP JUMPDEST PUSH1 0x40 MLOAD PUSH2 0x450 SWAP2 SWAP1 PUSH2 0x361B JUMP JUMPDEST PUSH1 0x40 MLOAD DUP1 SWAP2 SUB SWAP1 RETURN JUMPDEST PUSH2 0x473 PUSH1 0x4 DUP1 CALLDATASIZE SUB DUP2 ADD SWAP1 PUSH2 0x46E SWAP2 SWAP1 PUSH2 0x3208 JUMP JUMPDEST PUSH2 0x1F1A JUMP JUMPDEST PUSH1 0x40 MLOAD PUSH2 0x480 SWAP2 SWAP1 PUSH2 0x2F5F JUMP JUMPDEST PUSH1 0x40 MLOAD DUP1 SWAP2 SUB SWAP1 RETURN JUMPDEST PUSH2 0x491 PUSH2 0x1FD7 JUMP JUMPDEST STOP JUMPDEST PUSH2 0x4AD PUSH1 0x4 DUP1 CALLDATASIZE SUB DUP2 ADD SWAP1 PUSH2 0x4A8 SWAP2 SWAP1 PUSH2 0x363D JUMP JUMPDEST PUSH2 0x206E JUMP JUMPDEST STOP JUMPDEST PUSH2 0x4C9 PUSH1 0x4 DUP1 CALLDATASIZE SUB DUP2 ADD SWAP1 PUSH2 0x4C4 SWAP2 SWAP1 PUSH2 0x3208 JUMP JUMPDEST PUSH2 0x20D8 JUMP JUMPDEST PUSH1 0x40 MLOAD PUSH2 0x4D6 SWAP2 SWAP1 PUSH2 0x2F5F JUMP JUMPDEST PUSH1 0x40 MLOAD DUP1 SWAP2 SUB SWAP1 RETURN JUMPDEST PUSH2 0x4F9 PUSH1 0x4 DUP1 CALLDATASIZE SUB DUP2 ADD SWAP1 PUSH2 0x4F4 SWAP2 SWAP1 PUSH2 0x3208 JUMP JUMPDEST PUSH2 0x21B5 JUMP JUMPDEST PUSH1 0x40 MLOAD PUSH2 0x506 SWAP2 SWAP1 PUSH2 0x2F5F JUMP JUMPDEST PUSH1 0x40 MLOAD DUP1 SWAP2 SUB SWAP1 RETURN JUMPDEST PUSH2 0x529 PUSH1 0x4 DUP1 CALLDATASIZE SUB DUP2 ADD SWAP1 PUSH2 0x524 SWAP2 SWAP1 PUSH2 0x2B58 JUMP JUMPDEST PUSH2 0x2261 JUMP JUMPDEST STOP JUMPDEST PUSH2 0x545 PUSH1 0x4 DUP1 CALLDATASIZE SUB DUP2 ADD SWAP1 PUSH2 0x540 SWAP2 SWAP1 PUSH2 0x3728 JUMP JUMPDEST PUSH2 0x23B5 JUMP JUMPDEST STOP JUMPDEST PUSH2 0x561 PUSH1 0x4 DUP1 CALLDATASIZE SUB DUP2 ADD SWAP1 PUSH2 0x55C SWAP2 SWAP1 PUSH2 0x37E3 JUMP JUMPDEST PUSH2 0x246C JUMP JUMPDEST STOP JUMPDEST PUSH2 0x57D PUSH1 0x4 DUP1 CALLDATASIZE SUB DUP2 ADD SWAP1 PUSH2 0x578 SWAP2 SWAP1 PUSH2 0x386E JUMP JUMPDEST PUSH2 0x24CA JUMP JUMPDEST STOP JUMPDEST PUSH2 0x599 PUSH1 0x4 DUP1 CALLDATASIZE SUB DUP2 ADD SWAP1 PUSH2 0x594 SWAP2 SWAP1 PUSH2 0x3050 JUMP JUMPDEST PUSH2 0x2530 JUMP JUMPDEST STOP JUMPDEST PUSH2 0x5B5 PUSH1 0x4 DUP1 CALLDATASIZE SUB DUP2 ADD SWAP1 PUSH2 0x5B0 SWAP2 SWAP1 PUSH2 0x37E3 JUMP JUMPDEST PUSH2 0x256F JUMP JUMPDEST STOP JUMPDEST PUSH2 0x5BF PUSH2 0x25CD JUMP JUMPDEST PUSH1 0x40 MLOAD PUSH2 0x5CC SWAP2 SWAP1 PUSH2 0x2F5F JUMP JUMPDEST PUSH1 0x40 MLOAD DUP1 SWAP2 SUB SWAP1 RETURN JUMPDEST PUSH1 0x60 PUSH1 0x2 DUP1 SLOAD DUP1 PUSH1 0x20 MUL PUSH1 0x20 ADD PUSH1 0x40 MLOAD SWAP1 DUP2 ADD PUSH1 0x40 MSTORE DUP1 SWAP3 SWAP2 SWAP1 DUP2 DUP2 MSTORE PUSH1 0x20 ADD PUSH1 0x0 SWAP1 JUMPDEST DUP3 DUP3 LT ISZERO PUSH2 0xAE1 JUMPI DUP4 DUP3 SWAP1 PUSH1 0x0 MSTORE PUSH1 0x20 PUSH1 0x0 KECCAK256 SWAP1 PUSH1 0xA MUL ADD PUSH1 0x40 MLOAD DUP1 PUSH2 0x140 ADD PUSH1 0x40 MSTORE SWAP1 DUP2 PUSH1 0x0 DUP3 ADD SLOAD DUP2 MSTORE PUSH1 0x20 ADD PUSH1 0x1 DUP3 ADD DUP1 SLOAD PUSH2 0x637 SWAP1 PUSH2 0x39B6 JUMP JUMPDEST DUP1 PUSH1 0x1F ADD PUSH1 0x20 DUP1 SWAP2 DIV MUL PUSH1 0x20 ADD PUSH1 0x40 MLOAD SWAP1 DUP2 ADD PUSH1 0x40 MSTORE DUP1 SWAP3 SWAP2 SWAP1 DUP2 DUP2 MSTORE PUSH1 0x20 ADD DUP3 DUP1 SLOAD PUSH2 0x663 SWAP1 PUSH2 0x39B6 JUMP JUMPDEST DUP1 ISZERO PUSH2 0x6B0 JUMPI DUP1 PUSH1 0x1F LT PUSH2 0x685 JUMPI PUSH2 0x100 DUP1 DUP4 SLOAD DIV MUL DUP4 MSTORE SWAP2 PUSH1 0x20 ADD SWAP2 PUSH2 0x6B0 JUMP JUMPDEST DUP3 ADD SWAP2 SWAP1 PUSH1 0x0 MSTORE PUSH1 0x20 PUSH1 0x0 KECCAK256 SWAP1 JUMPDEST DUP2 SLOAD DUP2 MSTORE SWAP1 PUSH1 0x1 ADD SWAP1 PUSH1 0x20 ADD DUP1 DUP4 GT PUSH2 0x693 JUMPI DUP3 SWAP1 SUB PUSH1 0x1F AND DUP3 ADD SWAP2 JUMPDEST POP POP POP POP POP DUP2 MSTORE PUSH1 0x20 ADD PUSH1 0x2 DUP3 ADD DUP1 SLOAD PUSH2 0x6C9 SWAP1 PUSH2 0x39B6 JUMP JUMPDEST DUP1 PUSH1 0x1F ADD PUSH1 0x20 DUP1 SWAP2 DIV MUL PUSH1 0x20 ADD PUSH1 0x40 MLOAD SWAP1 DUP2 ADD PUSH1 0x40 MSTORE DUP1 SWAP3 SWAP2 SWAP1 DUP2 DUP2 MSTORE PUSH1 0x20 ADD DUP3 DUP1 SLOAD PUSH2 0x6F5 SWAP1 PUSH2 0x39B6 JUMP JUMPDEST DUP1 ISZERO PUSH2 0x742 JUMPI DUP1 PUSH1 0x1F LT PUSH2 0x717 JUMPI PUSH2 0x100 DUP1 DUP4 SLOAD DIV MUL DUP4 MSTORE SWAP2 PUSH1 0x20 ADD SWAP2 PUSH2 0x742 JUMP JUMPDEST DUP3 ADD SWAP2 SWAP1 PUSH1 0x0 MSTORE PUSH1 0x20 PUSH1 0x0 KECCAK256 SWAP1 JUMPDEST DUP2 SLOAD DUP2 MSTORE SWAP1 PUSH1 0x1 ADD SWAP1 PUSH1 0x20 ADD DUP1 DUP4 GT PUSH2 0x725 JUMPI DUP3 SWAP1 SUB PUSH1 0x1F AND DUP3 ADD SWAP2 JUMPDEST POP POP POP POP POP DUP2 MSTORE PUSH1 0x20 ADD PUSH1 0x3 DUP3 ADD DUP1 SLOAD PUSH2 0x75B SWAP1 PUSH2 0x39B6 JUMP JUMPDEST DUP1 PUSH1 0x1F ADD PUSH1 0x20 DUP1 SWAP2 DIV MUL PUSH1 0x20 ADD PUSH1 0x40 MLOAD SWAP1 DUP2 ADD PUSH1 0x40 MSTORE DUP1 SWAP3 SWAP2 SWAP1 DUP2 DUP2 MSTORE PUSH1 0x20 ADD DUP3 DUP1 SLOAD PUSH2 0x787 SWAP1 PUSH2 0x39B6 JUMP JUMPDEST DUP1 ISZERO PUSH2 0x7D4 JUMPI DUP1 PUSH1 0x1F LT PUSH2 0x7A9 JUMPI PUSH2 0x100 DUP1 DUP4 SLOAD DIV MUL DUP4 MSTORE SWAP2 PUSH1 0x20 ADD SWAP2 PUSH2 0x7D4 JUMP JUMPDEST DUP3 ADD SWAP2 SWAP1 PUSH1 0x0 MSTORE PUSH1 0x20 PUSH1 0x0 KECCAK256 SWAP1 JUMPDEST DUP2 SLOAD DUP2 MSTORE SWAP1 PUSH1 0x1 ADD SWAP1 PUSH1 0x20 ADD DUP1 DUP4 GT PUSH2 0x7B7 JUMPI DUP3 SWAP1 SUB PUSH1 0x1F AND DUP3 ADD SWAP2 JUMPDEST POP POP POP POP POP DUP2 MSTORE PUSH1 0x20 ADD PUSH1 0x4 DUP3 ADD DUP1 SLOAD PUSH2 0x7ED SWAP1 PUSH2 0x39B6 JUMP JUMPDEST DUP1 PUSH1 0x1F ADD PUSH1 0x20 DUP1 SWAP2 DIV MUL PUSH1 0x20 ADD PUSH1 0x40 MLOAD SWAP1 DUP2 ADD PUSH1 0x40 MSTORE DUP1 SWAP3 SWAP2 SWAP1 DUP2 DUP2 MSTORE PUSH1 0x20 ADD DUP3 DUP1 SLOAD PUSH2 0x819 SWAP1 PUSH2 0x39B6 JUMP JUMPDEST DUP1 ISZERO PUSH2 0x866 JUMPI DUP1 PUSH1 0x1F LT PUSH2 0x83B JUMPI PUSH2 0x100 DUP1 DUP4 SLOAD DIV MUL DUP4 MSTORE SWAP2 PUSH1 0x20 ADD SWAP2 PUSH2 0x866 JUMP JUMPDEST DUP3 ADD SWAP2 SWAP1 PUSH1 0x0 MSTORE PUSH1 0x20 PUSH1 0x0 KECCAK256 SWAP1 JUMPDEST DUP2 SLOAD DUP2 MSTORE SWAP1 PUSH1 0x1 ADD SWAP1 PUSH1 0x20 ADD DUP1 DUP4 GT PUSH2 0x849 JUMPI DUP3 SWAP1 SUB PUSH1 0x1F AND DUP3 ADD SWAP2 JUMPDEST POP POP POP POP POP DUP2 MSTORE PUSH1 0x20 ADD PUSH1 0x5 DUP3 ADD DUP1 SLOAD PUSH2 0x87F SWAP1 PUSH2 0x39B6 JUMP JUMPDEST DUP1 PUSH1 0x1F ADD PUSH1 0x20 DUP1 SWAP2 DIV MUL PUSH1 0x20 ADD PUSH1 0x40 MLOAD SWAP1 DUP2 ADD PUSH1 0x40 MSTORE DUP1 SWAP3 SWAP2 SWAP1 DUP2 DUP2 MSTORE PUSH1 0x20 ADD DUP3 DUP1 SLOAD PUSH2 0x8AB SWAP1 PUSH2 0x39B6 JUMP JUMPDEST DUP1 ISZERO PUSH2 0x8F8 JUMPI DUP1 PUSH1 0x1F LT PUSH2 0x8CD JUMPI PUSH2 0x100 DUP1 DUP4 SLOAD DIV MUL DUP4 MSTORE SWAP2 PUSH1 0x20 ADD SWAP2 PUSH2 0x8F8 JUMP JUMPDEST DUP3 ADD SWAP2 SWAP1 PUSH1 0x0 MSTORE PUSH1 0x20 PUSH1 0x0 KECCAK256 SWAP1 JUMPDEST DUP2 SLOAD DUP2 MSTORE SWAP1 PUSH1 0x1 ADD SWAP1 PUSH1 0x20 ADD DUP1 DUP4 GT PUSH2 0x8DB JUMPI DUP3 SWAP1 SUB PUSH1 0x1F AND DUP3 ADD SWAP2 JUMPDEST POP POP POP POP POP DUP2 MSTORE PUSH1 0x20 ADD PUSH1 0x6 DUP3 ADD DUP1 SLOAD PUSH2 0x911 SWAP1 PUSH2 0x39B6 JUMP JUMPDEST DUP1 PUSH1 0x1F ADD PUSH1 0x20 DUP1 SWAP2 DIV MUL PUSH1 0x20 ADD PUSH1 0x40 MLOAD SWAP1 DUP2 ADD PUSH1 0x40 MSTORE DUP1 SWAP3 SWAP2 SWAP1 DUP2 DUP2 MSTORE PUSH1 0x20 ADD DUP3 DUP1 SLOAD PUSH2 0x93D SWAP1 PUSH2 0x39B6 JUMP JUMPDEST DUP1 ISZERO PUSH2 0x98A JUMPI DUP1 PUSH1 0x1F LT PUSH2 0x95F JUMPI PUSH2 0x100 DUP1 DUP4 SLOAD DIV MUL DUP4 MSTORE SWAP2 PUSH1 0x20 ADD SWAP2 PUSH2 0x98A JUMP JUMPDEST DUP3 ADD SWAP2 SWAP1 PUSH1 0x0 MSTORE PUSH1 0x20 PUSH1 0x0 KECCAK256 SWAP1 JUMPDEST DUP2 SLOAD DUP2 MSTORE SWAP1 PUSH1 0x1 ADD SWAP1 PUSH1 0x20 ADD DUP1 DUP4 GT PUSH2 0x96D JUMPI DUP3 SWAP1 SUB PUSH1 0x1F AND DUP3 ADD SWAP2 JUMPDEST POP POP POP POP POP DUP2 MSTORE PUSH1 0x20 ADD PUSH1 0x7 DUP3 ADD PUSH1 0x0 SWAP1 SLOAD SWAP1 PUSH2 0x100 EXP SWAP1 DIV PUSH1 0xFF AND ISZERO ISZERO ISZERO ISZERO DUP2 MSTORE PUSH1 0x20 ADD PUSH1 0x8 DUP3 ADD DUP1 SLOAD PUSH2 0x9BE SWAP1 PUSH2 0x39B6 JUMP JUMPDEST DUP1 PUSH1 0x1F ADD PUSH1 0x20 DUP1 SWAP2 DIV MUL PUSH1 0x20 ADD PUSH1 0x40 MLOAD SWAP1 DUP2 ADD PUSH1 0x40 MSTORE DUP1 SWAP3 SWAP2 SWAP1 DUP2 DUP2 MSTORE PUSH1 0x20 ADD DUP3 DUP1 SLOAD PUSH2 0x9EA SWAP1 PUSH2 0x39B6 JUMP JUMPDEST DUP1 ISZERO PUSH2 0xA37 JUMPI DUP1 PUSH1 0x1F LT PUSH2 0xA0C JUMPI PUSH2 0x100 DUP1 DUP4 SLOAD DIV MUL DUP4 MSTORE SWAP2 PUSH1 0x20 ADD SWAP2 PUSH2 0xA37 JUMP JUMPDEST DUP3 ADD SWAP2 SWAP1 PUSH1 0x0 MSTORE PUSH1 0x20 PUSH1 0x0 KECCAK256 SWAP1 JUMPDEST DUP2 SLOAD DUP2 MSTORE SWAP1 PUSH1 0x1 ADD SWAP1 PUSH1 0x20 ADD DUP1 DUP4 GT PUSH2 0xA1A JUMPI DUP3 SWAP1 SUB PUSH1 0x1F AND DUP3 ADD SWAP2 JUMPDEST POP POP POP POP POP DUP2 MSTORE PUSH1 0x20 ADD PUSH1 0x9 DUP3 ADD DUP1 SLOAD PUSH2 0xA50 SWAP1 PUSH2 0x39B6 JUMP JUMPDEST DUP1 PUSH1 0x1F ADD PUSH1 0x20 DUP1 SWAP2 DIV MUL PUSH1 0x20 ADD PUSH1 0x40 MLOAD SWAP1 DUP2 ADD PUSH1 0x40 MSTORE DUP1 SWAP3 SWAP2 SWAP1 DUP2 DUP2 MSTORE PUSH1 0x20 ADD DUP3 DUP1 SLOAD PUSH2 0xA7C SWAP1 PUSH2 0x39B6 JUMP JUMPDEST DUP1 ISZERO PUSH2 0xAC9 JUMPI DUP1 PUSH1 0x1F LT PUSH2 0xA9E JUMPI PUSH2 0x100 DUP1 DUP4 SLOAD DIV MUL DUP4 MSTORE SWAP2 PUSH1 0x20 ADD SWAP2 PUSH2 0xAC9 JUMP JUMPDEST DUP3 ADD SWAP2 SWAP1 PUSH1 0x0 MSTORE PUSH1 0x20 PUSH1 0x0 KECCAK256 SWAP1 JUMPDEST DUP2 SLOAD DUP2 MSTORE SWAP1 PUSH1 0x1 ADD SWAP1 PUSH1 0x20 ADD DUP1 DUP4 GT PUSH2 0xAAC JUMPI DUP3 SWAP1 SUB PUSH1 0x1F AND DUP3 ADD SWAP2 JUMPDEST POP POP POP POP POP DUP2 MSTORE POP POP DUP2 MSTORE PUSH1 0x20 ADD SWAP1 PUSH1 0x1 ADD SWAP1 PUSH2 0x5F9 JUMP JUMPDEST POP POP POP POP SWAP1 POP SWAP1 JUMP JUMPDEST PUSH2 0xAF2 PUSH2 0x265B JUMP JUMPDEST PUSH1 0x0 PUSH1 0x40 MLOAD DUP1 PUSH2 0x140 ADD PUSH1 0x40 MSTORE DUP1 PUSH1 0x2 DUP1 SLOAD SWAP1 POP DUP2 MSTORE PUSH1 0x20 ADD DUP9 DUP2 MSTORE PUSH1 0x20 ADD DUP8 DUP2 MSTORE PUSH1 0x20 ADD DUP7 DUP2 MSTORE PUSH1 0x20 ADD DUP6 DUP2 MSTORE PUSH1 0x20 ADD PUSH1 0x40 MLOAD DUP1 PUSH1 0x20 ADD PUSH1 0x40 MSTORE DUP1 PUSH1 0x0 DUP2 MSTORE POP DUP2 MSTORE PUSH1 0x20 ADD PUSH1 0x40 MLOAD DUP1 PUSH1 0x40 ADD PUSH1 0x40 MSTORE DUP1 PUSH1 0x1 DUP2 MSTORE PUSH1 0x20 ADD PUSH32 0x3100000000000000000000000000000000000000000000000000000000000000 DUP2 MSTORE POP DUP2 MSTORE PUSH1 0x20 ADD PUSH1 0x1 ISZERO ISZERO DUP2 MSTORE PUSH1 0x20 ADD DUP5 DUP2 MSTORE PUSH1 0x20 ADD PUSH1 0x40 MLOAD DUP1 PUSH1 0x20 ADD PUSH1 0x40 MSTORE DUP1 PUSH1 0x0 DUP2 MSTORE POP DUP2 MSTORE POP SWAP1 POP PUSH1 0x2 DUP2 SWAP1 DUP1 PUSH1 0x1 DUP2 SLOAD ADD DUP1 DUP3 SSTORE DUP1 SWAP2 POP POP PUSH1 0x1 SWAP1 SUB SWAP1 PUSH1 0x0 MSTORE PUSH1 0x20 PUSH1 0x0 KECCAK256 SWAP1 PUSH1 0xA MUL ADD PUSH1 0x0 SWAP1 SWAP2 SWAP1 SWAP2 SWAP1 SWAP2 POP PUSH1 0x0 DUP3 ADD MLOAD DUP2 PUSH1 0x0 ADD SSTORE PUSH1 0x20 DUP3 ADD MLOAD DUP2 PUSH1 0x1 ADD SWAP1 DUP1 MLOAD SWAP1 PUSH1 0x20 ADD SWAP1 PUSH2 0xBE9 SWAP3 SWAP2 SWAP1 PUSH2 0x26B0 JUMP JUMPDEST POP PUSH1 0x40 DUP3 ADD MLOAD DUP2 PUSH1 0x2 ADD SWAP1 DUP1 MLOAD SWAP1 PUSH1 0x20 ADD SWAP1 PUSH2 0xC06 SWAP3 SWAP2 SWAP1 PUSH2 0x26B0 JUMP JUMPDEST POP PUSH1 0x60 DUP3 ADD MLOAD DUP2 PUSH1 0x3 ADD SWAP1 DUP1 MLOAD SWAP1 PUSH1 0x20 ADD SWAP1 PUSH2 0xC23 SWAP3 SWAP2 SWAP1 PUSH2 0x26B0 JUMP JUMPDEST POP PUSH1 0x80 DUP3 ADD MLOAD DUP2 PUSH1 0x4 ADD SWAP1 DUP1 MLOAD SWAP1 PUSH1 0x20 ADD SWAP1 PUSH2 0xC40 SWAP3 SWAP2 SWAP1 PUSH2 0x26B0 JUMP JUMPDEST POP PUSH1 0xA0 DUP3 ADD MLOAD DUP2 PUSH1 0x5 ADD SWAP1 DUP1 MLOAD SWAP1 PUSH1 0x20 ADD SWAP1 PUSH2 0xC5D SWAP3 SWAP2 SWAP1 PUSH2 0x26B0 JUMP JUMPDEST POP PUSH1 0xC0 DUP3 ADD MLOAD DUP2 PUSH1 0x6 ADD SWAP1 DUP1 MLOAD SWAP1 PUSH1 0x20 ADD SWAP1 PUSH2 0xC7A SWAP3 SWAP2 SWAP1 PUSH2 0x26B0 JUMP JUMPDEST POP PUSH1 0xE0 DUP3 ADD MLOAD DUP2 PUSH1 0x7 ADD PUSH1 0x0 PUSH2 0x100 EXP DUP2 SLOAD DUP2 PUSH1 0xFF MUL NOT AND SWAP1 DUP4 ISZERO ISZERO MUL OR SWAP1 SSTORE POP PUSH2 0x100 DUP3 ADD MLOAD DUP2 PUSH1 0x8 ADD SWAP1 DUP1 MLOAD SWAP1 PUSH1 0x20 ADD SWAP1 PUSH2 0xCB8 SWAP3 SWAP2 SWAP1 PUSH2 0x26B0 JUMP JUMPDEST POP PUSH2 0x120 DUP3 ADD MLOAD DUP2 PUSH1 0x9 ADD SWAP1 DUP1 MLOAD SWAP1 PUSH1 0x20 ADD SWAP1 PUSH2 0xCD6 SWAP3 SWAP2 SWAP1 PUSH2 0x26B0 JUMP JUMPDEST POP POP POP DUP1 SWAP2 POP POP SWAP6 SWAP5 POP POP POP POP POP JUMP JUMPDEST DUP2 PUSH1 0x7 DUP2 SWAP1 SSTORE POP PUSH1 0x0 PUSH1 0x1 DUP4 DUP2 SLOAD DUP2 LT PUSH2 0xD03 JUMPI PUSH2 0xD02 PUSH2 0x39E7 JUMP JUMPDEST JUMPDEST SWAP1 PUSH1 0x0 MSTORE PUSH1 0x20 PUSH1 0x0 KECCAK256 SWAP1 PUSH1 0x5 MUL ADD SWAP1 POP DUP2 DUP2 PUSH1 0x2 ADD SWAP1 DUP1 MLOAD SWAP1 PUSH1 0x20 ADD SWAP1 PUSH2 0xD2B SWAP3 SWAP2 SWAP1 PUSH2 0x26B0 JUMP JUMPDEST POP POP POP POP JUMP JUMPDEST PUSH1 0x7 SLOAD DUP2 JUMP JUMPDEST PUSH1 0x0 PUSH1 0x40 MLOAD DUP1 PUSH1 0xA0 ADD PUSH1 0x40 MSTORE DUP1 PUSH1 0x1 DUP1 SLOAD SWAP1 POP DUP2 MSTORE PUSH1 0x20 ADD DUP7 DUP2 MSTORE PUSH1 0x20 ADD DUP6 DUP2 MSTORE PUSH1 0x20 ADD DUP5 DUP2 MSTORE PUSH1 0x20 ADD DUP4 DUP2 MSTORE POP SWAP1 POP PUSH1 0x1 DUP2 SWAP1 DUP1 PUSH1 0x1 DUP2 SLOAD ADD DUP1 DUP3 SSTORE DUP1 SWAP2 POP POP PUSH1 0x1 SWAP1 SUB SWAP1 PUSH1 0x0 MSTORE PUSH1 0x20 PUSH1 0x0 KECCAK256 SWAP1 PUSH1 0x5 MUL ADD PUSH1 0x0 SWAP1 SWAP2 SWAP1 SWAP2 SWAP1 SWAP2 POP PUSH1 0x0 DUP3 ADD MLOAD DUP2 PUSH1 0x0 ADD SSTORE PUSH1 0x20 DUP3 ADD MLOAD DUP2 PUSH1 0x1 ADD SWAP1 DUP1 MLOAD SWAP1 PUSH1 0x20 ADD SWAP1 PUSH2 0xDB9 SWAP3 SWAP2 SWAP1 PUSH2 0x26B0 JUMP JUMPDEST POP PUSH1 0x40 DUP3 ADD MLOAD DUP2 PUSH1 0x2 ADD SWAP1 DUP1 MLOAD SWAP1 PUSH1 0x20 ADD SWAP1 PUSH2 0xDD6 SWAP3 SWAP2 SWAP1 PUSH2 0x26B0 JUMP JUMPDEST POP PUSH1 0x60 DUP3 ADD MLOAD DUP2 PUSH1 0x3 ADD SWAP1 DUP1 MLOAD SWAP1 PUSH1 0x20 ADD SWAP1 PUSH2 0xDF3 SWAP3 SWAP2 SWAP1 PUSH2 0x26B0 JUMP JUMPDEST POP PUSH1 0x80 DUP3 ADD MLOAD DUP2 PUSH1 0x4 ADD SWAP1 DUP1 MLOAD SWAP1 PUSH1 0x20 ADD SWAP1 PUSH2 0xE10 SWAP3 SWAP2 SWAP1 PUSH2 0x26B0 JUMP JUMPDEST POP POP POP POP POP POP POP POP JUMP JUMPDEST PUSH1 0x6 DUP1 SLOAD PUSH2 0xE27 SWAP1 PUSH2 0x39B6 JUMP JUMPDEST DUP1 PUSH1 0x1F ADD PUSH1 0x20 DUP1 SWAP2 DIV MUL PUSH1 0x20 ADD PUSH1 0x40 MLOAD SWAP1 DUP2 ADD PUSH1 0x40 MSTORE DUP1 SWAP3 SWAP2 SWAP1 DUP2 DUP2 MSTORE PUSH1 0x20 ADD DUP3 DUP1 SLOAD PUSH2 0xE53 SWAP1 PUSH2 0x39B6 JUMP JUMPDEST DUP1 ISZERO PUSH2 0xEA0 JUMPI DUP1 PUSH1 0x1F LT PUSH2 0xE75 JUMPI PUSH2 0x100 DUP1 DUP4 SLOAD DIV MUL DUP4 MSTORE SWAP2 PUSH1 0x20 ADD SWAP2 PUSH2 0xEA0 JUMP JUMPDEST DUP3 ADD SWAP2 SWAP1 PUSH1 0x0 MSTORE PUSH1 0x20 PUSH1 0x0 KECCAK256 SWAP1 JUMPDEST DUP2 SLOAD DUP2 MSTORE SWAP1 PUSH1 0x1 ADD SWAP1 PUSH1 0x20 ADD DUP1 DUP4 GT PUSH2 0xE83 JUMPI DUP3 SWAP1 SUB PUSH1 0x1F AND DUP3 ADD SWAP2 JUMPDEST POP POP POP POP POP DUP2 JUMP JUMPDEST PUSH1 0x0 DUP1 PUSH1 0x0 DUP4 PUSH1 0x40 MLOAD PUSH2 0xEBB SWAP2 SWAP1 PUSH2 0x3A52 JUMP JUMPDEST SWAP1 DUP2 MSTORE PUSH1 0x20 ADD PUSH1 0x40 MLOAD DUP1 SWAP2 SUB SWAP1 KECCAK256 PUSH1 0x0 ADD DUP1 SLOAD PUSH2 0xED7 SWAP1 PUSH2 0x39B6 JUMP JUMPDEST DUP1 PUSH1 0x1F ADD PUSH1 0x20 DUP1 SWAP2 DIV MUL PUSH1 0x20 ADD PUSH1 0x40 MLOAD SWAP1 DUP2 ADD PUSH1 0x40 MSTORE DUP1 SWAP3 SWAP2 SWAP1 DUP2 DUP2 MSTORE PUSH1 0x20 ADD DUP3 DUP1 SLOAD PUSH2 0xF03 SWAP1 PUSH2 0x39B6 JUMP JUMPDEST DUP1 ISZERO PUSH2 0xF50 JUMPI DUP1 PUSH1 0x1F LT PUSH2 0xF25 JUMPI PUSH2 0x100 DUP1 DUP4 SLOAD DIV MUL DUP4 MSTORE SWAP2 PUSH1 0x20 ADD SWAP2 PUSH2 0xF50 JUMP JUMPDEST DUP3 ADD SWAP2 SWAP1 PUSH1 0x0 MSTORE PUSH1 0x20 PUSH1 0x0 KECCAK256 SWAP1 JUMPDEST DUP2 SLOAD DUP2 MSTORE SWAP1 PUSH1 0x1 ADD SWAP1 PUSH1 0x20 ADD DUP1 DUP4 GT PUSH2 0xF33 JUMPI DUP3 SWAP1 SUB PUSH1 0x1F AND DUP3 ADD SWAP2 JUMPDEST POP POP POP POP POP SWAP1 POP PUSH1 0x0 DUP2 MLOAD SUB PUSH2 0xF6A JUMPI PUSH1 0x0 SWAP2 POP POP PUSH2 0xF70 JUMP JUMPDEST PUSH1 0x1 SWAP2 POP POP JUMPDEST SWAP2 SWAP1 POP JUMP JUMPDEST PUSH1 0x0 PUSH1 0x2 DUP3 DUP2 SLOAD DUP2 LT PUSH2 0xF8B JUMPI PUSH2 0xF8A PUSH2 0x39E7 JUMP JUMPDEST JUMPDEST SWAP1 PUSH1 0x0 MSTORE PUSH1 0x20 PUSH1 0x0 KECCAK256 SWAP1 PUSH1 0xA MUL ADD SWAP1 POP DUP3 DUP2 PUSH1 0x5 ADD SWAP1 DUP1 MLOAD SWAP1 PUSH1 0x20 ADD SWAP1 PUSH2 0xFB3 SWAP3 SWAP2 SWAP1 PUSH2 0x26B0 JUMP JUMPDEST POP POP POP POP JUMP JUMPDEST DUP1 PUSH1 0x6 SWAP1 DUP1 MLOAD SWAP1 PUSH1 0x20 ADD SWAP1 PUSH2 0xFCF SWAP3 SWAP2 SWAP1 PUSH2 0x26B0 JUMP JUMPDEST POP POP JUMP JUMPDEST PUSH1 0x0 DUP1 DUP3 PUSH1 0x40 MLOAD PUSH2 0xFE4 SWAP2 SWAP1 PUSH2 0x3A52 JUMP JUMPDEST SWAP1 DUP2 MSTORE PUSH1 0x20 ADD PUSH1 0x40 MLOAD DUP1 SWAP2 SUB SWAP1 KECCAK256 SWAP1 POP DUP3 DUP2 PUSH1 0x2 ADD SWAP1 DUP1 MLOAD SWAP1 PUSH1 0x20 ADD SWAP1 PUSH2 0x100C SWAP3 SWAP2 SWAP1 PUSH2 0x26B0 JUMP JUMPDEST POP POP POP POP JUMP JUMPDEST PUSH1 0x60 PUSH1 0x3 DUP1 SLOAD DUP1 PUSH1 0x20 MUL PUSH1 0x20 ADD PUSH1 0x40 MLOAD SWAP1 DUP2 ADD PUSH1 0x40 MSTORE DUP1 SWAP3 SWAP2 SWAP1 DUP2 DUP2 MSTORE PUSH1 0x20 ADD PUSH1 0x0 SWAP1 JUMPDEST DUP3 DUP3 LT ISZERO PUSH2 0x10E2 JUMPI DUP4 DUP3 SWAP1 PUSH1 0x0 MSTORE PUSH1 0x20 PUSH1 0x0 KECCAK256 ADD DUP1 SLOAD PUSH2 0x1055 SWAP1 PUSH2 0x39B6 JUMP JUMPDEST DUP1 PUSH1 0x1F ADD PUSH1 0x20 DUP1 SWAP2 DIV MUL PUSH1 0x20 ADD PUSH1 0x40 MLOAD SWAP1 DUP2 ADD PUSH1 0x40 MSTORE DUP1 SWAP3 SWAP2 SWAP1 DUP2 DUP2 MSTORE PUSH1 0x20 ADD DUP3 DUP1 SLOAD PUSH2 0x1081 SWAP1 PUSH2 0x39B6 JUMP JUMPDEST DUP1 ISZERO PUSH2 0x10CE JUMPI DUP1 PUSH1 0x1F LT PUSH2 0x10A3 JUMPI PUSH2 0x100 DUP1 DUP4 SLOAD DIV MUL DUP4 MSTORE SWAP2 PUSH1 0x20 ADD SWAP2 PUSH2 0x10CE JUMP JUMPDEST DUP3 ADD SWAP2 SWAP1 PUSH1 0x0 MSTORE PUSH1 0x20 PUSH1 0x0 KECCAK256 SWAP1 JUMPDEST DUP2 SLOAD DUP2 MSTORE SWAP1 PUSH1 0x1 ADD SWAP1 PUSH1 0x20 ADD DUP1 DUP4 GT PUSH2 0x10B1 JUMPI DUP3 SWAP1 SUB PUSH1 0x1F AND DUP3 ADD SWAP2 JUMPDEST POP POP POP POP POP DUP2 MSTORE PUSH1 0x20 ADD SWAP1 PUSH1 0x1 ADD SWAP1 PUSH2 0x1036 JUMP JUMPDEST POP POP POP POP SWAP1 POP SWAP1 JUMP JUMPDEST PUSH1 0x0 PUSH1 0x2 DUP3 DUP2 SLOAD DUP2 LT PUSH2 0x1101 JUMPI PUSH2 0x1100 PUSH2 0x39E7 JUMP JUMPDEST JUMPDEST SWAP1 PUSH1 0x0 MSTORE PUSH1 0x20 PUSH1 0x0 KECCAK256 SWAP1 PUSH1 0xA MUL ADD SWAP1 POP DUP3 DUP2 PUSH1 0x8 ADD SWAP1 DUP1 MLOAD SWAP1 PUSH1 0x20 ADD SWAP1 PUSH2 0x1129 SWAP3 SWAP2 SWAP1 PUSH2 0x26B0 JUMP JUMPDEST POP POP POP POP JUMP JUMPDEST PUSH1 0x4 PUSH1 0x0 SWAP1 SLOAD SWAP1 PUSH2 0x100 EXP SWAP1 DIV PUSH20 0xFFFFFFFFFFFFFFFFFFFFFFFFFFFFFFFFFFFFFFFF AND DUP2 JUMP JUMPDEST PUSH1 0x1 DUP2 DUP2 SLOAD DUP2 LT PUSH2 0x1165 JUMPI PUSH1 0x0 DUP1 REVERT JUMPDEST SWAP1 PUSH1 0x0 MSTORE PUSH1 0x20 PUSH1 0x0 KECCAK256 SWAP1 PUSH1 0x5 MUL ADD PUSH1 0x0 SWAP2 POP SWAP1 POP DUP1 PUSH1 0x0 ADD SLOAD SWAP1 DUP1 PUSH1 0x1 ADD DUP1 SLOAD PUSH2 0x118E SWAP1 PUSH2 0x39B6 JUMP JUMPDEST DUP1 PUSH1 0x1F ADD PUSH1 0x20 DUP1 SWAP2 DIV MUL PUSH1 0x20 ADD PUSH1 0x40 MLOAD SWAP1 DUP2 ADD PUSH1 0x40 MSTORE DUP1 SWAP3 SWAP2 SWAP1 DUP2 DUP2 MSTORE PUSH1 0x20 ADD DUP3 DUP1 SLOAD PUSH2 0x11BA SWAP1 PUSH2 0x39B6 JUMP JUMPDEST DUP1 ISZERO PUSH2 0x1207 JUMPI DUP1 PUSH1 0x1F LT PUSH2 0x11DC JUMPI PUSH2 0x100 DUP1 DUP4 SLOAD DIV MUL DUP4 MSTORE SWAP2 PUSH1 0x20 ADD SWAP2 PUSH2 0x1207 JUMP JUMPDEST DUP3 ADD SWAP2 SWAP1 PUSH1 0x0 MSTORE PUSH1 0x20 PUSH1 0x0 KECCAK256 SWAP1 JUMPDEST DUP2 SLOAD DUP2 MSTORE SWAP1 PUSH1 0x1 ADD SWAP1 PUSH1 0x20 ADD DUP1 DUP4 GT PUSH2 0x11EA JUMPI DUP3 SWAP1 SUB PUSH1 0x1F AND DUP3 ADD SWAP2 JUMPDEST POP POP POP POP POP SWAP1 DUP1 PUSH1 0x2 ADD DUP1 SLOAD PUSH2 0x121C SWAP1 PUSH2 0x39B6 JUMP JUMPDEST DUP1 PUSH1 0x1F ADD PUSH1 0x20 DUP1 SWAP2 DIV MUL PUSH1 0x20 ADD PUSH1 0x40 MLOAD SWAP1 DUP2 ADD PUSH1 0x40 MSTORE DUP1 SWAP3 SWAP2 SWAP1 DUP2 DUP2 MSTORE PUSH1 0x20 ADD DUP3 DUP1 SLOAD PUSH2 0x1248 SWAP1 PUSH2 0x39B6 JUMP JUMPDEST DUP1 ISZERO PUSH2 0x1295 JUMPI DUP1 PUSH1 0x1F LT PUSH2 0x126A JUMPI PUSH2 0x100 DUP1 DUP4 SLOAD DIV MUL DUP4 MSTORE SWAP2 PUSH1 0x20 ADD SWAP2 PUSH2 0x1295 JUMP JUMPDEST DUP3 ADD SWAP2 SWAP1 PUSH1 0x0 MSTORE PUSH1 0x20 PUSH1 0x0 KECCAK256 SWAP1 JUMPDEST DUP2 SLOAD DUP2 MSTORE SWAP1 PUSH1 0x1 ADD SWAP1 PUSH1 0x20 ADD DUP1 DUP4 GT PUSH2 0x1278 JUMPI DUP3 SWAP1 SUB PUSH1 0x1F AND DUP3 ADD SWAP2 JUMPDEST POP POP POP POP POP SWAP1 DUP1 PUSH1 0x3 ADD DUP1 SLOAD PUSH2 0x12AA SWAP1 PUSH2 0x39B6 JUMP JUMPDEST DUP1 PUSH1 0x1F ADD PUSH1 0x20 DUP1 SWAP2 DIV MUL PUSH1 0x20 ADD PUSH1 0x40 MLOAD SWAP1 DUP2 ADD PUSH1 0x40 MSTORE DUP1 SWAP3 SWAP2 SWAP1 DUP2 DUP2 MSTORE PUSH1 0x20 ADD DUP3 DUP1 SLOAD PUSH2 0x12D6 SWAP1 PUSH2 0x39B6 JUMP JUMPDEST DUP1 ISZERO PUSH2 0x1323 JUMPI DUP1 PUSH1 0x1F LT PUSH2 0x12F8 JUMPI PUSH2 0x100 DUP1 DUP4 SLOAD DIV MUL DUP4 MSTORE SWAP2 PUSH1 0x20 ADD SWAP2 PUSH2 0x1323 JUMP JUMPDEST DUP3 ADD SWAP2 SWAP1 PUSH1 0x0 MSTORE PUSH1 0x20 PUSH1 0x0 KECCAK256 SWAP1 JUMPDEST DUP2 SLOAD DUP2 MSTORE SWAP1 PUSH1 0x1 ADD SWAP1 PUSH1 0x20 ADD DUP1 DUP4 GT PUSH2 0x1306 JUMPI DUP3 SWAP1 SUB PUSH1 0x1F AND DUP3 ADD SWAP2 JUMPDEST POP POP POP POP POP SWAP1 DUP1 PUSH1 0x4 ADD DUP1 SLOAD PUSH2 0x1338 SWAP1 PUSH2 0x39B6 JUMP JUMPDEST DUP1 PUSH1 0x1F ADD PUSH1 0x20 DUP1 SWAP2 DIV MUL PUSH1 0x20 ADD PUSH1 0x40 MLOAD SWAP1 DUP2 ADD PUSH1 0x40 MSTORE DUP1 SWAP3 SWAP2 SWAP1 DUP2 DUP2 MSTORE PUSH1 0x20 ADD DUP3 DUP1 SLOAD PUSH2 0x1364 SWAP1 PUSH2 0x39B6 JUMP JUMPDEST DUP1 ISZERO PUSH2 0x13B1 JUMPI DUP1 PUSH1 0x1F LT PUSH2 0x1386 JUMPI PUSH2 0x100 DUP1 DUP4 SLOAD DIV MUL DUP4 MSTORE SWAP2 PUSH1 0x20 ADD SWAP2 PUSH2 0x13B1 JUMP JUMPDEST DUP3 ADD SWAP2 SWAP1 PUSH1 0x0 MSTORE PUSH1 0x20 PUSH1 0x0 KECCAK256 SWAP1 JUMPDEST DUP2 SLOAD DUP2 MSTORE SWAP1 PUSH1 0x1 ADD SWAP1 PUSH1 0x20 ADD DUP1 DUP4 GT PUSH2 0x1394 JUMPI DUP3 SWAP1 SUB PUSH1 0x1F AND DUP3 ADD SWAP2 JUMPDEST POP POP POP POP POP SWAP1 POP DUP6 JUMP JUMPDEST PUSH1 0x2 DUP2 DUP2 SLOAD DUP2 LT PUSH2 0x13CB JUMPI PUSH1 0x0 DUP1 REVERT JUMPDEST SWAP1 PUSH1 0x0 MSTORE PUSH1 0x20 PUSH1 0x0 KECCAK256 SWAP1 PUSH1 0xA MUL ADD PUSH1 0x0 SWAP2 POP SWAP1 POP DUP1 PUSH1 0x0 ADD SLOAD SWAP1 DUP1 PUSH1 0x1 ADD DUP1 SLOAD PUSH2 0x13F4 SWAP1 PUSH2 0x39B6 JUMP JUMPDEST DUP1 PUSH1 0x1F ADD PUSH1 0x20 DUP1 SWAP2 DIV MUL PUSH1 0x20 ADD PUSH1 0x40 MLOAD SWAP1 DUP2 ADD PUSH1 0x40 MSTORE DUP1 SWAP3 SWAP2 SWAP1 DUP2 DUP2 MSTORE PUSH1 0x20 ADD DUP3 DUP1 SLOAD PUSH2 0x1420 SWAP1 PUSH2 0x39B6 JUMP JUMPDEST DUP1 ISZERO PUSH2 0x146D JUMPI DUP1 PUSH1 0x1F LT PUSH2 0x1442 JUMPI PUSH2 0x100 DUP1 DUP4 SLOAD DIV MUL DUP4 MSTORE SWAP2 PUSH1 0x20 ADD SWAP2 PUSH2 0x146D JUMP JUMPDEST DUP3 ADD SWAP2 SWAP1 PUSH1 0x0 MSTORE PUSH1 0x20 PUSH1 0x0 KECCAK256 SWAP1 JUMPDEST DUP2 SLOAD DUP2 MSTORE SWAP1 PUSH1 0x1 ADD SWAP1 PUSH1 0x20 ADD DUP1 DUP4 GT PUSH2 0x1450 JUMPI DUP3 SWAP1 SUB PUSH1 0x1F AND DUP3 ADD SWAP2 JUMPDEST POP POP POP POP POP SWAP1 DUP1 PUSH1 0x2 ADD DUP1 SLOAD PUSH2 0x1482 SWAP1 PUSH2 0x39B6 JUMP JUMPDEST DUP1 PUSH1 0x1F ADD PUSH1 0x20 DUP1 SWAP2 DIV MUL PUSH1 0x20 ADD PUSH1 0x40 MLOAD SWAP1 DUP2 ADD PUSH1 0x40 MSTORE DUP1 SWAP3 SWAP2 SWAP1 DUP2 DUP2 MSTORE PUSH1 0x20 ADD DUP3 DUP1 SLOAD PUSH2 0x14AE SWAP1 PUSH2 0x39B6 JUMP JUMPDEST DUP1 ISZERO PUSH2 0x14FB JUMPI DUP1 PUSH1 0x1F LT PUSH2 0x14D0 JUMPI PUSH2 0x100 DUP1 DUP4 SLOAD DIV MUL DUP4 MSTORE SWAP2 PUSH1 0x20 ADD SWAP2 PUSH2 0x14FB JUMP JUMPDEST DUP3 ADD SWAP2 SWAP1 PUSH1 0x0 MSTORE PUSH1 0x20 PUSH1 0x0 KECCAK256 SWAP1 JUMPDEST DUP2 SLOAD DUP2 MSTORE SWAP1 PUSH1 0x1 ADD SWAP1 PUSH1 0x20 ADD DUP1 DUP4 GT PUSH2 0x14DE JUMPI DUP3 SWAP1 SUB PUSH1 0x1F AND DUP3 ADD SWAP2 JUMPDEST POP POP POP POP POP SWAP1 DUP1 PUSH1 0x3 ADD DUP1 SLOAD PUSH2 0x1510 SWAP1 PUSH2 0x39B6 JUMP JUMPDEST DUP1 PUSH1 0x1F ADD PUSH1 0x20 DUP1 SWAP2 DIV MUL PUSH1 0x20 ADD PUSH1 0x40 MLOAD SWAP1 DUP2 ADD PUSH1 0x40 MSTORE DUP1 SWAP3 SWAP2 SWAP1 DUP2 DUP2 MSTORE PUSH1 0x20 ADD DUP3 DUP1 SLOAD PUSH2 0x153C SWAP1 PUSH2 0x39B6 JUMP JUMPDEST DUP1 ISZERO PUSH2 0x1589 JUMPI DUP1 PUSH1 0x1F LT PUSH2 0x155E JUMPI PUSH2 0x100 DUP1 DUP4 SLOAD DIV MUL DUP4 MSTORE SWAP2 PUSH1 0x20 ADD SWAP2 PUSH2 0x1589 JUMP JUMPDEST DUP3 ADD SWAP2 SWAP1 PUSH1 0x0 MSTORE PUSH1 0x20 PUSH1 0x0 KECCAK256 SWAP1 JUMPDEST DUP2 SLOAD DUP2 MSTORE SWAP1 PUSH1 0x1 ADD SWAP1 PUSH1 0x20 ADD DUP1 DUP4 GT PUSH2 0x156C JUMPI DUP3 SWAP1 SUB PUSH1 0x1F AND DUP3 ADD SWAP2 JUMPDEST POP POP POP POP POP SWAP1 DUP1 PUSH1 0x4 ADD DUP1 SLOAD PUSH2 0x159E SWAP1 PUSH2 0x39B6 JUMP JUMPDEST DUP1 PUSH1 0x1F ADD PUSH1 0x20 DUP1 SWAP2 DIV MUL PUSH1 0x20 ADD PUSH1 0x40 MLOAD SWAP1 DUP2 ADD PUSH1 0x40 MSTORE DUP1 SWAP3 SWAP2 SWAP1 DUP2 DUP2 MSTORE PUSH1 0x20 ADD DUP3 DUP1 SLOAD PUSH2 0x15CA SWAP1 PUSH2 0x39B6 JUMP JUMPDEST DUP1 ISZERO PUSH2 0x1617 JUMPI DUP1 PUSH1 0x1F LT PUSH2 0x15EC JUMPI PUSH2 0x100 DUP1 DUP4 SLOAD DIV MUL DUP4 MSTORE SWAP2 PUSH1 0x20 ADD SWAP2 PUSH2 0x1617 JUMP JUMPDEST DUP3 ADD SWAP2 SWAP1 PUSH1 0x0 MSTORE PUSH1 0x20 PUSH1 0x0 KECCAK256 SWAP1 JUMPDEST DUP2 SLOAD DUP2 MSTORE SWAP1 PUSH1 0x1 ADD SWAP1 PUSH1 0x20 ADD DUP1 DUP4 GT PUSH2 0x15FA JUMPI DUP3 SWAP1 SUB PUSH1 0x1F AND DUP3 ADD SWAP2 JUMPDEST POP POP POP POP POP SWAP1 DUP1 PUSH1 0x5 ADD DUP1 SLOAD PUSH2 0x162C SWAP1 PUSH2 0x39B6 JUMP JUMPDEST DUP1 PUSH1 0x1F ADD PUSH1 0x20 DUP1 SWAP2 DIV MUL PUSH1 0x20 ADD PUSH1 0x40 MLOAD SWAP1 DUP2 ADD PUSH1 0x40 MSTORE DUP1 SWAP3 SWAP2 SWAP1 DUP2 DUP2 MSTORE PUSH1 0x20 ADD DUP3 DUP1 SLOAD PUSH2 0x1658 SWAP1 PUSH2 0x39B6 JUMP JUMPDEST DUP1 ISZERO PUSH2 0x16A5 JUMPI DUP1 PUSH1 0x1F LT PUSH2 0x167A JUMPI PUSH2 0x100 DUP1 DUP4 SLOAD DIV MUL DUP4 MSTORE SWAP2 PUSH1 0x20 ADD SWAP2 PUSH2 0x16A5 JUMP JUMPDEST DUP3 ADD SWAP2 SWAP1 PUSH1 0x0 MSTORE PUSH1 0x20 PUSH1 0x0 KECCAK256 SWAP1 JUMPDEST DUP2 SLOAD DUP2 MSTORE SWAP1 PUSH1 0x1 ADD SWAP1 PUSH1 0x20 ADD DUP1 DUP4 GT PUSH2 0x1688 JUMPI DUP3 SWAP1 SUB PUSH1 0x1F AND DUP3 ADD SWAP2 JUMPDEST POP POP POP POP POP SWAP1 DUP1 PUSH1 0x6 ADD DUP1 SLOAD PUSH2 0x16BA SWAP1 PUSH2 0x39B6 JUMP JUMPDEST DUP1 PUSH1 0x1F ADD PUSH1 0x20 DUP1 SWAP2 DIV MUL PUSH1 0x20 ADD PUSH1 0x40 MLOAD SWAP1 DUP2 ADD PUSH1 0x40 MSTORE DUP1 SWAP3 SWAP2 SWAP1 DUP2 DUP2 MSTORE PUSH1 0x20 ADD DUP3 DUP1 SLOAD PUSH2 0x16E6 SWAP1 PUSH2 0x39B6 JUMP JUMPDEST DUP1 ISZERO PUSH2 0x1733 JUMPI DUP1 PUSH1 0x1F LT PUSH2 0x1708 JUMPI PUSH2 0x100 DUP1 DUP4 SLOAD DIV MUL DUP4 MSTORE SWAP2 PUSH1 0x20 ADD SWAP2 PUSH2 0x1733 JUMP JUMPDEST DUP3 ADD SWAP2 SWAP1 PUSH1 0x0 MSTORE PUSH1 0x20 PUSH1 0x0 KECCAK256 SWAP1 JUMPDEST DUP2 SLOAD DUP2 MSTORE SWAP1 PUSH1 0x1 ADD SWAP1 PUSH1 0x20 ADD DUP1 DUP4 GT PUSH2 0x1716 JUMPI DUP3 SWAP1 SUB PUSH1 0x1F AND DUP3 ADD SWAP2 JUMPDEST POP POP POP POP POP SWAP1 DUP1 PUSH1 0x7 ADD PUSH1 0x0 SWAP1 SLOAD SWAP1 PUSH2 0x100 EXP SWAP1 DIV PUSH1 0xFF AND SWAP1 DUP1 PUSH1 0x8 ADD DUP1 SLOAD PUSH2 0x175B SWAP1 PUSH2 0x39B6 JUMP JUMPDEST DUP1 PUSH1 0x1F ADD PUSH1 0x20 DUP1 SWAP2 DIV MUL PUSH1 0x20 ADD PUSH1 0x40 MLOAD SWAP1 DUP2 ADD PUSH1 0x40 MSTORE DUP1 SWAP3 SWAP2 SWAP1 DUP2 DUP2 MSTORE PUSH1 0x20 ADD DUP3 DUP1 SLOAD PUSH2 0x1787 SWAP1 PUSH2 0x39B6 JUMP JUMPDEST DUP1 ISZERO PUSH2 0x17D4 JUMPI DUP1 PUSH1 0x1F LT PUSH2 0x17A9 JUMPI PUSH2 0x100 DUP1 DUP4 SLOAD DIV MUL DUP4 MSTORE SWAP2 PUSH1 0x20 ADD SWAP2 PUSH2 0x17D4 JUMP JUMPDEST DUP3 ADD SWAP2 SWAP1 PUSH1 0x0 MSTORE PUSH1 0x20 PUSH1 0x0 KECCAK256 SWAP1 JUMPDEST DUP2 SLOAD DUP2 MSTORE SWAP1 PUSH1 0x1 ADD SWAP1 PUSH1 0x20 ADD DUP1 DUP4 GT PUSH2 0x17B7 JUMPI DUP3 SWAP1 SUB PUSH1 0x1F AND DUP3 ADD SWAP2 JUMPDEST POP POP POP POP POP SWAP1 DUP1 PUSH1 0x9 ADD DUP1 SLOAD PUSH2 0x17E9 SWAP1 PUSH2 0x39B6 JUMP JUMPDEST DUP1 PUSH1 0x1F ADD PUSH1 0x20 DUP1 SWAP2 DIV MUL PUSH1 0x20 ADD PUSH1 0x40 MLOAD SWAP1 DUP2 ADD PUSH1 0x40 MSTORE DUP1 SWAP3 SWAP2 SWAP1 DUP2 DUP2 MSTORE PUSH1 0x20 ADD DUP3 DUP1 SLOAD PUSH2 0x1815 SWAP1 PUSH2 0x39B6 JUMP JUMPDEST DUP1 ISZERO PUSH2 0x1862 JUMPI DUP1 PUSH1 0x1F LT PUSH2 0x1837 JUMPI PUSH2 0x100 DUP1 DUP4 SLOAD DIV MUL DUP4 MSTORE SWAP2 PUSH1 0x20 ADD SWAP2 PUSH2 0x1862 JUMP JUMPDEST DUP3 ADD SWAP2 SWAP1 PUSH1 0x0 MSTORE PUSH1 0x20 PUSH1 0x0 KECCAK256 SWAP1 JUMPDEST DUP2 SLOAD DUP2 MSTORE SWAP1 PUSH1 0x1 ADD SWAP1 PUSH1 0x20 ADD DUP1 DUP4 GT PUSH2 0x1845 JUMPI DUP3 SWAP1 SUB PUSH1 0x1F AND DUP3 ADD SWAP2 JUMPDEST POP POP POP POP POP SWAP1 POP DUP11 JUMP JUMPDEST PUSH1 0x0 PUSH1 0x2 DUP5 DUP2 SLOAD DUP2 LT PUSH2 0x1882 JUMPI PUSH2 0x1881 PUSH2 0x39E7 JUMP JUMPDEST JUMPDEST SWAP1 PUSH1 0x0 MSTORE PUSH1 0x20 PUSH1 0x0 KECCAK256 SWAP1 PUSH1 0xA MUL ADD SWAP1 POP DUP5 DUP2 PUSH1 0x3 ADD SWAP1 DUP1 MLOAD SWAP1 PUSH1 0x20 ADD SWAP1 PUSH2 0x18AA SWAP3 SWAP2 SWAP1 PUSH2 0x26B0 JUMP JUMPDEST POP DUP3 DUP2 PUSH1 0x8 ADD SWAP1 DUP1 MLOAD SWAP1 PUSH1 0x20 ADD SWAP1 PUSH2 0x18C3 SWAP3 SWAP2 SWAP1 PUSH2 0x26B0 JUMP JUMPDEST POP DUP2 DUP2 PUSH1 0x7 ADD PUSH1 0x0 PUSH2 0x100 EXP DUP2 SLOAD DUP2 PUSH1 0xFF MUL NOT AND SWAP1 DUP4 ISZERO ISZERO MUL OR SWAP1 SSTORE POP POP POP POP POP POP JUMP JUMPDEST PUSH1 0x0 DUP2 DUP1 MLOAD PUSH1 0x20 DUP2 ADD DUP3 ADD DUP1 MLOAD DUP5 DUP3 MSTORE PUSH1 0x20 DUP4 ADD PUSH1 0x20 DUP6 ADD KECCAK256 DUP2 DUP4 MSTORE DUP1 SWAP6 POP POP POP POP POP POP PUSH1 0x0 SWAP2 POP SWAP1 POP DUP1 PUSH1 0x0 ADD DUP1 SLOAD PUSH2 0x1920 SWAP1 PUSH2 0x39B6 JUMP JUMPDEST DUP1 PUSH1 0x1F ADD PUSH1 0x20 DUP1 SWAP2 DIV MUL PUSH1 0x20 ADD PUSH1 0x40 MLOAD SWAP1 DUP2 ADD PUSH1 0x40 MSTORE DUP1 SWAP3 SWAP2 SWAP1 DUP2 DUP2 MSTORE PUSH1 0x20 ADD DUP3 DUP1 SLOAD PUSH2 0x194C SWAP1 PUSH2 0x39B6 JUMP JUMPDEST DUP1 ISZERO PUSH2 0x1999 JUMPI DUP1 PUSH1 0x1F LT PUSH2 0x196E JUMPI PUSH2 0x100 DUP1 DUP4 SLOAD DIV MUL DUP4 MSTORE SWAP2 PUSH1 0x20 ADD SWAP2 PUSH2 0x1999 JUMP JUMPDEST DUP3 ADD SWAP2 SWAP1 PUSH1 0x0 MSTORE PUSH1 0x20 PUSH1 0x0 KECCAK256 SWAP1 JUMPDEST DUP2 SLOAD DUP2 MSTORE SWAP1 PUSH1 0x1 ADD SWAP1 PUSH1 0x20 ADD DUP1 DUP4 GT PUSH2 0x197C JUMPI DUP3 SWAP1 SUB PUSH1 0x1F AND DUP3 ADD SWAP2 JUMPDEST POP POP POP POP POP SWAP1 DUP1 PUSH1 0x1 ADD DUP1 SLOAD PUSH2 0x19AE SWAP1 PUSH2 0x39B6 JUMP JUMPDEST DUP1 PUSH1 0x1F ADD PUSH1 0x20 DUP1 SWAP2 DIV MUL PUSH1 0x20 ADD PUSH1 0x40 MLOAD SWAP1 DUP2 ADD PUSH1 0x40 MSTORE DUP1 SWAP3 SWAP2 SWAP1 DUP2 DUP2 MSTORE PUSH1 0x20 ADD DUP3 DUP1 SLOAD PUSH2 0x19DA SWAP1 PUSH2 0x39B6 JUMP JUMPDEST DUP1 ISZERO PUSH2 0x1A27 JUMPI DUP1 PUSH1 0x1F LT PUSH2 0x19FC JUMPI PUSH2 0x100 DUP1 DUP4 SLOAD DIV MUL DUP4 MSTORE SWAP2 PUSH1 0x20 ADD SWAP2 PUSH2 0x1A27 JUMP JUMPDEST DUP3 ADD SWAP2 SWAP1 PUSH1 0x0 MSTORE PUSH1 0x20 PUSH1 0x0 KECCAK256 SWAP1 JUMPDEST DUP2 SLOAD DUP2 MSTORE SWAP1 PUSH1 0x1 ADD SWAP1 PUSH1 0x20 ADD DUP1 DUP4 GT PUSH2 0x1A0A JUMPI DUP3 SWAP1 SUB PUSH1 0x1F AND DUP3 ADD SWAP2 JUMPDEST POP POP POP POP POP SWAP1 DUP1 PUSH1 0x2 ADD DUP1 SLOAD PUSH2 0x1A3C SWAP1 PUSH2 0x39B6 JUMP JUMPDEST DUP1 PUSH1 0x1F ADD PUSH1 0x20 DUP1 SWAP2 DIV MUL PUSH1 0x20 ADD PUSH1 0x40 MLOAD SWAP1 DUP2 ADD PUSH1 0x40 MSTORE DUP1 SWAP3 SWAP2 SWAP1 DUP2 DUP2 MSTORE PUSH1 0x20 ADD DUP3 DUP1 SLOAD PUSH2 0x1A68 SWAP1 PUSH2 0x39B6 JUMP JUMPDEST DUP1 ISZERO PUSH2 0x1AB5 JUMPI DUP1 PUSH1 0x1F LT PUSH2 0x1A8A JUMPI PUSH2 0x100 DUP1 DUP4 SLOAD DIV MUL DUP4 MSTORE SWAP2 PUSH1 0x20 ADD SWAP2 PUSH2 0x1AB5 JUMP JUMPDEST DUP3 ADD SWAP2 SWAP1 PUSH1 0x0 MSTORE PUSH1 0x20 PUSH1 0x0 KECCAK256 SWAP1 JUMPDEST DUP2 SLOAD DUP2 MSTORE SWAP1 PUSH1 0x1 ADD SWAP1 PUSH1 0x20 ADD DUP1 DUP4 GT PUSH2 0x1A98 JUMPI DUP3 SWAP1 SUB PUSH1 0x1F AND DUP3 ADD SWAP2 JUMPDEST POP POP POP POP POP SWAP1 DUP1 PUSH1 0x3 ADD DUP1 SLOAD PUSH2 0x1ACA SWAP1 PUSH2 0x39B6 JUMP JUMPDEST DUP1 PUSH1 0x1F ADD PUSH1 0x20 DUP1 SWAP2 DIV MUL PUSH1 0x20 ADD PUSH1 0x40 MLOAD SWAP1 DUP2 ADD PUSH1 0x40 MSTORE DUP1 SWAP3 SWAP2 SWAP1 DUP2 DUP2 MSTORE PUSH1 0x20 ADD DUP3 DUP1 SLOAD PUSH2 0x1AF6 SWAP1 PUSH2 0x39B6 JUMP JUMPDEST DUP1 ISZERO PUSH2 0x1B43 JUMPI DUP1 PUSH1 0x1F LT PUSH2 0x1B18 JUMPI PUSH2 0x100 DUP1 DUP4 SLOAD DIV MUL DUP4 MSTORE SWAP2 PUSH1 0x20 ADD SWAP2 PUSH2 0x1B43 JUMP JUMPDEST DUP3 ADD SWAP2 SWAP1 PUSH1 0x0 MSTORE PUSH1 0x20 PUSH1 0x0 KECCAK256 SWAP1 JUMPDEST DUP2 SLOAD DUP2 MSTORE SWAP1 PUSH1 0x1 ADD SWAP1 PUSH1 0x20 ADD DUP1 DUP4 GT PUSH2 0x1B26 JUMPI DUP3 SWAP1 SUB PUSH1 0x1F AND DUP3 ADD SWAP2 JUMPDEST POP POP POP POP POP SWAP1 DUP1 PUSH1 0x4 ADD DUP1 SLOAD PUSH2 0x1B58 SWAP1 PUSH2 0x39B6 JUMP JUMPDEST DUP1 PUSH1 0x1F ADD PUSH1 0x20 DUP1 SWAP2 DIV MUL PUSH1 0x20 ADD PUSH1 0x40 MLOAD SWAP1 DUP2 ADD PUSH1 0x40 MSTORE DUP1 SWAP3 SWAP2 SWAP1 DUP2 DUP2 MSTORE PUSH1 0x20 ADD DUP3 DUP1 SLOAD PUSH2 0x1B84 SWAP1 PUSH2 0x39B6 JUMP JUMPDEST DUP1 ISZERO PUSH2 0x1BD1 JUMPI DUP1 PUSH1 0x1F LT PUSH2 0x1BA6 JUMPI PUSH2 0x100 DUP1 DUP4 SLOAD DIV MUL DUP4 MSTORE SWAP2 PUSH1 0x20 ADD SWAP2 PUSH2 0x1BD1 JUMP JUMPDEST DUP3 ADD SWAP2 SWAP1 PUSH1 0x0 MSTORE PUSH1 0x20 PUSH1 0x0 KECCAK256 SWAP1 JUMPDEST DUP2 SLOAD DUP2 MSTORE SWAP1 PUSH1 0x1 ADD SWAP1 PUSH1 0x20 ADD DUP1 DUP4 GT PUSH2 0x1BB4 JUMPI DUP3 SWAP1 SUB PUSH1 0x1F AND DUP3 ADD SWAP2 JUMPDEST POP POP POP POP POP SWAP1 DUP1 PUSH1 0x5 ADD DUP1 SLOAD PUSH2 0x1BE6 SWAP1 PUSH2 0x39B6 JUMP JUMPDEST DUP1 PUSH1 0x1F ADD PUSH1 0x20 DUP1 SWAP2 DIV MUL PUSH1 0x20 ADD PUSH1 0x40 MLOAD SWAP1 DUP2 ADD PUSH1 0x40 MSTORE DUP1 SWAP3 SWAP2 SWAP1 DUP2 DUP2 MSTORE PUSH1 0x20 ADD DUP3 DUP1 SLOAD PUSH2 0x1C12 SWAP1 PUSH2 0x39B6 JUMP JUMPDEST DUP1 ISZERO PUSH2 0x1C5F JUMPI DUP1 PUSH1 0x1F LT PUSH2 0x1C34 JUMPI PUSH2 0x100 DUP1 DUP4 SLOAD DIV MUL DUP4 MSTORE SWAP2 PUSH1 0x20 ADD SWAP2 PUSH2 0x1C5F JUMP JUMPDEST DUP3 ADD SWAP2 SWAP1 PUSH1 0x0 MSTORE PUSH1 0x20 PUSH1 0x0 KECCAK256 SWAP1 JUMPDEST DUP2 SLOAD DUP2 MSTORE SWAP1 PUSH1 0x1 ADD SWAP1 PUSH1 0x20 ADD DUP1 DUP4 GT PUSH2 0x1C42 JUMPI DUP3 SWAP1 SUB PUSH1 0x1F AND DUP3 ADD SWAP2 JUMPDEST POP POP POP POP POP SWAP1 POP DUP7 JUMP JUMPDEST PUSH1 0x60 PUSH1 0x1 DUP1 SLOAD DUP1 PUSH1 0x20 MUL PUSH1 0x20 ADD PUSH1 0x40 MLOAD SWAP1 DUP2 ADD PUSH1 0x40 MSTORE DUP1 SWAP3 SWAP2 SWAP1 DUP2 DUP2 MSTORE PUSH1 0x20 ADD PUSH1 0x0 SWAP1 JUMPDEST DUP3 DUP3 LT ISZERO PUSH2 0x1F11 JUMPI DUP4 DUP3 SWAP1 PUSH1 0x0 MSTORE PUSH1 0x20 PUSH1 0x0 KECCAK256 SWAP1 PUSH1 0x5 MUL ADD PUSH1 0x40 MLOAD DUP1 PUSH1 0xA0 ADD PUSH1 0x40 MSTORE SWAP1 DUP2 PUSH1 0x0 DUP3 ADD SLOAD DUP2 MSTORE PUSH1 0x20 ADD PUSH1 0x1 DUP3 ADD DUP1 SLOAD PUSH2 0x1CCA SWAP1 PUSH2 0x39B6 JUMP JUMPDEST DUP1 PUSH1 0x1F ADD PUSH1 0x20 DUP1 SWAP2 DIV MUL PUSH1 0x20 ADD PUSH1 0x40 MLOAD SWAP1 DUP2 ADD PUSH1 0x40 MSTORE DUP1 SWAP3 SWAP2 SWAP1 DUP2 DUP2 MSTORE PUSH1 0x20 ADD DUP3 DUP1 SLOAD PUSH2 0x1CF6 SWAP1 PUSH2 0x39B6 JUMP JUMPDEST DUP1 ISZERO PUSH2 0x1D43 JUMPI DUP1 PUSH1 0x1F LT PUSH2 0x1D18 JUMPI PUSH2 0x100 DUP1 DUP4 SLOAD DIV MUL DUP4 MSTORE SWAP2 PUSH1 0x20 ADD SWAP2 PUSH2 0x1D43 JUMP JUMPDEST DUP3 ADD SWAP2 SWAP1 PUSH1 0x0 MSTORE PUSH1 0x20 PUSH1 0x0 KECCAK256 SWAP1 JUMPDEST DUP2 SLOAD DUP2 MSTORE SWAP1 PUSH1 0x1 ADD SWAP1 PUSH1 0x20 ADD DUP1 DUP4 GT PUSH2 0x1D26 JUMPI DUP3 SWAP1 SUB PUSH1 0x1F AND DUP3 ADD SWAP2 JUMPDEST POP POP POP POP POP DUP2 MSTORE PUSH1 0x20 ADD PUSH1 0x2 DUP3 ADD DUP1 SLOAD PUSH2 0x1D5C SWAP1 PUSH2 0x39B6 JUMP JUMPDEST DUP1 PUSH1 0x1F ADD PUSH1 0x20 DUP1 SWAP2 DIV MUL PUSH1 0x20 ADD PUSH1 0x40 MLOAD SWAP1 DUP2 ADD PUSH1 0x40 MSTORE DUP1 SWAP3 SWAP2 SWAP1 DUP2 DUP2 MSTORE PUSH1 0x20 ADD DUP3 DUP1 SLOAD PUSH2 0x1D88 SWAP1 PUSH2 0x39B6 JUMP JUMPDEST DUP1 ISZERO PUSH2 0x1DD5 JUMPI DUP1 PUSH1 0x1F LT PUSH2 0x1DAA JUMPI PUSH2 0x100 DUP1 DUP4 SLOAD DIV MUL DUP4 MSTORE SWAP2 PUSH1 0x20 ADD SWAP2 PUSH2 0x1DD5 JUMP JUMPDEST DUP3 ADD SWAP2 SWAP1 PUSH1 0x0 MSTORE PUSH1 0x20 PUSH1 0x0 KECCAK256 SWAP1 JUMPDEST DUP2 SLOAD DUP2 MSTORE SWAP1 PUSH1 0x1 ADD SWAP1 PUSH1 0x20 ADD DUP1 DUP4 GT PUSH2 0x1DB8 JUMPI DUP3 SWAP1 SUB PUSH1 0x1F AND DUP3 ADD SWAP2 JUMPDEST POP POP POP POP POP DUP2 MSTORE PUSH1 0x20 ADD PUSH1 0x3 DUP3 ADD DUP1 SLOAD PUSH2 0x1DEE SWAP1 PUSH2 0x39B6 JUMP JUMPDEST DUP1 PUSH1 0x1F ADD PUSH1 0x20 DUP1 SWAP2 DIV MUL PUSH1 0x20 ADD PUSH1 0x40 MLOAD SWAP1 DUP2 ADD PUSH1 0x40 MSTORE DUP1 SWAP3 SWAP2 SWAP1 DUP2 DUP2 MSTORE PUSH1 0x20 ADD DUP3 DUP1 SLOAD PUSH2 0x1E1A SWAP1 PUSH2 0x39B6 JUMP JUMPDEST DUP1 ISZERO PUSH2 0x1E67 JUMPI DUP1 PUSH1 0x1F LT PUSH2 0x1E3C JUMPI PUSH2 0x100 DUP1 DUP4 SLOAD DIV MUL DUP4 MSTORE SWAP2 PUSH1 0x20 ADD SWAP2 PUSH2 0x1E67 JUMP JUMPDEST DUP3 ADD SWAP2 SWAP1 PUSH1 0x0 MSTORE PUSH1 0x20 PUSH1 0x0 KECCAK256 SWAP1 JUMPDEST DUP2 SLOAD DUP2 MSTORE SWAP1 PUSH1 0x1 ADD SWAP1 PUSH1 0x20 ADD DUP1 DUP4 GT PUSH2 0x1E4A JUMPI DUP3 SWAP1 SUB PUSH1 0x1F AND DUP3 ADD SWAP2 JUMPDEST POP POP POP POP POP DUP2 MSTORE PUSH1 0x20 ADD PUSH1 0x4 DUP3 ADD DUP1 SLOAD PUSH2 0x1E80 SWAP1 PUSH2 0x39B6 JUMP JUMPDEST DUP1 PUSH1 0x1F ADD PUSH1 0x20 DUP1 SWAP2 DIV MUL PUSH1 0x20 ADD PUSH1 0x40 MLOAD SWAP1 DUP2 ADD PUSH1 0x40 MSTORE DUP1 SWAP3 SWAP2 SWAP1 DUP2 DUP2 MSTORE PUSH1 0x20 ADD DUP3 DUP1 SLOAD PUSH2 0x1EAC SWAP1 PUSH2 0x39B6 JUMP JUMPDEST DUP1 ISZERO PUSH2 0x1EF9 JUMPI DUP1 PUSH1 0x1F LT PUSH2 0x1ECE JUMPI PUSH2 0x100 DUP1 DUP4 SLOAD DIV MUL DUP4 MSTORE SWAP2 PUSH1 0x20 ADD SWAP2 PUSH2 0x1EF9 JUMP JUMPDEST DUP3 ADD SWAP2 SWAP1 PUSH1 0x0 MSTORE PUSH1 0x20 PUSH1 0x0 KECCAK256 SWAP1 JUMPDEST DUP2 SLOAD DUP2 MSTORE SWAP1 PUSH1 0x1 ADD SWAP1 PUSH1 0x20 ADD DUP1 DUP4 GT PUSH2 0x1EDC JUMPI DUP3 SWAP1 SUB PUSH1 0x1F AND DUP3 ADD SWAP2 JUMPDEST POP POP POP POP POP DUP2 MSTORE POP POP DUP2 MSTORE PUSH1 0x20 ADD SWAP1 PUSH1 0x1 ADD SWAP1 PUSH2 0x1C8D JUMP JUMPDEST POP POP POP POP SWAP1 POP SWAP1 JUMP JUMPDEST PUSH1 0x60 PUSH1 0x0 PUSH1 0x2 DUP4 DUP2 SLOAD DUP2 LT PUSH2 0x1F32 JUMPI PUSH2 0x1F31 PUSH2 0x39E7 JUMP JUMPDEST JUMPDEST SWAP1 PUSH1 0x0 MSTORE PUSH1 0x20 PUSH1 0x0 KECCAK256 SWAP1 PUSH1 0xA MUL ADD SWAP1 POP DUP1 PUSH1 0x3 ADD DUP1 SLOAD PUSH2 0x1F51 SWAP1 PUSH2 0x39B6 JUMP JUMPDEST DUP1 PUSH1 0x1F ADD PUSH1 0x20 DUP1 SWAP2 DIV MUL PUSH1 0x20 ADD PUSH1 0x40 MLOAD SWAP1 DUP2 ADD PUSH1 0x40 MSTORE DUP1 SWAP3 SWAP2 SWAP1 DUP2 DUP2 MSTORE PUSH1 0x20 ADD DUP3 DUP1 SLOAD PUSH2 0x1F7D SWAP1 PUSH2 0x39B6 JUMP JUMPDEST DUP1 ISZERO PUSH2 0x1FCA JUMPI DUP1 PUSH1 0x1F LT PUSH2 0x1F9F JUMPI PUSH2 0x100 DUP1 DUP4 SLOAD DIV MUL DUP4 MSTORE SWAP2 PUSH1 0x20 ADD SWAP2 PUSH2 0x1FCA JUMP JUMPDEST DUP3 ADD SWAP2 SWAP1 PUSH1 0x0 MSTORE PUSH1 0x20 PUSH1 0x0 KECCAK256 SWAP1 JUMPDEST DUP2 SLOAD DUP2 MSTORE SWAP1 PUSH1 0x1 ADD SWAP1 PUSH1 0x20 ADD DUP1 DUP4 GT PUSH2 0x1FAD JUMPI DUP3 SWAP1 SUB PUSH1 0x1F AND DUP3 ADD SWAP2 JUMPDEST POP POP POP POP POP SWAP2 POP POP SWAP2 SWAP1 POP JUMP JUMPDEST CALLER PUSH1 0x4 PUSH1 0x0 PUSH2 0x100 EXP DUP2 SLOAD DUP2 PUSH20 0xFFFFFFFFFFFFFFFFFFFFFFFFFFFFFFFFFFFFFFFF MUL NOT AND SWAP1 DUP4 PUSH20 0xFFFFFFFFFFFFFFFFFFFFFFFFFFFFFFFFFFFFFFFF AND MUL OR SWAP1 SSTORE POP PUSH1 0x40 MLOAD DUP1 PUSH1 0x40 ADD PUSH1 0x40 MSTORE DUP1 PUSH1 0xC DUP2 MSTORE PUSH1 0x20 ADD PUSH32 0x4A4952412057656220332E300000000000000000000000000000000000000000 DUP2 MSTORE POP PUSH1 0x5 SWAP1 DUP1 MLOAD SWAP1 PUSH1 0x20 ADD SWAP1 PUSH2 0x2063 SWAP3 SWAP2 SWAP1 PUSH2 0x26B0 JUMP JUMPDEST POP PUSH1 0x0 PUSH1 0x7 DUP2 SWAP1 SSTORE POP JUMP JUMPDEST PUSH1 0x0 PUSH1 0x2 DUP6 DUP2 SLOAD DUP2 LT PUSH2 0x2084 JUMPI PUSH2 0x2083 PUSH2 0x39E7 JUMP JUMPDEST JUMPDEST SWAP1 PUSH1 0x0 MSTORE PUSH1 0x20 PUSH1 0x0 KECCAK256 SWAP1 PUSH1 0xA MUL ADD SWAP1 POP DUP6 DUP2 PUSH1 0x6 ADD SWAP1 DUP1 MLOAD SWAP1 PUSH1 0x20 ADD SWAP1 PUSH2 0x20AC SWAP3 SWAP2 SWAP1 PUSH2 0x26B0 JUMP JUMPDEST POP DUP2 DUP2 PUSH1 0x8 ADD SWAP1 DUP1 MLOAD SWAP1 PUSH1 0x20 ADD SWAP1 PUSH2 0x20C5 SWAP3 SWAP2 SWAP1 PUSH2 0x26B0 JUMP JUMPDEST POP PUSH2 0x20D0 DUP5 DUP5 PUSH2 0xFD3 JUMP JUMPDEST POP POP POP POP POP POP JUMP JUMPDEST PUSH1 0x60 PUSH1 0x0 PUSH1 0x2 DUP4 DUP2 SLOAD DUP2 LT PUSH2 0x20F0 JUMPI PUSH2 0x20EF PUSH2 0x39E7 JUMP JUMPDEST JUMPDEST SWAP1 PUSH1 0x0 MSTORE PUSH1 0x20 PUSH1 0x0 KECCAK256 SWAP1 PUSH1 0xA MUL ADD SWAP1 POP PUSH1 0x0 DUP2 PUSH1 0x5 ADD PUSH1 0x40 MLOAD PUSH2 0x2113 SWAP2 SWAP1 PUSH2 0x3AFD JUMP JUMPDEST SWAP1 DUP2 MSTORE PUSH1 0x20 ADD PUSH1 0x40 MLOAD DUP1 SWAP2 SUB SWAP1 KECCAK256 PUSH1 0x3 ADD DUP1 SLOAD PUSH2 0x212F SWAP1 PUSH2 0x39B6 JUMP JUMPDEST DUP1 PUSH1 0x1F ADD PUSH1 0x20 DUP1 SWAP2 DIV MUL PUSH1 0x20 ADD PUSH1 0x40 MLOAD SWAP1 DUP2 ADD PUSH1 0x40 MSTORE DUP1 SWAP3 SWAP2 SWAP1 DUP2 DUP2 MSTORE PUSH1 0x20 ADD DUP3 DUP1 SLOAD PUSH2 0x215B SWAP1 PUSH2 0x39B6 JUMP JUMPDEST DUP1 ISZERO PUSH2 0x21A8 JUMPI DUP1 PUSH1 0x1F LT PUSH2 0x217D JUMPI PUSH2 0x100 DUP1 DUP4 SLOAD DIV MUL DUP4 MSTORE SWAP2 PUSH1 0x20 ADD SWAP2 PUSH2 0x21A8 JUMP JUMPDEST DUP3 ADD SWAP2 SWAP1 PUSH1 0x0 MSTORE PUSH1 0x20 PUSH1 0x0 KECCAK256 SWAP1 JUMPDEST DUP2 SLOAD DUP2 MSTORE SWAP1 PUSH1 0x1 ADD SWAP1 PUSH1 0x20 ADD DUP1 DUP4 GT PUSH2 0x218B JUMPI DUP3 SWAP1 SUB PUSH1 0x1F AND DUP3 ADD SWAP2 JUMPDEST POP POP POP POP POP SWAP2 POP POP SWAP2 SWAP1 POP JUMP JUMPDEST PUSH1 0x3 DUP2 DUP2 SLOAD DUP2 LT PUSH2 0x21C5 JUMPI PUSH1 0x0 DUP1 REVERT JUMPDEST SWAP1 PUSH1 0x0 MSTORE PUSH1 0x20 PUSH1 0x0 KECCAK256 ADD PUSH1 0x0 SWAP2 POP SWAP1 POP DUP1 SLOAD PUSH2 0x21E0 SWAP1 PUSH2 0x39B6 JUMP JUMPDEST DUP1 PUSH1 0x1F ADD PUSH1 0x20 DUP1 SWAP2 DIV MUL PUSH1 0x20 ADD PUSH1 0x40 MLOAD SWAP1 DUP2 ADD PUSH1 0x40 MSTORE DUP1 SWAP3 SWAP2 SWAP1 DUP2 DUP2 MSTORE PUSH1 0x20 ADD DUP3 DUP1 SLOAD PUSH2 0x220C SWAP1 PUSH2 0x39B6 JUMP JUMPDEST DUP1 ISZERO PUSH2 0x2259 JUMPI DUP1 PUSH1 0x1F LT PUSH2 0x222E JUMPI PUSH2 0x100 DUP1 DUP4 SLOAD DIV MUL DUP4 MSTORE SWAP2 PUSH1 0x20 ADD SWAP2 PUSH2 0x2259 JUMP JUMPDEST DUP3 ADD SWAP2 SWAP1 PUSH1 0x0 MSTORE PUSH1 0x20 PUSH1 0x0 KECCAK256 SWAP1 JUMPDEST DUP2 SLOAD DUP2 MSTORE SWAP1 PUSH1 0x1 ADD SWAP1 PUSH1 0x20 ADD DUP1 DUP4 GT PUSH2 0x223C JUMPI DUP3 SWAP1 SUB PUSH1 0x1F AND DUP3 ADD SWAP2 JUMPDEST POP POP POP POP POP DUP2 JUMP JUMPDEST PUSH1 0x0 PUSH1 0x40 MLOAD DUP1 PUSH1 0xC0 ADD PUSH1 0x40 MSTORE DUP1 DUP7 DUP2 MSTORE PUSH1 0x20 ADD DUP6 DUP2 MSTORE PUSH1 0x20 ADD DUP4 DUP2 MSTORE PUSH1 0x20 ADD DUP5 DUP2 MSTORE PUSH1 0x20 ADD PUSH1 0x40 MLOAD DUP1 PUSH1 0x20 ADD PUSH1 0x40 MSTORE DUP1 PUSH1 0x0 DUP2 MSTORE POP DUP2 MSTORE PUSH1 0x20 ADD DUP8 DUP2 MSTORE POP SWAP1 POP DUP1 PUSH1 0x0 DUP8 PUSH1 0x40 MLOAD PUSH2 0x22B2 SWAP2 SWAP1 PUSH2 0x3A52 JUMP JUMPDEST SWAP1 DUP2 MSTORE PUSH1 0x20 ADD PUSH1 0x40 MLOAD DUP1 SWAP2 SUB SWAP1 KECCAK256 PUSH1 0x0 DUP3 ADD MLOAD DUP2 PUSH1 0x0 ADD SWAP1 DUP1 MLOAD SWAP1 PUSH1 0x20 ADD SWAP1 PUSH2 0x22DC SWAP3 SWAP2 SWAP1 PUSH2 0x26B0 JUMP JUMPDEST POP PUSH1 0x20 DUP3 ADD MLOAD DUP2 PUSH1 0x1 ADD SWAP1 DUP1 MLOAD SWAP1 PUSH1 0x20 ADD SWAP1 PUSH2 0x22F9 SWAP3 SWAP2 SWAP1 PUSH2 0x26B0 JUMP JUMPDEST POP PUSH1 0x40 DUP3 ADD MLOAD DUP2 PUSH1 0x2 ADD SWAP1 DUP1 MLOAD SWAP1 PUSH1 0x20 ADD SWAP1 PUSH2 0x2316 SWAP3 SWAP2 SWAP1 PUSH2 0x26B0 JUMP JUMPDEST POP PUSH1 0x60 DUP3 ADD MLOAD DUP2 PUSH1 0x3 ADD SWAP1 DUP1 MLOAD SWAP1 PUSH1 0x20 ADD SWAP1 PUSH2 0x2333 SWAP3 SWAP2 SWAP1 PUSH2 0x26B0 JUMP JUMPDEST POP PUSH1 0x80 DUP3 ADD MLOAD DUP2 PUSH1 0x4 ADD SWAP1 DUP1 MLOAD SWAP1 PUSH1 0x20 ADD SWAP1 PUSH2 0x2350 SWAP3 SWAP2 SWAP1 PUSH2 0x26B0 JUMP JUMPDEST POP PUSH1 0xA0 DUP3 ADD MLOAD DUP2 PUSH1 0x5 ADD SWAP1 DUP1 MLOAD SWAP1 PUSH1 0x20 ADD SWAP1 PUSH2 0x236D SWAP3 SWAP2 SWAP1 PUSH2 0x26B0 JUMP JUMPDEST POP SWAP1 POP POP PUSH1 0x3 DUP7 SWAP1 DUP1 PUSH1 0x1 DUP2 SLOAD ADD DUP1 DUP3 SSTORE DUP1 SWAP2 POP POP PUSH1 0x1 SWAP1 SUB SWAP1 PUSH1 0x0 MSTORE PUSH1 0x20 PUSH1 0x0 KECCAK256 ADD PUSH1 0x0 SWAP1 SWAP2 SWAP1 SWAP2 SWAP1 SWAP2 POP SWAP1 DUP1 MLOAD SWAP1 PUSH1 0x20 ADD SWAP1 PUSH2 0x23AC SWAP3 SWAP2 SWAP1 PUSH2 0x26B0 JUMP JUMPDEST POP POP POP POP POP POP POP JUMP JUMPDEST PUSH1 0x0 PUSH1 0x2 DUP5 DUP2 SLOAD DUP2 LT PUSH2 0x23CB JUMPI PUSH2 0x23CA PUSH2 0x39E7 JUMP JUMPDEST JUMPDEST SWAP1 PUSH1 0x0 MSTORE PUSH1 0x20 PUSH1 0x0 KECCAK256 SWAP1 PUSH1 0xA MUL ADD SWAP1 POP DUP5 DUP2 PUSH1 0x5 ADD SWAP1 DUP1 MLOAD SWAP1 PUSH1 0x20 ADD SWAP1 PUSH2 0x23F3 SWAP3 SWAP2 SWAP1 PUSH2 0x26B0 JUMP JUMPDEST POP PUSH1 0x40 MLOAD DUP1 PUSH1 0x40 ADD PUSH1 0x40 MSTORE DUP1 PUSH1 0x1 DUP2 MSTORE PUSH1 0x20 ADD PUSH32 0x3100000000000000000000000000000000000000000000000000000000000000 DUP2 MSTORE POP DUP2 PUSH1 0x6 ADD SWAP1 DUP1 MLOAD SWAP1 PUSH1 0x20 ADD SWAP1 PUSH2 0x2441 SWAP3 SWAP2 SWAP1 PUSH2 0x26B0 JUMP JUMPDEST POP DUP2 DUP2 PUSH1 0x8 ADD SWAP1 DUP1 MLOAD SWAP1 PUSH1 0x20 ADD SWAP1 PUSH2 0x245A SWAP3 SWAP2 SWAP1 PUSH2 0x26B0 JUMP JUMPDEST POP PUSH2 0x2465 DUP4 DUP7 PUSH2 0xFD3 JUMP JUMPDEST POP POP POP POP POP JUMP JUMPDEST PUSH1 0x0 PUSH1 0x2 DUP4 DUP2 SLOAD DUP2 LT PUSH2 0x2482 JUMPI PUSH2 0x2481 PUSH2 0x39E7 JUMP JUMPDEST JUMPDEST SWAP1 PUSH1 0x0 MSTORE PUSH1 0x20 PUSH1 0x0 KECCAK256 SWAP1 PUSH1 0xA MUL ADD SWAP1 POP DUP4 DUP2 PUSH1 0x1 ADD SWAP1 DUP1 MLOAD SWAP1 PUSH1 0x20 ADD SWAP1 PUSH2 0x24AA SWAP3 SWAP2 SWAP1 PUSH2 0x26B0 JUMP JUMPDEST POP DUP2 DUP2 PUSH1 0x8 ADD SWAP1 DUP1 MLOAD SWAP1 PUSH1 0x20 ADD SWAP1 PUSH2 0x24C3 SWAP3 SWAP2 SWAP1 PUSH2 0x26B0 JUMP JUMPDEST POP POP POP POP POP JUMP JUMPDEST PUSH2 0x24D4 DUP5 DUP8 PUSH2 0xFD3 JUMP JUMPDEST PUSH2 0x24DE DUP4 DUP7 PUSH2 0xFD3 JUMP JUMPDEST PUSH2 0x24E8 DUP6 DUP4 PUSH2 0xF75 JUMP JUMPDEST PUSH1 0x0 PUSH1 0x2 DUP4 DUP2 SLOAD DUP2 LT PUSH2 0x24FE JUMPI PUSH2 0x24FD PUSH2 0x39E7 JUMP JUMPDEST JUMPDEST SWAP1 PUSH1 0x0 MSTORE PUSH1 0x20 PUSH1 0x0 KECCAK256 SWAP1 PUSH1 0xA MUL ADD SWAP1 POP DUP2 DUP2 PUSH1 0x8 ADD SWAP1 DUP1 MLOAD SWAP1 PUSH1 0x20 ADD SWAP1 PUSH2 0x2526 SWAP3 SWAP2 SWAP1 PUSH2 0x26B0 JUMP JUMPDEST POP POP POP POP POP POP POP POP JUMP JUMPDEST PUSH1 0x0 DUP1 DUP3 PUSH1 0x40 MLOAD PUSH2 0x2541 SWAP2 SWAP1 PUSH2 0x3A52 JUMP JUMPDEST SWAP1 DUP2 MSTORE PUSH1 0x20 ADD PUSH1 0x40 MLOAD DUP1 SWAP2 SUB SWAP1 KECCAK256 SWAP1 POP DUP3 DUP2 PUSH1 0x4 ADD SWAP1 DUP1 MLOAD SWAP1 PUSH1 0x20 ADD SWAP1 PUSH2 0x2569 SWAP3 SWAP2 SWAP1 PUSH2 0x26B0 JUMP JUMPDEST POP POP POP POP JUMP JUMPDEST PUSH1 0x0 PUSH1 0x2 DUP4 DUP2 SLOAD DUP2 LT PUSH2 0x2585 JUMPI PUSH2 0x2584 PUSH2 0x39E7 JUMP JUMPDEST JUMPDEST SWAP1 PUSH1 0x0 MSTORE PUSH1 0x20 PUSH1 0x0 KECCAK256 SWAP1 PUSH1 0xA MUL ADD SWAP1 POP DUP4 DUP2 PUSH1 0x9 ADD SWAP1 DUP1 MLOAD SWAP1 PUSH1 0x20 ADD SWAP1 PUSH2 0x25AD SWAP3 SWAP2 SWAP1 PUSH2 0x26B0 JUMP JUMPDEST POP DUP2 DUP2 PUSH1 0x8 ADD SWAP1 DUP1 MLOAD SWAP1 PUSH1 0x20 ADD SWAP1 PUSH2 0x25C6 SWAP3 SWAP2 SWAP1 PUSH2 0x26B0 JUMP JUMPDEST POP POP POP POP POP JUMP JUMPDEST PUSH1 0x5 DUP1 SLOAD PUSH2 0x25DA SWAP1 PUSH2 0x39B6 JUMP JUMPDEST DUP1 PUSH1 0x1F ADD PUSH1 0x20 DUP1 SWAP2 DIV MUL PUSH1 0x20 ADD PUSH1 0x40 MLOAD SWAP1 DUP2 ADD PUSH1 0x40 MSTORE DUP1 SWAP3 SWAP2 SWAP1 DUP2 DUP2 MSTORE PUSH1 0x20 ADD DUP3 DUP1 SLOAD PUSH2 0x2606 SWAP1 PUSH2 0x39B6 JUMP JUMPDEST DUP1 ISZERO PUSH2 0x2653 JUMPI DUP1 PUSH1 0x1F LT PUSH2 0x2628 JUMPI PUSH2 0x100 DUP1 DUP4 SLOAD DIV MUL DUP4 MSTORE SWAP2 PUSH1 0x20 ADD SWAP2 PUSH2 0x2653 JUMP JUMPDEST DUP3 ADD SWAP2 SWAP1 PUSH1 0x0 MSTORE PUSH1 0x20 PUSH1 0x0 KECCAK256 SWAP1 JUMPDEST DUP2 SLOAD DUP2 MSTORE SWAP1 PUSH1 0x1 ADD SWAP1 PUSH1 0x20 ADD DUP1 DUP4 GT PUSH2 0x2636 JUMPI DUP3 SWAP1 SUB PUSH1 0x1F AND DUP3 ADD SWAP2 JUMPDEST POP POP POP POP POP DUP2 JUMP JUMPDEST PUSH1 0x40 MLOAD DUP1 PUSH2 0x140 ADD PUSH1 0x40 MSTORE DUP1 PUSH1 0x0 DUP2 MSTORE PUSH1 0x20 ADD PUSH1 0x60 DUP2 MSTORE PUSH1 0x20 ADD PUSH1 0x60 DUP2 MSTORE PUSH1 0x20 ADD PUSH1 0x60 DUP2 MSTORE PUSH1 0x20 ADD PUSH1 0x60 DUP2 MSTORE PUSH1 0x20 ADD PUSH1 0x60 DUP2 MSTORE PUSH1 0x20 ADD PUSH1 0x60 DUP2 MSTORE PUSH1 0x20 ADD PUSH1 0x0 ISZERO ISZERO DUP2 MSTORE PUSH1 0x20 ADD PUSH1 0x60 DUP2 MSTORE PUSH1 0x20 ADD PUSH1 0x60 DUP2 MSTORE POP SWAP1 JUMP JUMPDEST DUP3 DUP1 SLOAD PUSH2 0x26BC SWAP1 PUSH2 0x39B6 JUMP JUMPDEST SWAP1 PUSH1 0x0 MSTORE PUSH1 0x20 PUSH1 0x0 KECCAK256 SWAP1 PUSH1 0x1F ADD PUSH1 0x20 SWAP1 DIV DUP2 ADD SWAP3 DUP3 PUSH2 0x26DE JUMPI PUSH1 0x0 DUP6 SSTORE PUSH2 0x2725 JUMP JUMPDEST DUP3 PUSH1 0x1F LT PUSH2 0x26F7 JUMPI DUP1 MLOAD PUSH1 0xFF NOT AND DUP4 DUP1 ADD OR DUP6 SSTORE PUSH2 0x2725 JUMP JUMPDEST DUP3 DUP1 ADD PUSH1 0x1 ADD DUP6 SSTORE DUP3 ISZERO PUSH2 0x2725 JUMPI SWAP2 DUP3 ADD JUMPDEST DUP3 DUP2 GT ISZERO PUSH2 0x2724 JUMPI DUP3 MLOAD DUP3 SSTORE SWAP2 PUSH1 0x20 ADD SWAP2 SWAP1 PUSH1 0x1 ADD SWAP1 PUSH2 0x2709 JUMP JUMPDEST JUMPDEST POP SWAP1 POP PUSH2 0x2732 SWAP2 SWAP1 PUSH2 0x2736 JUMP JUMPDEST POP SWAP1 JUMP JUMPDEST JUMPDEST DUP1 DUP3 GT ISZERO PUSH2 0x274F JUMPI PUSH1 0x0 DUP2 PUSH1 0x0 SWAP1 SSTORE POP PUSH1 0x1 ADD PUSH2 0x2737 JUMP JUMPDEST POP SWAP1 JUMP JUMPDEST PUSH1 0x0 DUP2 MLOAD SWAP1 POP SWAP2 SWAP1 POP JUMP JUMPDEST PUSH1 0x0 DUP3 DUP3 MSTORE PUSH1 0x20 DUP3 ADD SWAP1 POP SWAP3 SWAP2 POP POP JUMP JUMPDEST PUSH1 0x0 DUP2 SWAP1 POP PUSH1 0x20 DUP3 ADD SWAP1 POP SWAP2 SWAP1 POP JUMP JUMPDEST PUSH1 0x0 DUP2 SWAP1 POP SWAP2 SWAP1 POP JUMP JUMPDEST PUSH2 0x2792 DUP2 PUSH2 0x277F JUMP JUMPDEST DUP3 MSTORE POP POP JUMP JUMPDEST PUSH1 0x0 DUP2 MLOAD SWAP1 POP SWAP2 SWAP1 POP JUMP JUMPDEST PUSH1 0x0 DUP3 DUP3 MSTORE PUSH1 0x20 DUP3 ADD SWAP1 POP SWAP3 SWAP2 POP POP JUMP JUMPDEST PUSH1 0x0 JUMPDEST DUP4 DUP2 LT ISZERO PUSH2 0x27D2 JUMPI DUP1 DUP3 ADD MLOAD DUP2 DUP5 ADD MSTORE PUSH1 0x20 DUP2 ADD SWAP1 POP PUSH2 0x27B7 JUMP JUMPDEST DUP4 DUP2 GT ISZERO PUSH2 0x27E1 JUMPI PUSH1 0x0 DUP5 DUP5 ADD MSTORE JUMPDEST POP POP POP POP JUMP JUMPDEST PUSH1 0x0 PUSH1 0x1F NOT PUSH1 0x1F DUP4 ADD AND SWAP1 POP SWAP2 SWAP1 POP JUMP JUMPDEST PUSH1 0x0 PUSH2 0x2803 DUP3 PUSH2 0x2798 JUMP JUMPDEST PUSH2 0x280D DUP2 DUP6 PUSH2 0x27A3 JUMP JUMPDEST SWAP4 POP PUSH2 0x281D DUP2 DUP6 PUSH1 0x20 DUP7 ADD PUSH2 0x27B4 JUMP JUMPDEST PUSH2 0x2826 DUP2 PUSH2 0x27E7 JUMP JUMPDEST DUP5 ADD SWAP2 POP POP SWAP3 SWAP2 POP POP JUMP JUMPDEST PUSH1 0x0 DUP2 ISZERO ISZERO SWAP1 POP SWAP2 SWAP1 POP JUMP JUMPDEST PUSH2 0x2846 DUP2 PUSH2 0x2831 JUMP JUMPDEST DUP3 MSTORE POP POP JUMP JUMPDEST PUSH1 0x0 PUSH2 0x140 DUP4 ADD PUSH1 0x0 DUP4 ADD MLOAD PUSH2 0x2865 PUSH1 0x0 DUP7 ADD DUP3 PUSH2 0x2789 JUMP JUMPDEST POP PUSH1 0x20 DUP4 ADD MLOAD DUP5 DUP3 SUB PUSH1 0x20 DUP7 ADD MSTORE PUSH2 0x287D DUP3 DUP3 PUSH2 0x27F8 JUMP JUMPDEST SWAP2 POP POP PUSH1 0x40 DUP4 ADD MLOAD DUP5 DUP3 SUB PUSH1 0x40 DUP7 ADD MSTORE PUSH2 0x2897 DUP3 DUP3 PUSH2 0x27F8 JUMP JUMPDEST SWAP2 POP POP PUSH1 0x60 DUP4 ADD MLOAD DUP5 DUP3 SUB PUSH1 0x60 DUP7 ADD MSTORE PUSH2 0x28B1 DUP3 DUP3 PUSH2 0x27F8 JUMP JUMPDEST SWAP2 POP POP PUSH1 0x80 DUP4 ADD MLOAD DUP5 DUP3 SUB PUSH1 0x80 DUP7 ADD MSTORE PUSH2 0x28CB DUP3 DUP3 PUSH2 0x27F8 JUMP JUMPDEST SWAP2 POP POP PUSH1 0xA0 DUP4 ADD MLOAD DUP5 DUP3 SUB PUSH1 0xA0 DUP7 ADD MSTORE PUSH2 0x28E5 DUP3 DUP3 PUSH2 0x27F8 JUMP JUMPDEST SWAP2 POP POP PUSH1 0xC0 DUP4 ADD MLOAD DUP5 DUP3 SUB PUSH1 0xC0 DUP7 ADD MSTORE PUSH2 0x28FF DUP3 DUP3 PUSH2 0x27F8 JUMP JUMPDEST SWAP2 POP POP PUSH1 0xE0 DUP4 ADD MLOAD PUSH2 0x2914 PUSH1 0xE0 DUP7 ADD DUP3 PUSH2 0x283D JUMP JUMPDEST POP PUSH2 0x100 DUP4 ADD MLOAD DUP5 DUP3 SUB PUSH2 0x100 DUP7 ADD MSTORE PUSH2 0x292E DUP3 DUP3 PUSH2 0x27F8 JUMP JUMPDEST SWAP2 POP POP PUSH2 0x120 DUP4 ADD MLOAD DUP5 DUP3 SUB PUSH2 0x120 DUP7 ADD MSTORE PUSH2 0x294A DUP3 DUP3 PUSH2 0x27F8 JUMP JUMPDEST SWAP2 POP POP DUP1 SWAP2 POP POP SWAP3 SWAP2 POP POP JUMP JUMPDEST PUSH1 0x0 PUSH2 0x2963 DUP4 DUP4 PUSH2 0x284C JUMP JUMPDEST SWAP1 POP SWAP3 SWAP2 POP POP JUMP JUMPDEST PUSH1 0x0 PUSH1 0x20 DUP3 ADD SWAP1 POP SWAP2 SWAP1 POP JUMP JUMPDEST PUSH1 0x0 PUSH2 0x2983 DUP3 PUSH2 0x2753 JUMP JUMPDEST PUSH2 0x298D DUP2 DUP6 PUSH2 0x275E JUMP JUMPDEST SWAP4 POP DUP4 PUSH1 0x20 DUP3 MUL DUP6 ADD PUSH2 0x299F DUP6 PUSH2 0x276F JUMP JUMPDEST DUP1 PUSH1 0x0 JUMPDEST DUP6 DUP2 LT ISZERO PUSH2 0x29DB JUMPI DUP5 DUP5 SUB DUP10 MSTORE DUP2 MLOAD PUSH2 0x29BC DUP6 DUP3 PUSH2 0x2957 JUMP JUMPDEST SWAP5 POP PUSH2 0x29C7 DUP4 PUSH2 0x296B JUMP JUMPDEST SWAP3 POP PUSH1 0x20 DUP11 ADD SWAP10 POP POP PUSH1 0x1 DUP2 ADD SWAP1 POP PUSH2 0x29A3 JUMP JUMPDEST POP DUP3 SWAP8 POP DUP8 SWAP6 POP POP POP POP POP POP SWAP3 SWAP2 POP POP JUMP JUMPDEST PUSH1 0x0 PUSH1 0x20 DUP3 ADD SWAP1 POP DUP2 DUP2 SUB PUSH1 0x0 DUP4 ADD MSTORE PUSH2 0x2A07 DUP2 DUP5 PUSH2 0x2978 JUMP JUMPDEST SWAP1 POP SWAP3 SWAP2 POP POP JUMP JUMPDEST PUSH1 0x0 PUSH1 0x40 MLOAD SWAP1 POP SWAP1 JUMP JUMPDEST PUSH1 0x0 DUP1 REVERT JUMPDEST PUSH1 0x0 DUP1 REVERT JUMPDEST PUSH1 0x0 DUP1 REVERT JUMPDEST PUSH1 0x0 DUP1 REVERT JUMPDEST PUSH32 0x4E487B7100000000000000000000000000000000000000000000000000000000 PUSH1 0x0 MSTORE PUSH1 0x41 PUSH1 0x4 MSTORE PUSH1 0x24 PUSH1 0x0 REVERT JUMPDEST PUSH2 0x2A65 DUP3 PUSH2 0x27E7 JUMP JUMPDEST DUP2 ADD DUP2 DUP2 LT PUSH8 0xFFFFFFFFFFFFFFFF DUP3 GT OR ISZERO PUSH2 0x2A84 JUMPI PUSH2 0x2A83 PUSH2 0x2A2D JUMP JUMPDEST JUMPDEST DUP1 PUSH1 0x40 MSTORE POP POP POP JUMP JUMPDEST PUSH1 0x0 PUSH2 0x2A97 PUSH2 0x2A0F JUMP JUMPDEST SWAP1 POP PUSH2 0x2AA3 DUP3 DUP3 PUSH2 0x2A5C JUMP JUMPDEST SWAP2 SWAP1 POP JUMP JUMPDEST PUSH1 0x0 PUSH8 0xFFFFFFFFFFFFFFFF DUP3 GT ISZERO PUSH2 0x2AC3 JUMPI PUSH2 0x2AC2 PUSH2 0x2A2D JUMP JUMPDEST JUMPDEST PUSH2 0x2ACC DUP3 PUSH2 0x27E7 JUMP JUMPDEST SWAP1 POP PUSH1 0x20 DUP2 ADD SWAP1 POP SWAP2 SWAP1 POP JUMP JUMPDEST DUP3 DUP2 DUP4 CALLDATACOPY PUSH1 0x0 DUP4 DUP4 ADD MSTORE POP POP POP JUMP JUMPDEST PUSH1 0x0 PUSH2 0x2AFB PUSH2 0x2AF6 DUP5 PUSH2 0x2AA8 JUMP JUMPDEST PUSH2 0x2A8D JUMP JUMPDEST SWAP1 POP DUP3 DUP2 MSTORE PUSH1 0x20 DUP2 ADD DUP5 DUP5 DUP5 ADD GT ISZERO PUSH2 0x2B17 JUMPI PUSH2 0x2B16 PUSH2 0x2A28 JUMP JUMPDEST JUMPDEST PUSH2 0x2B22 DUP5 DUP3 DUP6 PUSH2 0x2AD9 JUMP JUMPDEST POP SWAP4 SWAP3 POP POP POP JUMP JUMPDEST PUSH1 0x0 DUP3 PUSH1 0x1F DUP4 ADD SLT PUSH2 0x2B3F JUMPI PUSH2 0x2B3E PUSH2 0x2A23 JUMP JUMPDEST JUMPDEST DUP2 CALLDATALOAD PUSH2 0x2B4F DUP5 DUP3 PUSH1 0x20 DUP7 ADD PUSH2 0x2AE8 JUMP JUMPDEST SWAP2 POP POP SWAP3 SWAP2 POP POP JUMP JUMPDEST PUSH1 0x0 DUP1 PUSH1 0x0 DUP1 PUSH1 0x0 PUSH1 0xA0 DUP7 DUP9 SUB SLT ISZERO PUSH2 0x2B74 JUMPI PUSH2 0x2B73 PUSH2 0x2A19 JUMP JUMPDEST JUMPDEST PUSH1 0x0 DUP7 ADD CALLDATALOAD PUSH8 0xFFFFFFFFFFFFFFFF DUP2 GT ISZERO PUSH2 0x2B92 JUMPI PUSH2 0x2B91 PUSH2 0x2A1E JUMP JUMPDEST JUMPDEST PUSH2 0x2B9E DUP9 DUP3 DUP10 ADD PUSH2 0x2B2A JUMP JUMPDEST SWAP6 POP POP PUSH1 0x20 DUP7 ADD CALLDATALOAD PUSH8 0xFFFFFFFFFFFFFFFF DUP2 GT ISZERO PUSH2 0x2BBF JUMPI PUSH2 0x2BBE PUSH2 0x2A1E JUMP JUMPDEST JUMPDEST PUSH2 0x2BCB DUP9 DUP3 DUP10 ADD PUSH2 0x2B2A JUMP JUMPDEST SWAP5 POP POP PUSH1 0x40 DUP7 ADD CALLDATALOAD PUSH8 0xFFFFFFFFFFFFFFFF DUP2 GT ISZERO PUSH2 0x2BEC JUMPI PUSH2 0x2BEB PUSH2 0x2A1E JUMP JUMPDEST JUMPDEST PUSH2 0x2BF8 DUP9 DUP3 DUP10 ADD PUSH2 0x2B2A JUMP JUMPDEST SWAP4 POP POP PUSH1 0x60 DUP7 ADD CALLDATALOAD PUSH8 0xFFFFFFFFFFFFFFFF DUP2 GT ISZERO PUSH2 0x2C19 JUMPI PUSH2 0x2C18 PUSH2 0x2A1E JUMP JUMPDEST JUMPDEST PUSH2 0x2C25 DUP9 DUP3 DUP10 ADD PUSH2 0x2B2A JUMP JUMPDEST SWAP3 POP POP PUSH1 0x80 DUP7 ADD CALLDATALOAD PUSH8 0xFFFFFFFFFFFFFFFF DUP2 GT ISZERO PUSH2 0x2C46 JUMPI PUSH2 0x2C45 PUSH2 0x2A1E JUMP JUMPDEST JUMPDEST PUSH2 0x2C52 DUP9 DUP3 DUP10 ADD PUSH2 0x2B2A JUMP JUMPDEST SWAP2 POP POP SWAP3 SWAP6 POP SWAP3 SWAP6 SWAP1 SWAP4 POP JUMP JUMPDEST PUSH1 0x0 PUSH2 0x140 DUP4 ADD PUSH1 0x0 DUP4 ADD MLOAD PUSH2 0x2C78 PUSH1 0x0 DUP7 ADD DUP3 PUSH2 0x2789 JUMP JUMPDEST POP PUSH1 0x20 DUP4 ADD MLOAD DUP5 DUP3 SUB PUSH1 0x20 DUP7 ADD MSTORE PUSH2 0x2C90 DUP3 DUP3 PUSH2 0x27F8 JUMP JUMPDEST SWAP2 POP POP PUSH1 0x40 DUP4 ADD MLOAD DUP5 DUP3 SUB PUSH1 0x40 DUP7 ADD MSTORE PUSH2 0x2CAA DUP3 DUP3 PUSH2 0x27F8 JUMP JUMPDEST SWAP2 POP POP PUSH1 0x60 DUP4 ADD MLOAD DUP5 DUP3 SUB PUSH1 0x60 DUP7 ADD MSTORE PUSH2 0x2CC4 DUP3 DUP3 PUSH2 0x27F8 JUMP JUMPDEST SWAP2 POP POP PUSH1 0x80 DUP4 ADD MLOAD DUP5 DUP3 SUB PUSH1 0x80 DUP7 ADD MSTORE PUSH2 0x2CDE DUP3 DUP3 PUSH2 0x27F8 JUMP JUMPDEST SWAP2 POP POP PUSH1 0xA0 DUP4 ADD MLOAD DUP5 DUP3 SUB PUSH1 0xA0 DUP7 ADD MSTORE PUSH2 0x2CF8 DUP3 DUP3 PUSH2 0x27F8 JUMP JUMPDEST SWAP2 POP POP PUSH1 0xC0 DUP4 ADD MLOAD DUP5 DUP3 SUB PUSH1 0xC0 DUP7 ADD MSTORE PUSH2 0x2D12 DUP3 DUP3 PUSH2 0x27F8 JUMP JUMPDEST SWAP2 POP POP PUSH1 0xE0 DUP4 ADD MLOAD PUSH2 0x2D27 PUSH1 0xE0 DUP7 ADD DUP3 PUSH2 0x283D JUMP JUMPDEST POP PUSH2 0x100 DUP4 ADD MLOAD DUP5 DUP3 SUB PUSH2 0x100 DUP7 ADD MSTORE PUSH2 0x2D41 DUP3 DUP3 PUSH2 0x27F8 JUMP JUMPDEST SWAP2 POP POP PUSH2 0x120 DUP4 ADD MLOAD DUP5 DUP3 SUB PUSH2 0x120 DUP7 ADD MSTORE PUSH2 0x2D5D DUP3 DUP3 PUSH2 0x27F8 JUMP JUMPDEST SWAP2 POP POP DUP1 SWAP2 POP POP SWAP3 SWAP2 POP POP JUMP JUMPDEST PUSH1 0x0 PUSH1 0x20 DUP3 ADD SWAP1 POP DUP2 DUP2 SUB PUSH1 0x0 DUP4 ADD MSTORE PUSH2 0x2D84 DUP2 DUP5 PUSH2 0x2C5F JUMP JUMPDEST SWAP1 POP SWAP3 SWAP2 POP POP JUMP JUMPDEST PUSH2 0x2D95 DUP2 PUSH2 0x277F JUMP JUMPDEST DUP2 EQ PUSH2 0x2DA0 JUMPI PUSH1 0x0 DUP1 REVERT JUMPDEST POP JUMP JUMPDEST PUSH1 0x0 DUP2 CALLDATALOAD SWAP1 POP PUSH2 0x2DB2 DUP2 PUSH2 0x2D8C JUMP JUMPDEST SWAP3 SWAP2 POP POP JUMP JUMPDEST PUSH1 0x0 DUP1 PUSH1 0x40 DUP4 DUP6 SUB SLT ISZERO PUSH2 0x2DCF JUMPI PUSH2 0x2DCE PUSH2 0x2A19 JUMP JUMPDEST JUMPDEST PUSH1 0x0 PUSH2 0x2DDD DUP6 DUP3 DUP7 ADD PUSH2 0x2DA3 JUMP JUMPDEST SWAP3 POP POP PUSH1 0x20 DUP4 ADD CALLDATALOAD PUSH8 0xFFFFFFFFFFFFFFFF DUP2 GT ISZERO PUSH2 0x2DFE JUMPI PUSH2 0x2DFD PUSH2 0x2A1E JUMP JUMPDEST JUMPDEST PUSH2 0x2E0A DUP6 DUP3 DUP7 ADD PUSH2 0x2B2A JUMP JUMPDEST SWAP2 POP POP SWAP3 POP SWAP3 SWAP1 POP JUMP JUMPDEST PUSH2 0x2E1D DUP2 PUSH2 0x277F JUMP JUMPDEST DUP3 MSTORE POP POP JUMP JUMPDEST PUSH1 0x0 PUSH1 0x20 DUP3 ADD SWAP1 POP PUSH2 0x2E38 PUSH1 0x0 DUP4 ADD DUP5 PUSH2 0x2E14 JUMP JUMPDEST SWAP3 SWAP2 POP POP JUMP JUMPDEST PUSH1 0x0 DUP1 PUSH1 0x0 DUP1 PUSH1 0x80 DUP6 DUP8 SUB SLT ISZERO PUSH2 0x2E58 JUMPI PUSH2 0x2E57 PUSH2 0x2A19 JUMP JUMPDEST JUMPDEST PUSH1 0x0 DUP6 ADD CALLDATALOAD PUSH8 0xFFFFFFFFFFFFFFFF DUP2 GT ISZERO PUSH2 0x2E76 JUMPI PUSH2 0x2E75 PUSH2 0x2A1E JUMP JUMPDEST JUMPDEST PUSH2 0x2E82 DUP8 DUP3 DUP9 ADD PUSH2 0x2B2A JUMP JUMPDEST SWAP5 POP POP PUSH1 0x20 DUP6 ADD CALLDATALOAD PUSH8 0xFFFFFFFFFFFFFFFF DUP2 GT ISZERO PUSH2 0x2EA3 JUMPI PUSH2 0x2EA2 PUSH2 0x2A1E JUMP JUMPDEST JUMPDEST PUSH2 0x2EAF DUP8 DUP3 DUP9 ADD PUSH2 0x2B2A JUMP JUMPDEST SWAP4 POP POP PUSH1 0x40 DUP6 ADD CALLDATALOAD PUSH8 0xFFFFFFFFFFFFFFFF DUP2 GT ISZERO PUSH2 0x2ED0 JUMPI PUSH2 0x2ECF PUSH2 0x2A1E JUMP JUMPDEST JUMPDEST PUSH2 0x2EDC DUP8 DUP3 DUP9 ADD PUSH2 0x2B2A JUMP JUMPDEST SWAP3 POP POP PUSH1 0x60 DUP6 ADD CALLDATALOAD PUSH8 0xFFFFFFFFFFFFFFFF DUP2 GT ISZERO PUSH2 0x2EFD JUMPI PUSH2 0x2EFC PUSH2 0x2A1E JUMP JUMPDEST JUMPDEST PUSH2 0x2F09 DUP8 DUP3 DUP9 ADD PUSH2 0x2B2A JUMP JUMPDEST SWAP2 POP POP SWAP3 SWAP6 SWAP2 SWAP5 POP SWAP3 POP JUMP JUMPDEST PUSH1 0x0 DUP3 DUP3 MSTORE PUSH1 0x20 DUP3 ADD SWAP1 POP SWAP3 SWAP2 POP POP JUMP JUMPDEST PUSH1 0x0 PUSH2 0x2F31 DUP3 PUSH2 0x2798 JUMP JUMPDEST PUSH2 0x2F3B DUP2 DUP6 PUSH2 0x2F15 JUMP JUMPDEST SWAP4 POP PUSH2 0x2F4B DUP2 DUP6 PUSH1 0x20 DUP7 ADD PUSH2 0x27B4 JUMP JUMPDEST PUSH2 0x2F54 DUP2 PUSH2 0x27E7 JUMP JUMPDEST DUP5 ADD SWAP2 POP POP SWAP3 SWAP2 POP POP JUMP JUMPDEST PUSH1 0x0 PUSH1 0x20 DUP3 ADD SWAP1 POP DUP2 DUP2 SUB PUSH1 0x0 DUP4 ADD MSTORE PUSH2 0x2F79 DUP2 DUP5 PUSH2 0x2F26 JUMP JUMPDEST SWAP1 POP SWAP3 SWAP2 POP POP JUMP JUMPDEST PUSH1 0x0 PUSH1 0x20 DUP3 DUP5 SUB SLT ISZERO PUSH2 0x2F97 JUMPI PUSH2 0x2F96 PUSH2 0x2A19 JUMP JUMPDEST JUMPDEST PUSH1 0x0 DUP3 ADD CALLDATALOAD PUSH8 0xFFFFFFFFFFFFFFFF DUP2 GT ISZERO PUSH2 0x2FB5 JUMPI PUSH2 0x2FB4 PUSH2 0x2A1E JUMP JUMPDEST JUMPDEST PUSH2 0x2FC1 DUP5 DUP3 DUP6 ADD PUSH2 0x2B2A JUMP JUMPDEST SWAP2 POP POP SWAP3 SWAP2 POP POP JUMP JUMPDEST PUSH2 0x2FD3 DUP2 PUSH2 0x2831 JUMP JUMPDEST DUP3 MSTORE POP POP JUMP JUMPDEST PUSH1 0x0 PUSH1 0x20 DUP3 ADD SWAP1 POP PUSH2 0x2FEE PUSH1 0x0 DUP4 ADD DUP5 PUSH2 0x2FCA JUMP JUMPDEST SWAP3 SWAP2 POP POP JUMP JUMPDEST PUSH1 0x0 DUP1 PUSH1 0x40 DUP4 DUP6 SUB SLT ISZERO PUSH2 0x300B JUMPI PUSH2 0x300A PUSH2 0x2A19 JUMP JUMPDEST JUMPDEST PUSH1 0x0 DUP4 ADD CALLDATALOAD PUSH8 0xFFFFFFFFFFFFFFFF DUP2 GT ISZERO PUSH2 0x3029 JUMPI PUSH2 0x3028 PUSH2 0x2A1E JUMP JUMPDEST JUMPDEST PUSH2 0x3035 DUP6 DUP3 DUP7 ADD PUSH2 0x2B2A JUMP JUMPDEST SWAP3 POP POP PUSH1 0x20 PUSH2 0x3046 DUP6 DUP3 DUP7 ADD PUSH2 0x2DA3 JUMP JUMPDEST SWAP2 POP POP SWAP3 POP SWAP3 SWAP1 POP JUMP JUMPDEST PUSH1 0x0 DUP1 PUSH1 0x40 DUP4 DUP6 SUB SLT ISZERO PUSH2 0x3067 JUMPI PUSH2 0x3066 PUSH2 0x2A19 JUMP JUMPDEST JUMPDEST PUSH1 0x0 DUP4 ADD CALLDATALOAD PUSH8 0xFFFFFFFFFFFFFFFF DUP2 GT ISZERO PUSH2 0x3085 JUMPI PUSH2 0x3084 PUSH2 0x2A1E JUMP JUMPDEST JUMPDEST PUSH2 0x3091 DUP6 DUP3 DUP7 ADD PUSH2 0x2B2A JUMP JUMPDEST SWAP3 POP POP PUSH1 0x20 DUP4 ADD CALLDATALOAD PUSH8 0xFFFFFFFFFFFFFFFF DUP2 GT ISZERO PUSH2 0x30B2 JUMPI PUSH2 0x30B1 PUSH2 0x2A1E JUMP JUMPDEST JUMPDEST PUSH2 0x30BE DUP6 DUP3 DUP7 ADD PUSH2 0x2B2A JUMP JUMPDEST SWAP2 POP POP SWAP3 POP SWAP3 SWAP1 POP JUMP JUMPDEST PUSH1 0x0 DUP2 MLOAD SWAP1 POP SWAP2 SWAP1 POP JUMP JUMPDEST PUSH1 0x0 DUP3 DUP3 MSTORE PUSH1 0x20 DUP3 ADD SWAP1 POP SWAP3 SWAP2 POP POP JUMP JUMPDEST PUSH1 0x0 DUP2 SWAP1 POP PUSH1 0x20 DUP3 ADD SWAP1 POP SWAP2 SWAP1 POP JUMP JUMPDEST PUSH1 0x0 PUSH2 0x3100 DUP4 DUP4 PUSH2 0x27F8 JUMP JUMPDEST SWAP1 POP SWAP3 SWAP2 POP POP JUMP JUMPDEST PUSH1 0x0 PUSH1 0x20 DUP3 ADD SWAP1 POP SWAP2 SWAP1 POP JUMP JUMPDEST PUSH1 0x0 PUSH2 0x3120 DUP3 PUSH2 0x30C8 JUMP JUMPDEST PUSH2 0x312A DUP2 DUP6 PUSH2 0x30D3 JUMP JUMPDEST SWAP4 POP DUP4 PUSH1 0x20 DUP3 MUL DUP6 ADD PUSH2 0x313C DUP6 PUSH2 0x30E4 JUMP JUMPDEST DUP1 PUSH1 0x0 JUMPDEST DUP6 DUP2 LT ISZERO PUSH2 0x3178 JUMPI DUP5 DUP5 SUB DUP10 MSTORE DUP2 MLOAD PUSH2 0x3159 DUP6 DUP3 PUSH2 0x30F4 JUMP JUMPDEST SWAP5 POP PUSH2 0x3164 DUP4 PUSH2 0x3108 JUMP JUMPDEST SWAP3 POP PUSH1 0x20 DUP11 ADD SWAP10 POP POP PUSH1 0x1 DUP2 ADD SWAP1 POP PUSH2 0x3140 JUMP JUMPDEST POP DUP3 SWAP8 POP DUP8 SWAP6 POP POP POP POP POP POP SWAP3 SWAP2 POP POP JUMP JUMPDEST PUSH1 0x0 PUSH1 0x20 DUP3 ADD SWAP1 POP DUP2 DUP2 SUB PUSH1 0x0 DUP4 ADD MSTORE PUSH2 0x31A4 DUP2 DUP5 PUSH2 0x3115 JUMP JUMPDEST SWAP1 POP SWAP3 SWAP2 POP POP JUMP JUMPDEST PUSH1 0x0 PUSH20 0xFFFFFFFFFFFFFFFFFFFFFFFFFFFFFFFFFFFFFFFF DUP3 AND SWAP1 POP SWAP2 SWAP1 POP JUMP JUMPDEST PUSH1 0x0 PUSH2 0x31D7 DUP3 PUSH2 0x31AC JUMP JUMPDEST SWAP1 POP SWAP2 SWAP1 POP JUMP JUMPDEST PUSH2 0x31E7 DUP2 PUSH2 0x31CC JUMP JUMPDEST DUP3 MSTORE POP POP JUMP JUMPDEST PUSH1 0x0 PUSH1 0x20 DUP3 ADD SWAP1 POP PUSH2 0x3202 PUSH1 0x0 DUP4 ADD DUP5 PUSH2 0x31DE JUMP JUMPDEST SWAP3 SWAP2 POP POP JUMP JUMPDEST PUSH1 0x0 PUSH1 0x20 DUP3 DUP5 SUB SLT ISZERO PUSH2 0x321E JUMPI PUSH2 0x321D PUSH2 0x2A19 JUMP JUMPDEST JUMPDEST PUSH1 0x0 PUSH2 0x322C DUP5 DUP3 DUP6 ADD PUSH2 0x2DA3 JUMP JUMPDEST SWAP2 POP POP SWAP3 SWAP2 POP POP JUMP JUMPDEST PUSH1 0x0 PUSH1 0xA0 DUP3 ADD SWAP1 POP PUSH2 0x324A PUSH1 0x0 DUP4 ADD DUP9 PUSH2 0x2E14 JUMP JUMPDEST DUP2 DUP2 SUB PUSH1 0x20 DUP4 ADD MSTORE PUSH2 0x325C DUP2 DUP8 PUSH2 0x2F26 JUMP JUMPDEST SWAP1 POP DUP2 DUP2 SUB PUSH1 0x40 DUP4 ADD MSTORE PUSH2 0x3270 DUP2 DUP7 PUSH2 0x2F26 JUMP JUMPDEST SWAP1 POP DUP2 DUP2 SUB PUSH1 0x60 DUP4 ADD MSTORE PUSH2 0x3284 DUP2 DUP6 PUSH2 0x2F26 JUMP JUMPDEST SWAP1 POP DUP2 DUP2 SUB PUSH1 0x80 DUP4 ADD MSTORE PUSH2 0x3298 DUP2 DUP5 PUSH2 0x2F26 JUMP JUMPDEST SWAP1 POP SWAP7 SWAP6 POP POP POP POP POP POP JUMP JUMPDEST PUSH1 0x0 PUSH2 0x140 DUP3 ADD SWAP1 POP PUSH2 0x32BA PUSH1 0x0 DUP4 ADD DUP14 PUSH2 0x2E14 JUMP JUMPDEST DUP2 DUP2 SUB PUSH1 0x20 DUP4 ADD MSTORE PUSH2 0x32CC DUP2 DUP13 PUSH2 0x2F26 JUMP JUMPDEST SWAP1 POP DUP2 DUP2 SUB PUSH1 0x40 DUP4 ADD MSTORE PUSH2 0x32E0 DUP2 DUP12 PUSH2 0x2F26 JUMP JUMPDEST SWAP1 POP DUP2 DUP2 SUB PUSH1 0x60 DUP4 ADD MSTORE PUSH2 0x32F4 DUP2 DUP11 PUSH2 0x2F26 JUMP JUMPDEST SWAP1 POP DUP2 DUP2 SUB PUSH1 0x80 DUP4 ADD MSTORE PUSH2 0x3308 DUP2 DUP10 PUSH2 0x2F26 JUMP JUMPDEST SWAP1 POP DUP2 DUP2 SUB PUSH1 0xA0 DUP4 ADD MSTORE PUSH2 0x331C DUP2 DUP9 PUSH2 0x2F26 JUMP JUMPDEST SWAP1 POP DUP2 DUP2 SUB PUSH1 0xC0 DUP4 ADD MSTORE PUSH2 0x3330 DUP2 DUP8 PUSH2 0x2F26 JUMP JUMPDEST SWAP1 POP PUSH2 0x333F PUSH1 0xE0 DUP4 ADD DUP7 PUSH2 0x2FCA JUMP JUMPDEST DUP2 DUP2 SUB PUSH2 0x100 DUP4 ADD MSTORE PUSH2 0x3352 DUP2 DUP6 PUSH2 0x2F26 JUMP JUMPDEST SWAP1 POP DUP2 DUP2 SUB PUSH2 0x120 DUP4 ADD MSTORE PUSH2 0x3367 DUP2 DUP5 PUSH2 0x2F26 JUMP JUMPDEST SWAP1 POP SWAP12 SWAP11 POP POP POP POP POP POP POP POP POP POP POP JUMP JUMPDEST PUSH2 0x3381 DUP2 PUSH2 0x2831 JUMP JUMPDEST DUP2 EQ PUSH2 0x338C JUMPI PUSH1 0x0 DUP1 REVERT JUMPDEST POP JUMP JUMPDEST PUSH1 0x0 DUP2 CALLDATALOAD SWAP1 POP PUSH2 0x339E DUP2 PUSH2 0x3378 JUMP JUMPDEST SWAP3 SWAP2 POP POP JUMP JUMPDEST PUSH1 0x0 DUP1 PUSH1 0x0 DUP1 PUSH1 0x80 DUP6 DUP8 SUB SLT ISZERO PUSH2 0x33BE JUMPI PUSH2 0x33BD PUSH2 0x2A19 JUMP JUMPDEST JUMPDEST PUSH1 0x0 DUP6 ADD CALLDATALOAD PUSH8 0xFFFFFFFFFFFFFFFF DUP2 GT ISZERO PUSH2 0x33DC JUMPI PUSH2 0x33DB PUSH2 0x2A1E JUMP JUMPDEST JUMPDEST PUSH2 0x33E8 DUP8 DUP3 DUP9 ADD PUSH2 0x2B2A JUMP JUMPDEST SWAP5 POP POP PUSH1 0x20 PUSH2 0x33F9 DUP8 DUP3 DUP9 ADD PUSH2 0x2DA3 JUMP JUMPDEST SWAP4 POP POP PUSH1 0x40 DUP6 ADD CALLDATALOAD PUSH8 0xFFFFFFFFFFFFFFFF DUP2 GT ISZERO PUSH2 0x341A JUMPI PUSH2 0x3419 PUSH2 0x2A1E JUMP JUMPDEST JUMPDEST PUSH2 0x3426 DUP8 DUP3 DUP9 ADD PUSH2 0x2B2A JUMP JUMPDEST SWAP3 POP POP PUSH1 0x60 PUSH2 0x3437 DUP8 DUP3 DUP9 ADD PUSH2 0x338F JUMP JUMPDEST SWAP2 POP POP SWAP3 SWAP6 SWAP2 SWAP5 POP SWAP3 POP JUMP JUMPDEST PUSH1 0x0 PUSH1 0xC0 DUP3 ADD SWAP1 POP DUP2 DUP2 SUB PUSH1 0x0 DUP4 ADD MSTORE PUSH2 0x345D DUP2 DUP10 PUSH2 0x2F26 JUMP JUMPDEST SWAP1 POP DUP2 DUP2 SUB PUSH1 0x20 DUP4 ADD MSTORE PUSH2 0x3471 DUP2 DUP9 PUSH2 0x2F26 JUMP JUMPDEST SWAP1 POP DUP2 DUP2 SUB PUSH1 0x40 DUP4 ADD MSTORE PUSH2 0x3485 DUP2 DUP8 PUSH2 0x2F26 JUMP JUMPDEST SWAP1 POP DUP2 DUP2 SUB PUSH1 0x60 DUP4 ADD MSTORE PUSH2 0x3499 DUP2 DUP7 PUSH2 0x2F26 JUMP JUMPDEST SWAP1 POP DUP2 DUP2 SUB PUSH1 0x80 DUP4 ADD MSTORE PUSH2 0x34AD DUP2 DUP6 PUSH2 0x2F26 JUMP JUMPDEST SWAP1 POP DUP2 DUP2 SUB PUSH1 0xA0 DUP4 ADD MSTORE PUSH2 0x34C1 DUP2 DUP5 PUSH2 0x2F26 JUMP JUMPDEST SWAP1 POP SWAP8 SWAP7 POP POP POP POP POP POP POP JUMP JUMPDEST PUSH1 0x0 DUP2 MLOAD SWAP1 POP SWAP2 SWAP1 POP JUMP JUMPDEST PUSH1 0x0 DUP3 DUP3 MSTORE PUSH1 0x20 DUP3 ADD SWAP1 POP SWAP3 SWAP2 POP POP JUMP JUMPDEST PUSH1 0x0 DUP2 SWAP1 POP PUSH1 0x20 DUP3 ADD SWAP1 POP SWAP2 SWAP1 POP JUMP JUMPDEST PUSH1 0x0 PUSH1 0xA0 DUP4 ADD PUSH1 0x0 DUP4 ADD MLOAD PUSH2 0x3512 PUSH1 0x0 DUP7 ADD DUP3 PUSH2 0x2789 JUMP JUMPDEST POP PUSH1 0x20 DUP4 ADD MLOAD DUP5 DUP3 SUB PUSH1 0x20 DUP7 ADD MSTORE PUSH2 0x352A DUP3 DUP3 PUSH2 0x27F8 JUMP JUMPDEST SWAP2 POP POP PUSH1 0x40 DUP4 ADD MLOAD DUP5 DUP3 SUB PUSH1 0x40 DUP7 ADD MSTORE PUSH2 0x3544 DUP3 DUP3 PUSH2 0x27F8 JUMP JUMPDEST SWAP2 POP POP PUSH1 0x60 DUP4 ADD MLOAD DUP5 DUP3 SUB PUSH1 0x60 DUP7 ADD MSTORE PUSH2 0x355E DUP3 DUP3 PUSH2 0x27F8 JUMP JUMPDEST SWAP2 POP POP PUSH1 0x80 DUP4 ADD MLOAD DUP5 DUP3 SUB PUSH1 0x80 DUP7 ADD MSTORE PUSH2 0x3578 DUP3 DUP3 PUSH2 0x27F8 JUMP JUMPDEST SWAP2 POP POP DUP1 SWAP2 POP POP SWAP3 SWAP2 POP POP JUMP JUMPDEST PUSH1 0x0 PUSH2 0x3591 DUP4 DUP4 PUSH2 0x34FA JUMP JUMPDEST SWAP1 POP SWAP3 SWAP2 POP POP JUMP JUMPDEST PUSH1 0x0 PUSH1 0x20 DUP3 ADD SWAP1 POP SWAP2 SWAP1 POP JUMP JUMPDEST PUSH1 0x0 PUSH2 0x35B1 DUP3 PUSH2 0x34CE JUMP JUMPDEST PUSH2 0x35BB DUP2 DUP6 PUSH2 0x34D9 JUMP JUMPDEST SWAP4 POP DUP4 PUSH1 0x20 DUP3 MUL DUP6 ADD PUSH2 0x35CD DUP6 PUSH2 0x34EA JUMP JUMPDEST DUP1 PUSH1 0x0 JUMPDEST DUP6 DUP2 LT ISZERO PUSH2 0x3609 JUMPI DUP5 DUP5 SUB DUP10 MSTORE DUP2 MLOAD PUSH2 0x35EA DUP6 DUP3 PUSH2 0x3585 JUMP JUMPDEST SWAP5 POP PUSH2 0x35F5 DUP4 PUSH2 0x3599 JUMP JUMPDEST SWAP3 POP PUSH1 0x20 DUP11 ADD SWAP10 POP POP PUSH1 0x1 DUP2 ADD SWAP1 POP PUSH2 0x35D1 JUMP JUMPDEST POP DUP3 SWAP8 POP DUP8 SWAP6 POP POP POP POP POP POP SWAP3 SWAP2 POP POP JUMP JUMPDEST PUSH1 0x0 PUSH1 0x20 DUP3 ADD SWAP1 POP DUP2 DUP2 SUB PUSH1 0x0 DUP4 ADD MSTORE PUSH2 0x3635 DUP2 DUP5 PUSH2 0x35A6 JUMP JUMPDEST SWAP1 POP SWAP3 SWAP2 POP POP JUMP JUMPDEST PUSH1 0x0 DUP1 PUSH1 0x0 DUP1 PUSH1 0x0 PUSH1 0xA0 DUP7 DUP9 SUB SLT ISZERO PUSH2 0x3659 JUMPI PUSH2 0x3658 PUSH2 0x2A19 JUMP JUMPDEST JUMPDEST PUSH1 0x0 DUP7 ADD CALLDATALOAD PUSH8 0xFFFFFFFFFFFFFFFF DUP2 GT ISZERO PUSH2 0x3677 JUMPI PUSH2 0x3676 PUSH2 0x2A1E JUMP JUMPDEST JUMPDEST PUSH2 0x3683 DUP9 DUP3 DUP10 ADD PUSH2 0x2B2A JUMP JUMPDEST SWAP6 POP POP PUSH1 0x20 PUSH2 0x3694 DUP9 DUP3 DUP10 ADD PUSH2 0x2DA3 JUMP JUMPDEST SWAP5 POP POP PUSH1 0x40 DUP7 ADD CALLDATALOAD PUSH8 0xFFFFFFFFFFFFFFFF DUP2 GT ISZERO PUSH2 0x36B5 JUMPI PUSH2 0x36B4 PUSH2 0x2A1E JUMP JUMPDEST JUMPDEST PUSH2 0x36C1 DUP9 DUP3 DUP10 ADD PUSH2 0x2B2A JUMP JUMPDEST SWAP4 POP POP PUSH1 0x60 DUP7 ADD CALLDATALOAD PUSH8 0xFFFFFFFFFFFFFFFF DUP2 GT ISZERO PUSH2 0x36E2 JUMPI PUSH2 0x36E1 PUSH2 0x2A1E JUMP JUMPDEST JUMPDEST PUSH2 0x36EE DUP9 DUP3 DUP10 ADD PUSH2 0x2B2A JUMP JUMPDEST SWAP3 POP POP PUSH1 0x80 DUP7 ADD CALLDATALOAD PUSH8 0xFFFFFFFFFFFFFFFF DUP2 GT ISZERO PUSH2 0x370F JUMPI PUSH2 0x370E PUSH2 0x2A1E JUMP JUMPDEST JUMPDEST PUSH2 0x371B DUP9 DUP3 DUP10 ADD PUSH2 0x2B2A JUMP JUMPDEST SWAP2 POP POP SWAP3 SWAP6 POP SWAP3 SWAP6 SWAP1 SWAP4 POP JUMP JUMPDEST PUSH1 0x0 DUP1 PUSH1 0x0 DUP1 PUSH1 0x80 DUP6 DUP8 SUB SLT ISZERO PUSH2 0x3742 JUMPI PUSH2 0x3741 PUSH2 0x2A19 JUMP JUMPDEST JUMPDEST PUSH1 0x0 DUP6 ADD CALLDATALOAD PUSH8 0xFFFFFFFFFFFFFFFF DUP2 GT ISZERO PUSH2 0x3760 JUMPI PUSH2 0x375F PUSH2 0x2A1E JUMP JUMPDEST JUMPDEST PUSH2 0x376C DUP8 DUP3 DUP9 ADD PUSH2 0x2B2A JUMP JUMPDEST SWAP5 POP POP PUSH1 0x20 PUSH2 0x377D DUP8 DUP3 DUP9 ADD PUSH2 0x2DA3 JUMP JUMPDEST SWAP4 POP POP PUSH1 0x40 DUP6 ADD CALLDATALOAD PUSH8 0xFFFFFFFFFFFFFFFF DUP2 GT ISZERO PUSH2 0x379E JUMPI PUSH2 0x379D PUSH2 0x2A1E JUMP JUMPDEST JUMPDEST PUSH2 0x37AA DUP8 DUP3 DUP9 ADD PUSH2 0x2B2A JUMP JUMPDEST SWAP3 POP POP PUSH1 0x60 DUP6 ADD CALLDATALOAD PUSH8 0xFFFFFFFFFFFFFFFF DUP2 GT ISZERO PUSH2 0x37CB JUMPI PUSH2 0x37CA PUSH2 0x2A1E JUMP JUMPDEST JUMPDEST PUSH2 0x37D7 DUP8 DUP3 DUP9 ADD PUSH2 0x2B2A JUMP JUMPDEST SWAP2 POP POP SWAP3 SWAP6 SWAP2 SWAP5 POP SWAP3 POP JUMP JUMPDEST PUSH1 0x0 DUP1 PUSH1 0x0 PUSH1 0x60 DUP5 DUP7 SUB SLT ISZERO PUSH2 0x37FC JUMPI PUSH2 0x37FB PUSH2 0x2A19 JUMP JUMPDEST JUMPDEST PUSH1 0x0 DUP5 ADD CALLDATALOAD PUSH8 0xFFFFFFFFFFFFFFFF DUP2 GT ISZERO PUSH2 0x381A JUMPI PUSH2 0x3819 PUSH2 0x2A1E JUMP JUMPDEST JUMPDEST PUSH2 0x3826 DUP7 DUP3 DUP8 ADD PUSH2 0x2B2A JUMP JUMPDEST SWAP4 POP POP PUSH1 0x20 PUSH2 0x3837 DUP7 DUP3 DUP8 ADD PUSH2 0x2DA3 JUMP JUMPDEST SWAP3 POP POP PUSH1 0x40 DUP5 ADD CALLDATALOAD PUSH8 0xFFFFFFFFFFFFFFFF DUP2 GT ISZERO PUSH2 0x3858 JUMPI PUSH2 0x3857 PUSH2 0x2A1E JUMP JUMPDEST JUMPDEST PUSH2 0x3864 DUP7 DUP3 DUP8 ADD PUSH2 0x2B2A JUMP JUMPDEST SWAP2 POP POP SWAP3 POP SWAP3 POP SWAP3 JUMP JUMPDEST PUSH1 0x0 DUP1 PUSH1 0x0 DUP1 PUSH1 0x0 DUP1 PUSH1 0xC0 DUP8 DUP10 SUB SLT ISZERO PUSH2 0x388B JUMPI PUSH2 0x388A PUSH2 0x2A19 JUMP JUMPDEST JUMPDEST PUSH1 0x0 DUP8 ADD CALLDATALOAD PUSH8 0xFFFFFFFFFFFFFFFF DUP2 GT ISZERO PUSH2 0x38A9 JUMPI PUSH2 0x38A8 PUSH2 0x2A1E JUMP JUMPDEST JUMPDEST PUSH2 0x38B5 DUP10 DUP3 DUP11 ADD PUSH2 0x2B2A JUMP JUMPDEST SWAP7 POP POP PUSH1 0x20 DUP8 ADD CALLDATALOAD PUSH8 0xFFFFFFFFFFFFFFFF DUP2 GT ISZERO PUSH2 0x38D6 JUMPI PUSH2 0x38D5 PUSH2 0x2A1E JUMP JUMPDEST JUMPDEST PUSH2 0x38E2 DUP10 DUP3 DUP11 ADD PUSH2 0x2B2A JUMP JUMPDEST SWAP6 POP POP PUSH1 0x40 DUP8 ADD CALLDATALOAD PUSH8 0xFFFFFFFFFFFFFFFF DUP2 GT ISZERO PUSH2 0x3903 JUMPI PUSH2 0x3902 PUSH2 0x2A1E JUMP JUMPDEST JUMPDEST PUSH2 0x390F DUP10 DUP3 DUP11 ADD PUSH2 0x2B2A JUMP JUMPDEST SWAP5 POP POP PUSH1 0x60 DUP8 ADD CALLDATALOAD PUSH8 0xFFFFFFFFFFFFFFFF DUP2 GT ISZERO PUSH2 0x3930 JUMPI PUSH2 0x392F PUSH2 0x2A1E JUMP JUMPDEST JUMPDEST PUSH2 0x393C DUP10 DUP3 DUP11 ADD PUSH2 0x2B2A JUMP JUMPDEST SWAP4 POP POP PUSH1 0x80 PUSH2 0x394D DUP10 DUP3 DUP11 ADD PUSH2 0x2DA3 JUMP JUMPDEST SWAP3 POP POP PUSH1 0xA0 DUP8 ADD CALLDATALOAD PUSH8 0xFFFFFFFFFFFFFFFF DUP2 GT ISZERO PUSH2 0x396E JUMPI PUSH2 0x396D PUSH2 0x2A1E JUMP JUMPDEST JUMPDEST PUSH2 0x397A DUP10 DUP3 DUP11 ADD PUSH2 0x2B2A JUMP JUMPDEST SWAP2 POP POP SWAP3 SWAP6 POP SWAP3 SWAP6 POP SWAP3 SWAP6 JUMP JUMPDEST PUSH32 0x4E487B7100000000000000000000000000000000000000000000000000000000 PUSH1 0x0 MSTORE PUSH1 0x22 PUSH1 0x4 MSTORE PUSH1 0x24 PUSH1 0x0 REVERT JUMPDEST PUSH1 0x0 PUSH1 0x2 DUP3 DIV SWAP1 POP PUSH1 0x1 DUP3 AND DUP1 PUSH2 0x39CE JUMPI PUSH1 0x7F DUP3 AND SWAP2 POP JUMPDEST PUSH1 0x20 DUP3 LT DUP2 SUB PUSH2 0x39E1 JUMPI PUSH2 0x39E0 PUSH2 0x3987 JUMP JUMPDEST JUMPDEST POP SWAP2 SWAP1 POP JUMP JUMPDEST PUSH32 0x4E487B7100000000000000000000000000000000000000000000000000000000 PUSH1 0x0 MSTORE PUSH1 0x32 PUSH1 0x4 MSTORE PUSH1 0x24 PUSH1 0x0 REVERT JUMPDEST PUSH1 0x0 DUP2 SWAP1 POP SWAP3 SWAP2 POP POP JUMP JUMPDEST PUSH1 0x0 PUSH2 0x3A2C DUP3 PUSH2 0x2798 JUMP JUMPDEST PUSH2 0x3A36 DUP2 DUP6 PUSH2 0x3A16 JUMP JUMPDEST SWAP4 POP PUSH2 0x3A46 DUP2 DUP6 PUSH1 0x20 DUP7 ADD PUSH2 0x27B4 JUMP JUMPDEST DUP1 DUP5 ADD SWAP2 POP POP SWAP3 SWAP2 POP POP JUMP JUMPDEST PUSH1 0x0 PUSH2 0x3A5E DUP3 DUP5 PUSH2 0x3A21 JUMP JUMPDEST SWAP2 POP DUP2 SWAP1 POP SWAP3 SWAP2 POP POP JUMP JUMPDEST PUSH1 0x0 DUP2 SWAP1 POP DUP2 PUSH1 0x0 MSTORE PUSH1 0x20 PUSH1 0x0 KECCAK256 SWAP1 POP SWAP2 SWAP1 POP JUMP JUMPDEST PUSH1 0x0 DUP2 SLOAD PUSH2 0x3A8B DUP2 PUSH2 0x39B6 JUMP JUMPDEST PUSH2 0x3A95 DUP2 DUP7 PUSH2 0x3A16 JUMP JUMPDEST SWAP5 POP PUSH1 0x1 DUP3 AND PUSH1 0x0 DUP2 EQ PUSH2 0x3AB0 JUMPI PUSH1 0x1 DUP2 EQ PUSH2 0x3AC1 JUMPI PUSH2 0x3AF4 JUMP JUMPDEST PUSH1 0xFF NOT DUP4 AND DUP7 MSTORE DUP2 DUP7 ADD SWAP4 POP PUSH2 0x3AF4 JUMP JUMPDEST PUSH2 0x3ACA DUP6 PUSH2 0x3A69 JUMP JUMPDEST PUSH1 0x0 JUMPDEST DUP4 DUP2 LT ISZERO PUSH2 0x3AEC JUMPI DUP2 SLOAD DUP2 DUP10 ADD MSTORE PUSH1 0x1 DUP3 ADD SWAP2 POP PUSH1 0x20 DUP2 ADD SWAP1 POP PUSH2 0x3ACD JUMP JUMPDEST DUP4 DUP9 ADD SWAP6 POP POP POP JUMPDEST POP POP POP SWAP3 SWAP2 POP POP JUMP JUMPDEST PUSH1 0x0 PUSH2 0x3B09 DUP3 DUP5 PUSH2 0x3A7E JUMP JUMPDEST SWAP2 POP DUP2 SWAP1 POP SWAP3 SWAP2 POP POP JUMP INVALID LOG2 PUSH5 0x6970667358 0x22 SLT KECCAK256 0xDB SSTORE DUP12 0xA8 PUSH8 0x1F7F59003BA50B1 0xE8 MUL 0xE2 DUP16 0xA9 SWAP11 0x28 SWAP12 CALLER 0xD6 0xD5 0x1E 0xD4 0xEE 0xE1 SLOAD RETURNDATACOPY 0xD9 PUSH1 0x64 PUSH20 0x6F6C634300080D00330000000000000000000000 "
        },
        "methodIdentifiers": {
          "activeNewSprint(uint256,string)": "0f1a9760",
          "activeSprintId()": "12d92c52",
          "addConfluence(string)": "3c06af24",
          "addUser(string,string,string,string,string)": "b37a3d82",
          "assignOwner(string,uint256,string,string)": "ba46415d",
          "changePosition(string,uint256,string,string,string)": "837d1d41",
          "confluence()": "3434e7b5",
          "createSprint(string,string,string,string)": "1d738a98",
          "createTicket(string,string,string,string,string)": "0d8b3e9b",
          "getAllSprints()": "6cba7beb",
          "getAllTickets()": "03e96fe3",
          "getAllUser()": "47531df8",
          "getTicketsAbi(uint256)": "7a7bdd59",
          "getTicketsOwnerImg(uint256)": "97208cdc",
          "initialize()": "8129fc1c",
          "login(string)": "3a7d280c",
          "manager()": "481c6a75",
          "project()": "f60ca60d",
          "setBoardDataToUser(string,string)": "41f9e57c",
          "setComments(string,uint256,string)": "e7b8f6ab",
          "setSprintToTicket(string,uint256,string)": "c472609b",
          "setTicketTracking(string,uint256)": "47f2d2be",
          "setUserAbi(string,string)": "cf619451",
          "sprints(uint256)": "48b012b7",
          "tickets(uint256)": "50b44712",
          "transferTicket(string,string,string,string,uint256,string)": "cda7efab",
          "updateTicket(string,uint256,string,bool)": "56aa6387",
          "updateTicketOwner(string,uint256)": "3b3d673d",
          "userList(uint256)": "9f4216e8",
          "users(string)": "689e1c03"
        }
      }
    }
  }
}