{
  "_format": "hh-sol-artifact-1",
  "contractName": "JIRAV2",
  "sourceName": "contracts/JIRAV2.sol",
  "abi": [
    {
      "inputs": [
        {
          "internalType": "uint256",
          "name": "id",
          "type": "uint256"
        },
        {
          "internalType": "string",
          "name": "time",
          "type": "string"
        }
      ],
      "name": "activeNewSprint",
      "outputs": [],
      "stateMutability": "nonpayable",
      "type": "function"
    },
    {
      "inputs": [],
      "name": "activeSprintId",
      "outputs": [
        {
          "internalType": "uint256",
          "name": "",
          "type": "uint256"
        }
      ],
      "stateMutability": "view",
      "type": "function"
    },
    {
      "inputs": [
        {
          "internalType": "string",
          "name": "abiLink",
          "type": "string"
        }
      ],
      "name": "addConfluence",
      "outputs": [],
      "stateMutability": "nonpayable",
      "type": "function"
    },
    {
      "inputs": [
        {
          "internalType": "string",
          "name": "uid",
          "type": "string"
        },
        {
          "internalType": "string",
          "name": "name",
          "type": "string"
        },
        {
          "internalType": "string",
          "name": "role",
          "type": "string"
        },
        {
          "internalType": "string",
          "name": "image",
          "type": "string"
        },
        {
          "internalType": "string",
          "name": "initialBoardData",
          "type": "string"
        }
      ],
      "name": "addUser",
      "outputs": [],
      "stateMutability": "nonpayable",
      "type": "function"
    },
    {
      "inputs": [
        {
          "internalType": "string",
          "name": "owner",
          "type": "string"
        },
        {
          "internalType": "uint256",
          "name": "index",
          "type": "uint256"
        },
        {
          "internalType": "string",
          "name": "ownersBoardData",
          "type": "string"
        },
        {
          "internalType": "string",
          "name": "tracking",
          "type": "string"
        }
      ],
      "name": "assignOwner",
      "outputs": [],
      "stateMutability": "nonpayable",
      "type": "function"
    },
    {
      "inputs": [
        {
          "internalType": "string",
          "name": "position",
          "type": "string"
        },
        {
          "internalType": "uint256",
          "name": "index",
          "type": "uint256"
        },
        {
          "internalType": "string",
          "name": "abiLink",
          "type": "string"
        },
        {
          "internalType": "string",
          "name": "uid",
          "type": "string"
        },
        {
          "internalType": "string",
          "name": "trackingData",
          "type": "string"
        }
      ],
      "name": "changePosition",
      "outputs": [],
      "stateMutability": "nonpayable",
      "type": "function"
    },
    {
      "inputs": [],
      "name": "confluence",
      "outputs": [
        {
          "internalType": "string",
          "name": "",
          "type": "string"
        }
      ],
      "stateMutability": "view",
      "type": "function"
    },
    {
      "inputs": [
        {
          "internalType": "string",
          "name": "name",
          "type": "string"
        },
        {
          "internalType": "string",
          "name": "startDate",
          "type": "string"
        },
        {
          "internalType": "string",
          "name": "enddate",
          "type": "string"
        },
        {
          "internalType": "string",
          "name": "abiLink",
          "type": "string"
        }
      ],
      "name": "createSprint",
      "outputs": [],
      "stateMutability": "nonpayable",
      "type": "function"
    },
    {
      "inputs": [
        {
          "internalType": "string",
          "name": "sprintId",
          "type": "string"
        },
        {
          "internalType": "string",
          "name": "id",
          "type": "string"
        },
        {
          "internalType": "string",
          "name": "abiLink",
          "type": "string"
        },
        {
          "internalType": "string",
          "name": "repoterUid",
          "type": "string"
        },
        {
          "internalType": "string",
          "name": "tracking",
          "type": "string"
        }
      ],
      "name": "createTicket",
      "outputs": [
        {
          "components": [
            {
              "internalType": "uint256",
              "name": "index",
              "type": "uint256"
            },
            {
              "internalType": "string",
              "name": "sprintId",
              "type": "string"
            },
            {
              "internalType": "string",
              "name": "id",
              "type": "string"
            },
            {
              "internalType": "string",
              "name": "abiLink",
              "type": "string"
            },
            {
              "internalType": "string",
              "name": "repoter",
              "type": "string"
            },
            {
              "internalType": "string",
              "name": "owner",
              "type": "string"
            },
            {
              "internalType": "string",
              "name": "position",
              "type": "string"
            },
            {
              "internalType": "bool",
              "name": "status",
              "type": "bool"
            },
            {
              "internalType": "string",
              "name": "tracking",
              "type": "string"
            },
            {
              "internalType": "string",
              "name": "comments",
              "type": "string"
            }
          ],
          "internalType": "struct JIRAV2.Ticket",
          "name": "",
          "type": "tuple"
        }
      ],
      "stateMutability": "nonpayable",
      "type": "function"
    },
    {
      "inputs": [],
      "name": "getAllSprints",
      "outputs": [
        {
          "components": [
            {
              "internalType": "uint256",
              "name": "id",
              "type": "uint256"
            },
            {
              "internalType": "string",
              "name": "name",
              "type": "string"
            },
            {
              "internalType": "string",
              "name": "startDate",
              "type": "string"
            },
            {
              "internalType": "string",
              "name": "enddate",
              "type": "string"
            },
            {
              "internalType": "string",
              "name": "abiLink",
              "type": "string"
            }
          ],
          "internalType": "struct JIRAV2.Sprint[]",
          "name": "",
          "type": "tuple[]"
        }
      ],
      "stateMutability": "view",
      "type": "function"
    },
    {
      "inputs": [],
      "name": "getAllTickets",
      "outputs": [
        {
          "components": [
            {
              "internalType": "uint256",
              "name": "index",
              "type": "uint256"
            },
            {
              "internalType": "string",
              "name": "sprintId",
              "type": "string"
            },
            {
              "internalType": "string",
              "name": "id",
              "type": "string"
            },
            {
              "internalType": "string",
              "name": "abiLink",
              "type": "string"
            },
            {
              "internalType": "string",
              "name": "repoter",
              "type": "string"
            },
            {
              "internalType": "string",
              "name": "owner",
              "type": "string"
            },
            {
              "internalType": "string",
              "name": "position",
              "type": "string"
            },
            {
              "internalType": "bool",
              "name": "status",
              "type": "bool"
            },
            {
              "internalType": "string",
              "name": "tracking",
              "type": "string"
            },
            {
              "internalType": "string",
              "name": "comments",
              "type": "string"
            }
          ],
          "internalType": "struct JIRAV2.Ticket[]",
          "name": "",
          "type": "tuple[]"
        }
      ],
      "stateMutability": "view",
      "type": "function"
    },
    {
      "inputs": [],
      "name": "getAllUser",
      "outputs": [
        {
          "internalType": "string[]",
          "name": "",
          "type": "string[]"
        }
      ],
      "stateMutability": "view",
      "type": "function"
    },
    {
      "inputs": [],
      "name": "getManager",
      "outputs": [
        {
          "internalType": "address",
          "name": "",
          "type": "address"
        }
      ],
      "stateMutability": "view",
      "type": "function"
    },
    {
      "inputs": [
        {
          "internalType": "uint256",
          "name": "index",
          "type": "uint256"
        }
      ],
      "name": "getTicketsAbi",
      "outputs": [
        {
          "internalType": "string",
          "name": "",
          "type": "string"
        }
      ],
      "stateMutability": "view",
      "type": "function"
    },
    {
      "inputs": [
        {
          "internalType": "uint256",
          "name": "index",
          "type": "uint256"
        }
      ],
      "name": "getTicketsOwnerImg",
      "outputs": [
        {
          "internalType": "string",
          "name": "",
          "type": "string"
        }
      ],
      "stateMutability": "view",
      "type": "function"
    },
    {
      "inputs": [],
      "name": "initialize",
      "outputs": [],
      "stateMutability": "nonpayable",
      "type": "function"
    },
    {
      "inputs": [
        {
          "internalType": "string",
          "name": "uid",
          "type": "string"
        }
      ],
      "name": "login",
      "outputs": [
        {
          "internalType": "bool",
          "name": "",
          "type": "bool"
        }
      ],
      "stateMutability": "view",
      "type": "function"
    },
    {
      "inputs": [],
      "name": "manager",
      "outputs": [
        {
          "internalType": "address",
          "name": "",
          "type": "address"
        }
      ],
      "stateMutability": "view",
      "type": "function"
    },
    {
      "inputs": [],
      "name": "project",
      "outputs": [
        {
          "internalType": "string",
          "name": "",
          "type": "string"
        }
      ],
      "stateMutability": "view",
      "type": "function"
    },
    {
      "inputs": [
        {
          "internalType": "string",
          "name": "abiLink",
          "type": "string"
        },
        {
          "internalType": "string",
          "name": "uid",
          "type": "string"
        }
      ],
      "name": "setBoardDataToUser",
      "outputs": [],
      "stateMutability": "nonpayable",
      "type": "function"
    },
    {
      "inputs": [
        {
          "internalType": "string",
          "name": "commentdata",
          "type": "string"
        },
        {
          "internalType": "uint256",
          "name": "index",
          "type": "uint256"
        },
        {
          "internalType": "string",
          "name": "tracking",
          "type": "string"
        }
      ],
      "name": "setComments",
      "outputs": [],
      "stateMutability": "nonpayable",
      "type": "function"
    },
    {
      "inputs": [
        {
          "internalType": "string",
          "name": "sprintId",
          "type": "string"
        },
        {
          "internalType": "uint256",
          "name": "index",
          "type": "uint256"
        },
        {
          "internalType": "string",
          "name": "tracking",
          "type": "string"
        }
      ],
      "name": "setSprintToTicket",
      "outputs": [],
      "stateMutability": "nonpayable",
      "type": "function"
    },
    {
      "inputs": [
        {
          "internalType": "string",
          "name": "abiLink",
          "type": "string"
        },
        {
          "internalType": "uint256",
          "name": "index",
          "type": "uint256"
        }
      ],
      "name": "setTicketTracking",
      "outputs": [],
      "stateMutability": "nonpayable",
      "type": "function"
    },
    {
      "inputs": [
        {
          "internalType": "string",
          "name": "abiLink",
          "type": "string"
        },
        {
          "internalType": "string",
          "name": "uid",
          "type": "string"
        }
      ],
      "name": "setUserAbi",
      "outputs": [],
      "stateMutability": "nonpayable",
      "type": "function"
    },
    {
      "inputs": [
        {
          "internalType": "uint256",
          "name": "",
          "type": "uint256"
        }
      ],
      "name": "sprints",
      "outputs": [
        {
          "internalType": "uint256",
          "name": "id",
          "type": "uint256"
        },
        {
          "internalType": "string",
          "name": "name",
          "type": "string"
        },
        {
          "internalType": "string",
          "name": "startDate",
          "type": "string"
        },
        {
          "internalType": "string",
          "name": "enddate",
          "type": "string"
        },
        {
          "internalType": "string",
          "name": "abiLink",
          "type": "string"
        }
      ],
      "stateMutability": "view",
      "type": "function"
    },
    {
      "inputs": [
        {
          "internalType": "uint256",
          "name": "",
          "type": "uint256"
        }
      ],
      "name": "tickets",
      "outputs": [
        {
          "internalType": "uint256",
          "name": "index",
          "type": "uint256"
        },
        {
          "internalType": "string",
          "name": "sprintId",
          "type": "string"
        },
        {
          "internalType": "string",
          "name": "id",
          "type": "string"
        },
        {
          "internalType": "string",
          "name": "abiLink",
          "type": "string"
        },
        {
          "internalType": "string",
          "name": "repoter",
          "type": "string"
        },
        {
          "internalType": "string",
          "name": "owner",
          "type": "string"
        },
        {
          "internalType": "string",
          "name": "position",
          "type": "string"
        },
        {
          "internalType": "bool",
          "name": "status",
          "type": "bool"
        },
        {
          "internalType": "string",
          "name": "tracking",
          "type": "string"
        },
        {
          "internalType": "string",
          "name": "comments",
          "type": "string"
        }
      ],
      "stateMutability": "view",
      "type": "function"
    },
    {
      "inputs": [
        {
          "internalType": "string",
          "name": "senderUid",
          "type": "string"
        },
        {
          "internalType": "string",
          "name": "receiverUid",
          "type": "string"
        },
        {
          "internalType": "string",
          "name": "updatedSenderAbi",
          "type": "string"
        },
        {
          "internalType": "string",
          "name": "updatedReceiverAbi",
          "type": "string"
        },
        {
          "internalType": "uint256",
          "name": "index",
          "type": "uint256"
        },
        {
          "internalType": "string",
          "name": "trackingData",
          "type": "string"
        }
      ],
      "name": "transferTicket",
      "outputs": [],
      "stateMutability": "nonpayable",
      "type": "function"
    },
    {
      "inputs": [
        {
          "internalType": "string",
          "name": "abiLink",
          "type": "string"
        },
        {
          "internalType": "uint256",
          "name": "index",
          "type": "uint256"
        },
        {
          "internalType": "string",
          "name": "trackingData",
          "type": "string"
        },
        {
          "internalType": "bool",
          "name": "status",
          "type": "bool"
        }
      ],
      "name": "updateTicket",
      "outputs": [],
      "stateMutability": "nonpayable",
      "type": "function"
    },
    {
      "inputs": [
        {
          "internalType": "string",
          "name": "newOwnerUid",
          "type": "string"
        },
        {
          "internalType": "uint256",
          "name": "index",
          "type": "uint256"
        }
      ],
      "name": "updateTicketOwner",
      "outputs": [],
      "stateMutability": "nonpayable",
      "type": "function"
    },
    {
      "inputs": [
        {
          "internalType": "uint256",
          "name": "",
          "type": "uint256"
        }
      ],
      "name": "userList",
      "outputs": [
        {
          "internalType": "string",
          "name": "",
          "type": "string"
        }
      ],
      "stateMutability": "view",
      "type": "function"
    },
    {
      "inputs": [
        {
          "internalType": "string",
          "name": "",
          "type": "string"
        }
      ],
      "name": "users",
      "outputs": [
        {
          "internalType": "string",
          "name": "name",
          "type": "string"
        },
        {
          "internalType": "string",
          "name": "role",
          "type": "string"
        },
        {
          "internalType": "string",
          "name": "boardData",
          "type": "string"
        },
        {
          "internalType": "string",
          "name": "profileImg",
          "type": "string"
        },
        {
          "internalType": "string",
          "name": "abiLink",
          "type": "string"
        },
        {
          "internalType": "string",
          "name": "uid",
          "type": "string"
        }
      ],
      "stateMutability": "view",
      "type": "function"
    }
  ],
  "bytecode": "0x608060405234801561001057600080fd5b50613b9d806100206000396000f3fe608060405234801561001057600080fd5b50600436106101e55760003560e01c806356aa63871161010f578063b37a3d82116100a2578063cf61945111610071578063cf6194511461058a578063d5009584146105a6578063e7b8f6ab146105c4578063f60ca60d146105e0576101e5565b8063b37a3d821461051a578063ba46415d14610536578063c472609b14610552578063cda7efab1461056e576101e5565b80638129fc1c116100de5780638129fc1c14610494578063837d1d411461049e57806397208cdc146104ba5780639f4216e8146104ea576101e5565b806356aa6387146103f5578063689e1c03146104115780636cba7beb146104465780637a7bdd5914610464576101e5565b80633b3d673d1161018757806347f2d2be1161015657806347f2d2be1461034e578063481c6a751461036a57806348b012b71461038857806350b44712146103bc576101e5565b80633b3d673d146102dc5780633c06af24146102f857806341f9e57c1461031457806347531df814610330576101e5565b806312d92c52116101c357806312d92c52146102545780631d738a98146102725780633434e7b51461028e5780633a7d280c146102ac576101e5565b806303e96fe3146101ea5780630d8b3e9b146102085780630f1a976014610238575b600080fd5b6101f26105fe565b6040516101ff9190612a40565b60405180910390f35b610222600480360381019061021d9190612bab565b610b13565b60405161022f9190612dbd565b60405180910390f35b610252600480360381019061024d9190612e0b565b610d0f565b005b61025c610d5a565b6040516102699190612e76565b60405180910390f35b61028c60048036038101906102879190612e91565b610d60565b005b610296610e43565b6040516102a39190612fb2565b60405180910390f35b6102c660048036038101906102c19190612fd4565b610ed1565b6040516102d3919061302c565b60405180910390f35b6102f660048036038101906102f19190613047565b610f9e565b005b610312600480360381019061030d9190612fd4565b610fe2565b005b61032e600480360381019061032991906130a3565b610ffc565b005b61033861103b565b60405161034591906131dd565b60405180910390f35b61036860048036038101906103639190613047565b611114565b005b610372611158565b60405161037f9190613240565b60405180910390f35b6103a2600480360381019061039d919061325b565b61117e565b6040516103b3959493929190613288565b60405180910390f35b6103d660048036038101906103d1919061325b565b6113e4565b6040516103ec9a999897969594939291906132f7565b60405180910390f35b61040f600480360381019061040a91906133f7565b611895565b005b61042b60048036038101906104269190612fd4565b611910565b60405161043d96959493929190613496565b60405180910390f35b61044e611c92565b60405161045b919061366e565b60405180910390f35b61047e6004803603810190610479919061325b565b611f43565b60405161048b9190612fb2565b60405180910390f35b61049c612000565b005b6104b860048036038101906104b39190613690565b612097565b005b6104d460048036038101906104cf919061325b565b612101565b6040516104e19190612fb2565b60405180910390f35b61050460048036038101906104ff919061325b565b6121de565b6040516105119190612fb2565b60405180910390f35b610534600480360381019061052f9190612bab565b61228a565b005b610550600480360381019061054b919061377b565b6123de565b005b61056c60048036038101906105679190613836565b612495565b005b610588600480360381019061058391906138c1565b6124f3565b005b6105a4600480360381019061059f91906130a3565b612559565b005b6105ae612598565b6040516105bb9190613240565b60405180910390f35b6105de60048036038101906105d99190613836565b6125c2565b005b6105e8612620565b6040516105f59190612fb2565b60405180910390f35b60606002805480602002602001604051908101604052809291908181526020016000905b82821015610b0a57838290600052602060002090600a0201604051806101400160405290816000820154815260200160018201805461066090613a09565b80601f016020809104026020016040519081016040528092919081815260200182805461068c90613a09565b80156106d95780601f106106ae576101008083540402835291602001916106d9565b820191906000526020600020905b8154815290600101906020018083116106bc57829003601f168201915b505050505081526020016002820180546106f290613a09565b80601f016020809104026020016040519081016040528092919081815260200182805461071e90613a09565b801561076b5780601f106107405761010080835404028352916020019161076b565b820191906000526020600020905b81548152906001019060200180831161074e57829003601f168201915b5050505050815260200160038201805461078490613a09565b80601f01602080910402602001604051908101604052809291908181526020018280546107b090613a09565b80156107fd5780601f106107d2576101008083540402835291602001916107fd565b820191906000526020600020905b8154815290600101906020018083116107e057829003601f168201915b5050505050815260200160048201805461081690613a09565b80601f016020809104026020016040519081016040528092919081815260200182805461084290613a09565b801561088f5780601f106108645761010080835404028352916020019161088f565b820191906000526020600020905b81548152906001019060200180831161087257829003601f168201915b505050505081526020016005820180546108a890613a09565b80601f01602080910402602001604051908101604052809291908181526020018280546108d490613a09565b80156109215780601f106108f657610100808354040283529160200191610921565b820191906000526020600020905b81548152906001019060200180831161090457829003601f168201915b5050505050815260200160068201805461093a90613a09565b80601f016020809104026020016040519081016040528092919081815260200182805461096690613a09565b80156109b35780601f10610988576101008083540402835291602001916109b3565b820191906000526020600020905b81548152906001019060200180831161099657829003601f168201915b505050505081526020016007820160009054906101000a900460ff161515151581526020016008820180546109e790613a09565b80601f0160208091040260200160405190810160405280929190818152602001828054610a1390613a09565b8015610a605780601f10610a3557610100808354040283529160200191610a60565b820191906000526020600020905b815481529060010190602001808311610a4357829003601f168201915b50505050508152602001600982018054610a7990613a09565b80601f0160208091040260200160405190810160405280929190818152602001828054610aa590613a09565b8015610af25780601f10610ac757610100808354040283529160200191610af2565b820191906000526020600020905b815481529060010190602001808311610ad557829003601f168201915b50505050508152505081526020019060010190610622565b50505050905090565b610b1b6126ae565b600060405180610140016040528060028054905081526020018881526020018781526020018681526020018581526020016040518060200160405280600081525081526020016040518060400160405280600181526020017f3100000000000000000000000000000000000000000000000000000000000000815250815260200160011515815260200184815260200160405180602001604052806000815250815250905060028190806001815401808255809150506001900390600052602060002090600a0201600090919091909150600082015181600001556020820151816001019080519060200190610c12929190612703565b506040820151816002019080519060200190610c2f929190612703565b506060820151816003019080519060200190610c4c929190612703565b506080820151816004019080519060200190610c69929190612703565b5060a0820151816005019080519060200190610c86929190612703565b5060c0820151816006019080519060200190610ca3929190612703565b5060e08201518160070160006101000a81548160ff021916908315150217905550610100820151816008019080519060200190610ce1929190612703565b50610120820151816009019080519060200190610cff929190612703565b5050508091505095945050505050565b81600781905550600060018381548110610d2c57610d2b613a3a565b5b9060005260206000209060050201905081816002019080519060200190610d54929190612703565b50505050565b60075481565b60006040518060a0016040528060018054905081526020018681526020018581526020018481526020018381525090506001819080600181540180825580915050600190039060005260206000209060050201600090919091909150600082015181600001556020820151816001019080519060200190610de2929190612703565b506040820151816002019080519060200190610dff929190612703565b506060820151816003019080519060200190610e1c929190612703565b506080820151816004019080519060200190610e39929190612703565b5050505050505050565b60068054610e5090613a09565b80601f0160208091040260200160405190810160405280929190818152602001828054610e7c90613a09565b8015610ec95780601f10610e9e57610100808354040283529160200191610ec9565b820191906000526020600020905b815481529060010190602001808311610eac57829003601f168201915b505050505081565b600080600083604051610ee49190613aa5565b90815260200160405180910390206000018054610f0090613a09565b80601f0160208091040260200160405190810160405280929190818152602001828054610f2c90613a09565b8015610f795780601f10610f4e57610100808354040283529160200191610f79565b820191906000526020600020905b815481529060010190602001808311610f5c57829003601f168201915b505050505090506000815103610f93576000915050610f99565b60019150505b919050565b600060028281548110610fb457610fb3613a3a565b5b90600052602060002090600a0201905082816005019080519060200190610fdc929190612703565b50505050565b8060069080519060200190610ff8929190612703565b5050565b6000808260405161100d9190613aa5565b9081526020016040518091039020905082816002019080519060200190611035929190612703565b50505050565b60606003805480602002602001604051908101604052809291908181526020016000905b8282101561110b57838290600052602060002001805461107e90613a09565b80601f01602080910402602001604051908101604052809291908181526020018280546110aa90613a09565b80156110f75780601f106110cc576101008083540402835291602001916110f7565b820191906000526020600020905b8154815290600101906020018083116110da57829003601f168201915b50505050508152602001906001019061105f565b50505050905090565b60006002828154811061112a57611129613a3a565b5b90600052602060002090600a0201905082816008019080519060200190611152929190612703565b50505050565b600460009054906101000a900473ffffffffffffffffffffffffffffffffffffffff1681565b6001818154811061118e57600080fd5b90600052602060002090600502016000915090508060000154908060010180546111b790613a09565b80601f01602080910402602001604051908101604052809291908181526020018280546111e390613a09565b80156112305780601f1061120557610100808354040283529160200191611230565b820191906000526020600020905b81548152906001019060200180831161121357829003601f168201915b50505050509080600201805461124590613a09565b80601f016020809104026020016040519081016040528092919081815260200182805461127190613a09565b80156112be5780601f10611293576101008083540402835291602001916112be565b820191906000526020600020905b8154815290600101906020018083116112a157829003601f168201915b5050505050908060030180546112d390613a09565b80601f01602080910402602001604051908101604052809291908181526020018280546112ff90613a09565b801561134c5780601f106113215761010080835404028352916020019161134c565b820191906000526020600020905b81548152906001019060200180831161132f57829003601f168201915b50505050509080600401805461136190613a09565b80601f016020809104026020016040519081016040528092919081815260200182805461138d90613a09565b80156113da5780601f106113af576101008083540402835291602001916113da565b820191906000526020600020905b8154815290600101906020018083116113bd57829003601f168201915b5050505050905085565b600281815481106113f457600080fd5b90600052602060002090600a020160009150905080600001549080600101805461141d90613a09565b80601f016020809104026020016040519081016040528092919081815260200182805461144990613a09565b80156114965780601f1061146b57610100808354040283529160200191611496565b820191906000526020600020905b81548152906001019060200180831161147957829003601f168201915b5050505050908060020180546114ab90613a09565b80601f01602080910402602001604051908101604052809291908181526020018280546114d790613a09565b80156115245780601f106114f957610100808354040283529160200191611524565b820191906000526020600020905b81548152906001019060200180831161150757829003601f168201915b50505050509080600301805461153990613a09565b80601f016020809104026020016040519081016040528092919081815260200182805461156590613a09565b80156115b25780601f10611587576101008083540402835291602001916115b2565b820191906000526020600020905b81548152906001019060200180831161159557829003601f168201915b5050505050908060040180546115c790613a09565b80601f01602080910402602001604051908101604052809291908181526020018280546115f390613a09565b80156116405780601f1061161557610100808354040283529160200191611640565b820191906000526020600020905b81548152906001019060200180831161162357829003601f168201915b50505050509080600501805461165590613a09565b80601f016020809104026020016040519081016040528092919081815260200182805461168190613a09565b80156116ce5780601f106116a3576101008083540402835291602001916116ce565b820191906000526020600020905b8154815290600101906020018083116116b157829003601f168201915b5050505050908060060180546116e390613a09565b80601f016020809104026020016040519081016040528092919081815260200182805461170f90613a09565b801561175c5780601f106117315761010080835404028352916020019161175c565b820191906000526020600020905b81548152906001019060200180831161173f57829003601f168201915b5050505050908060070160009054906101000a900460ff169080600801805461178490613a09565b80601f01602080910402602001604051908101604052809291908181526020018280546117b090613a09565b80156117fd5780601f106117d2576101008083540402835291602001916117fd565b820191906000526020600020905b8154815290600101906020018083116117e057829003601f168201915b50505050509080600901805461181290613a09565b80601f016020809104026020016040519081016040528092919081815260200182805461183e90613a09565b801561188b5780601f106118605761010080835404028352916020019161188b565b820191906000526020600020905b81548152906001019060200180831161186e57829003601f168201915b505050505090508a565b6000600284815481106118ab576118aa613a3a565b5b90600052602060002090600a02019050848160030190805190602001906118d3929190612703565b50828160080190805190602001906118ec929190612703565b50818160070160006101000a81548160ff0219169083151502179055505050505050565b60008180516020810182018051848252602083016020850120818352809550505050505060009150905080600001805461194990613a09565b80601f016020809104026020016040519081016040528092919081815260200182805461197590613a09565b80156119c25780601f10611997576101008083540402835291602001916119c2565b820191906000526020600020905b8154815290600101906020018083116119a557829003601f168201915b5050505050908060010180546119d790613a09565b80601f0160208091040260200160405190810160405280929190818152602001828054611a0390613a09565b8015611a505780601f10611a2557610100808354040283529160200191611a50565b820191906000526020600020905b815481529060010190602001808311611a3357829003601f168201915b505050505090806002018054611a6590613a09565b80601f0160208091040260200160405190810160405280929190818152602001828054611a9190613a09565b8015611ade5780601f10611ab357610100808354040283529160200191611ade565b820191906000526020600020905b815481529060010190602001808311611ac157829003601f168201915b505050505090806003018054611af390613a09565b80601f0160208091040260200160405190810160405280929190818152602001828054611b1f90613a09565b8015611b6c5780601f10611b4157610100808354040283529160200191611b6c565b820191906000526020600020905b815481529060010190602001808311611b4f57829003601f168201915b505050505090806004018054611b8190613a09565b80601f0160208091040260200160405190810160405280929190818152602001828054611bad90613a09565b8015611bfa5780601f10611bcf57610100808354040283529160200191611bfa565b820191906000526020600020905b815481529060010190602001808311611bdd57829003601f168201915b505050505090806005018054611c0f90613a09565b80601f0160208091040260200160405190810160405280929190818152602001828054611c3b90613a09565b8015611c885780601f10611c5d57610100808354040283529160200191611c88565b820191906000526020600020905b815481529060010190602001808311611c6b57829003601f168201915b5050505050905086565b60606001805480602002602001604051908101604052809291908181526020016000905b82821015611f3a57838290600052602060002090600502016040518060a001604052908160008201548152602001600182018054611cf390613a09565b80601f0160208091040260200160405190810160405280929190818152602001828054611d1f90613a09565b8015611d6c5780601f10611d4157610100808354040283529160200191611d6c565b820191906000526020600020905b815481529060010190602001808311611d4f57829003601f168201915b50505050508152602001600282018054611d8590613a09565b80601f0160208091040260200160405190810160405280929190818152602001828054611db190613a09565b8015611dfe5780601f10611dd357610100808354040283529160200191611dfe565b820191906000526020600020905b815481529060010190602001808311611de157829003601f168201915b50505050508152602001600382018054611e1790613a09565b80601f0160208091040260200160405190810160405280929190818152602001828054611e4390613a09565b8015611e905780601f10611e6557610100808354040283529160200191611e90565b820191906000526020600020905b815481529060010190602001808311611e7357829003601f168201915b50505050508152602001600482018054611ea990613a09565b80601f0160208091040260200160405190810160405280929190818152602001828054611ed590613a09565b8015611f225780601f10611ef757610100808354040283529160200191611f22565b820191906000526020600020905b815481529060010190602001808311611f0557829003601f168201915b50505050508152505081526020019060010190611cb6565b50505050905090565b6060600060028381548110611f5b57611f5a613a3a565b5b90600052602060002090600a02019050806003018054611f7a90613a09565b80601f0160208091040260200160405190810160405280929190818152602001828054611fa690613a09565b8015611ff35780601f10611fc857610100808354040283529160200191611ff3565b820191906000526020600020905b815481529060010190602001808311611fd657829003601f168201915b5050505050915050919050565b33600460006101000a81548173ffffffffffffffffffffffffffffffffffffffff021916908373ffffffffffffffffffffffffffffffffffffffff1602179055506040518060400160405280600c81526020017f4a4952412057656220332e3000000000000000000000000000000000000000008152506005908051906020019061208c929190612703565b506000600781905550565b6000600285815481106120ad576120ac613a3a565b5b90600052602060002090600a02019050858160060190805190602001906120d5929190612703565b50818160080190805190602001906120ee929190612703565b506120f98484610ffc565b505050505050565b606060006002838154811061211957612118613a3a565b5b90600052602060002090600a0201905060008160050160405161213c9190613b50565b9081526020016040518091039020600301805461215890613a09565b80601f016020809104026020016040519081016040528092919081815260200182805461218490613a09565b80156121d15780601f106121a6576101008083540402835291602001916121d1565b820191906000526020600020905b8154815290600101906020018083116121b457829003601f168201915b5050505050915050919050565b600381815481106121ee57600080fd5b90600052602060002001600091509050805461220990613a09565b80601f016020809104026020016040519081016040528092919081815260200182805461223590613a09565b80156122825780601f1061225757610100808354040283529160200191612282565b820191906000526020600020905b81548152906001019060200180831161226557829003601f168201915b505050505081565b60006040518060c00160405280868152602001858152602001838152602001848152602001604051806020016040528060008152508152602001878152509050806000876040516122db9190613aa5565b90815260200160405180910390206000820151816000019080519060200190612305929190612703565b506020820151816001019080519060200190612322929190612703565b50604082015181600201908051906020019061233f929190612703565b50606082015181600301908051906020019061235c929190612703565b506080820151816004019080519060200190612379929190612703565b5060a0820151816005019080519060200190612396929190612703565b509050506003869080600181540180825580915050600190039060005260206000200160009091909190915090805190602001906123d5929190612703565b50505050505050565b6000600284815481106123f4576123f3613a3a565b5b90600052602060002090600a020190508481600501908051906020019061241c929190612703565b506040518060400160405280600181526020017f310000000000000000000000000000000000000000000000000000000000000081525081600601908051906020019061246a929190612703565b5081816008019080519060200190612483929190612703565b5061248e8386610ffc565b5050505050565b6000600283815481106124ab576124aa613a3a565b5b90600052602060002090600a02019050838160010190805190602001906124d3929190612703565b50818160080190805190602001906124ec929190612703565b5050505050565b6124fd8487610ffc565b6125078386610ffc565b6125118583610f9e565b60006002838154811061252757612526613a3a565b5b90600052602060002090600a020190508181600801908051906020019061254f929190612703565b5050505050505050565b6000808260405161256a9190613aa5565b9081526020016040518091039020905082816004019080519060200190612592929190612703565b50505050565b6000600460009054906101000a900473ffffffffffffffffffffffffffffffffffffffff16905090565b6000600283815481106125d8576125d7613a3a565b5b90600052602060002090600a0201905083816009019080519060200190612600929190612703565b5081816008019080519060200190612619929190612703565b5050505050565b6005805461262d90613a09565b80601f016020809104026020016040519081016040528092919081815260200182805461265990613a09565b80156126a65780601f1061267b576101008083540402835291602001916126a6565b820191906000526020600020905b81548152906001019060200180831161268957829003601f168201915b505050505081565b6040518061014001604052806000815260200160608152602001606081526020016060815260200160608152602001606081526020016060815260200160001515815260200160608152602001606081525090565b82805461270f90613a09565b90600052602060002090601f0160209004810192826127315760008555612778565b82601f1061274a57805160ff1916838001178555612778565b82800160010185558215612778579182015b8281111561277757825182559160200191906001019061275c565b5b5090506127859190612789565b5090565b5b808211156127a257600081600090555060010161278a565b5090565b600081519050919050565b600082825260208201905092915050565b6000819050602082019050919050565b6000819050919050565b6127e5816127d2565b82525050565b600081519050919050565b600082825260208201905092915050565b60005b8381101561282557808201518184015260208101905061280a565b83811115612834576000848401525b50505050565b6000601f19601f8301169050919050565b6000612856826127eb565b61286081856127f6565b9350612870818560208601612807565b6128798161283a565b840191505092915050565b60008115159050919050565b61289981612884565b82525050565b6000610140830160008301516128b860008601826127dc565b50602083015184820360208601526128d0828261284b565b915050604083015184820360408601526128ea828261284b565b91505060608301518482036060860152612904828261284b565b9150506080830151848203608086015261291e828261284b565b91505060a083015184820360a0860152612938828261284b565b91505060c083015184820360c0860152612952828261284b565b91505060e083015161296760e0860182612890565b50610100830151848203610100860152612981828261284b565b91505061012083015184820361012086015261299d828261284b565b9150508091505092915050565b60006129b6838361289f565b905092915050565b6000602082019050919050565b60006129d6826127a6565b6129e081856127b1565b9350836020820285016129f2856127c2565b8060005b85811015612a2e5784840389528151612a0f85826129aa565b9450612a1a836129be565b925060208a019950506001810190506129f6565b50829750879550505050505092915050565b60006020820190508181036000830152612a5a81846129cb565b905092915050565b6000604051905090565b600080fd5b600080fd5b600080fd5b600080fd5b7f4e487b7100000000000000000000000000000000000000000000000000000000600052604160045260246000fd5b612ab88261283a565b810181811067ffffffffffffffff82111715612ad757612ad6612a80565b5b80604052505050565b6000612aea612a62565b9050612af68282612aaf565b919050565b600067ffffffffffffffff821115612b1657612b15612a80565b5b612b1f8261283a565b9050602081019050919050565b82818337600083830152505050565b6000612b4e612b4984612afb565b612ae0565b905082815260208101848484011115612b6a57612b69612a7b565b5b612b75848285612b2c565b509392505050565b600082601f830112612b9257612b91612a76565b5b8135612ba2848260208601612b3b565b91505092915050565b600080600080600060a08688031215612bc757612bc6612a6c565b5b600086013567ffffffffffffffff811115612be557612be4612a71565b5b612bf188828901612b7d565b955050602086013567ffffffffffffffff811115612c1257612c11612a71565b5b612c1e88828901612b7d565b945050604086013567ffffffffffffffff811115612c3f57612c3e612a71565b5b612c4b88828901612b7d565b935050606086013567ffffffffffffffff811115612c6c57612c6b612a71565b5b612c7888828901612b7d565b925050608086013567ffffffffffffffff811115612c9957612c98612a71565b5b612ca588828901612b7d565b9150509295509295909350565b600061014083016000830151612ccb60008601826127dc565b5060208301518482036020860152612ce3828261284b565b91505060408301518482036040860152612cfd828261284b565b91505060608301518482036060860152612d17828261284b565b91505060808301518482036080860152612d31828261284b565b91505060a083015184820360a0860152612d4b828261284b565b91505060c083015184820360c0860152612d65828261284b565b91505060e0830151612d7a60e0860182612890565b50610100830151848203610100860152612d94828261284b565b915050610120830151848203610120860152612db0828261284b565b9150508091505092915050565b60006020820190508181036000830152612dd78184612cb2565b905092915050565b612de8816127d2565b8114612df357600080fd5b50565b600081359050612e0581612ddf565b92915050565b60008060408385031215612e2257612e21612a6c565b5b6000612e3085828601612df6565b925050602083013567ffffffffffffffff811115612e5157612e50612a71565b5b612e5d85828601612b7d565b9150509250929050565b612e70816127d2565b82525050565b6000602082019050612e8b6000830184612e67565b92915050565b60008060008060808587031215612eab57612eaa612a6c565b5b600085013567ffffffffffffffff811115612ec957612ec8612a71565b5b612ed587828801612b7d565b945050602085013567ffffffffffffffff811115612ef657612ef5612a71565b5b612f0287828801612b7d565b935050604085013567ffffffffffffffff811115612f2357612f22612a71565b5b612f2f87828801612b7d565b925050606085013567ffffffffffffffff811115612f5057612f4f612a71565b5b612f5c87828801612b7d565b91505092959194509250565b600082825260208201905092915050565b6000612f84826127eb565b612f8e8185612f68565b9350612f9e818560208601612807565b612fa78161283a565b840191505092915050565b60006020820190508181036000830152612fcc8184612f79565b905092915050565b600060208284031215612fea57612fe9612a6c565b5b600082013567ffffffffffffffff81111561300857613007612a71565b5b61301484828501612b7d565b91505092915050565b61302681612884565b82525050565b6000602082019050613041600083018461301d565b92915050565b6000806040838503121561305e5761305d612a6c565b5b600083013567ffffffffffffffff81111561307c5761307b612a71565b5b61308885828601612b7d565b925050602061309985828601612df6565b9150509250929050565b600080604083850312156130ba576130b9612a6c565b5b600083013567ffffffffffffffff8111156130d8576130d7612a71565b5b6130e485828601612b7d565b925050602083013567ffffffffffffffff81111561310557613104612a71565b5b61311185828601612b7d565b9150509250929050565b600081519050919050565b600082825260208201905092915050565b6000819050602082019050919050565b6000613153838361284b565b905092915050565b6000602082019050919050565b60006131738261311b565b61317d8185613126565b93508360208202850161318f85613137565b8060005b858110156131cb57848403895281516131ac8582613147565b94506131b78361315b565b925060208a01995050600181019050613193565b50829750879550505050505092915050565b600060208201905081810360008301526131f78184613168565b905092915050565b600073ffffffffffffffffffffffffffffffffffffffff82169050919050565b600061322a826131ff565b9050919050565b61323a8161321f565b82525050565b60006020820190506132556000830184613231565b92915050565b60006020828403121561327157613270612a6c565b5b600061327f84828501612df6565b91505092915050565b600060a08201905061329d6000830188612e67565b81810360208301526132af8187612f79565b905081810360408301526132c38186612f79565b905081810360608301526132d78185612f79565b905081810360808301526132eb8184612f79565b90509695505050505050565b60006101408201905061330d600083018d612e67565b818103602083015261331f818c612f79565b90508181036040830152613333818b612f79565b90508181036060830152613347818a612f79565b9050818103608083015261335b8189612f79565b905081810360a083015261336f8188612f79565b905081810360c08301526133838187612f79565b905061339260e083018661301d565b8181036101008301526133a58185612f79565b90508181036101208301526133ba8184612f79565b90509b9a5050505050505050505050565b6133d481612884565b81146133df57600080fd5b50565b6000813590506133f1816133cb565b92915050565b6000806000806080858703121561341157613410612a6c565b5b600085013567ffffffffffffffff81111561342f5761342e612a71565b5b61343b87828801612b7d565b945050602061344c87828801612df6565b935050604085013567ffffffffffffffff81111561346d5761346c612a71565b5b61347987828801612b7d565b925050606061348a878288016133e2565b91505092959194509250565b600060c08201905081810360008301526134b08189612f79565b905081810360208301526134c48188612f79565b905081810360408301526134d88187612f79565b905081810360608301526134ec8186612f79565b905081810360808301526135008185612f79565b905081810360a08301526135148184612f79565b9050979650505050505050565b600081519050919050565b600082825260208201905092915050565b6000819050602082019050919050565b600060a08301600083015161356560008601826127dc565b506020830151848203602086015261357d828261284b565b91505060408301518482036040860152613597828261284b565b915050606083015184820360608601526135b1828261284b565b915050608083015184820360808601526135cb828261284b565b9150508091505092915050565b60006135e4838361354d565b905092915050565b6000602082019050919050565b600061360482613521565b61360e818561352c565b9350836020820285016136208561353d565b8060005b8581101561365c578484038952815161363d85826135d8565b9450613648836135ec565b925060208a01995050600181019050613624565b50829750879550505050505092915050565b6000602082019050818103600083015261368881846135f9565b905092915050565b600080600080600060a086880312156136ac576136ab612a6c565b5b600086013567ffffffffffffffff8111156136ca576136c9612a71565b5b6136d688828901612b7d565b95505060206136e788828901612df6565b945050604086013567ffffffffffffffff81111561370857613707612a71565b5b61371488828901612b7d565b935050606086013567ffffffffffffffff81111561373557613734612a71565b5b61374188828901612b7d565b925050608086013567ffffffffffffffff81111561376257613761612a71565b5b61376e88828901612b7d565b9150509295509295909350565b6000806000806080858703121561379557613794612a6c565b5b600085013567ffffffffffffffff8111156137b3576137b2612a71565b5b6137bf87828801612b7d565b94505060206137d087828801612df6565b935050604085013567ffffffffffffffff8111156137f1576137f0612a71565b5b6137fd87828801612b7d565b925050606085013567ffffffffffffffff81111561381e5761381d612a71565b5b61382a87828801612b7d565b91505092959194509250565b60008060006060848603121561384f5761384e612a6c565b5b600084013567ffffffffffffffff81111561386d5761386c612a71565b5b61387986828701612b7d565b935050602061388a86828701612df6565b925050604084013567ffffffffffffffff8111156138ab576138aa612a71565b5b6138b786828701612b7d565b9150509250925092565b60008060008060008060c087890312156138de576138dd612a6c565b5b600087013567ffffffffffffffff8111156138fc576138fb612a71565b5b61390889828a01612b7d565b965050602087013567ffffffffffffffff81111561392957613928612a71565b5b61393589828a01612b7d565b955050604087013567ffffffffffffffff81111561395657613955612a71565b5b61396289828a01612b7d565b945050606087013567ffffffffffffffff81111561398357613982612a71565b5b61398f89828a01612b7d565b93505060806139a089828a01612df6565b92505060a087013567ffffffffffffffff8111156139c1576139c0612a71565b5b6139cd89828a01612b7d565b9150509295509295509295565b7f4e487b7100000000000000000000000000000000000000000000000000000000600052602260045260246000fd5b60006002820490506001821680613a2157607f821691505b602082108103613a3457613a336139da565b5b50919050565b7f4e487b7100000000000000000000000000000000000000000000000000000000600052603260045260246000fd5b600081905092915050565b6000613a7f826127eb565b613a898185613a69565b9350613a99818560208601612807565b80840191505092915050565b6000613ab18284613a74565b915081905092915050565b60008190508160005260206000209050919050565b60008154613ade81613a09565b613ae88186613a69565b94506001821660008114613b035760018114613b1457613b47565b60ff19831686528186019350613b47565b613b1d85613abc565b60005b83811015613b3f57815481890152600182019150602081019050613b20565b838801955050505b50505092915050565b6000613b5c8284613ad1565b91508190509291505056fea264697066735822122001b39424bec6ffbb81cec627b34f510f4e4529c310798a64b683a31a1cda775f64736f6c634300080d0033",
  "linkReferences": {},
  "deployedLinkReferences": {}
}