{
  "_format": "hh-sol-artifact-1",
  "contractName": "JIRA",
  "sourceName": "contracts/JIRA.sol",
  "abi": [
    {
      "inputs": [
        {
          "internalType": "uint256",
          "name": "id",
          "type": "uint256"
        },
        {
          "internalType": "string",
          "name": "time",
          "type": "string"
        }
      ],
      "name": "activeNewSprint",
      "outputs": [],
      "stateMutability": "nonpayable",
      "type": "function"
    },
    {
      "inputs": [],
      "name": "activeSprintId",
      "outputs": [
        {
          "internalType": "uint256",
          "name": "",
          "type": "uint256"
        }
      ],
      "stateMutability": "view",
      "type": "function"
    },
    {
      "inputs": [
        {
          "internalType": "string",
          "name": "abiLink",
          "type": "string"
        }
      ],
      "name": "addConfluence",
      "outputs": [],
      "stateMutability": "nonpayable",
      "type": "function"
    },
    {
      "inputs": [
        {
          "internalType": "string",
          "name": "uid",
          "type": "string"
        },
        {
          "internalType": "string",
          "name": "name",
          "type": "string"
        },
        {
          "internalType": "string",
          "name": "role",
          "type": "string"
        },
        {
          "internalType": "string",
          "name": "image",
          "type": "string"
        },
        {
          "internalType": "string",
          "name": "initialBoardData",
          "type": "string"
        }
      ],
      "name": "addUser",
      "outputs": [],
      "stateMutability": "nonpayable",
      "type": "function"
    },
    {
      "inputs": [
        {
          "internalType": "string",
          "name": "owner",
          "type": "string"
        },
        {
          "internalType": "uint256",
          "name": "index",
          "type": "uint256"
        },
        {
          "internalType": "string",
          "name": "ownersBoardData",
          "type": "string"
        },
        {
          "internalType": "string",
          "name": "tracking",
          "type": "string"
        }
      ],
      "name": "assignOwner",
      "outputs": [],
      "stateMutability": "nonpayable",
      "type": "function"
    },
    {
      "inputs": [
        {
          "internalType": "string",
          "name": "position",
          "type": "string"
        },
        {
          "internalType": "uint256",
          "name": "index",
          "type": "uint256"
        },
        {
          "internalType": "string",
          "name": "abiLink",
          "type": "string"
        },
        {
          "internalType": "string",
          "name": "uid",
          "type": "string"
        },
        {
          "internalType": "string",
          "name": "trackingData",
          "type": "string"
        }
      ],
      "name": "changePosition",
      "outputs": [],
      "stateMutability": "nonpayable",
      "type": "function"
    },
    {
      "inputs": [],
      "name": "confluence",
      "outputs": [
        {
          "internalType": "string",
          "name": "",
          "type": "string"
        }
      ],
      "stateMutability": "view",
      "type": "function"
    },
    {
      "inputs": [
        {
          "internalType": "string",
          "name": "name",
          "type": "string"
        },
        {
          "internalType": "string",
          "name": "startDate",
          "type": "string"
        },
        {
          "internalType": "string",
          "name": "enddate",
          "type": "string"
        },
        {
          "internalType": "string",
          "name": "abiLink",
          "type": "string"
        }
      ],
      "name": "createSprint",
      "outputs": [],
      "stateMutability": "nonpayable",
      "type": "function"
    },
    {
      "inputs": [
        {
          "internalType": "string",
          "name": "sprintId",
          "type": "string"
        },
        {
          "internalType": "string",
          "name": "id",
          "type": "string"
        },
        {
          "internalType": "string",
          "name": "abiLink",
          "type": "string"
        },
        {
          "internalType": "string",
          "name": "repoterUid",
          "type": "string"
        },
        {
          "internalType": "string",
          "name": "tracking",
          "type": "string"
        }
      ],
      "name": "createTicket",
      "outputs": [
        {
          "components": [
            {
              "internalType": "uint256",
              "name": "index",
              "type": "uint256"
            },
            {
              "internalType": "string",
              "name": "sprintId",
              "type": "string"
            },
            {
              "internalType": "string",
              "name": "id",
              "type": "string"
            },
            {
              "internalType": "string",
              "name": "abiLink",
              "type": "string"
            },
            {
              "internalType": "string",
              "name": "repoter",
              "type": "string"
            },
            {
              "internalType": "string",
              "name": "owner",
              "type": "string"
            },
            {
              "internalType": "string",
              "name": "position",
              "type": "string"
            },
            {
              "internalType": "bool",
              "name": "status",
              "type": "bool"
            },
            {
              "internalType": "string",
              "name": "tracking",
              "type": "string"
            },
            {
              "internalType": "string",
              "name": "comments",
              "type": "string"
            }
          ],
          "internalType": "struct JIRA.Ticket",
          "name": "",
          "type": "tuple"
        }
      ],
      "stateMutability": "nonpayable",
      "type": "function"
    },
    {
      "inputs": [],
      "name": "getAllSprints",
      "outputs": [
        {
          "components": [
            {
              "internalType": "uint256",
              "name": "id",
              "type": "uint256"
            },
            {
              "internalType": "string",
              "name": "name",
              "type": "string"
            },
            {
              "internalType": "string",
              "name": "startDate",
              "type": "string"
            },
            {
              "internalType": "string",
              "name": "enddate",
              "type": "string"
            },
            {
              "internalType": "string",
              "name": "abiLink",
              "type": "string"
            }
          ],
          "internalType": "struct JIRA.Sprint[]",
          "name": "",
          "type": "tuple[]"
        }
      ],
      "stateMutability": "view",
      "type": "function"
    },
    {
      "inputs": [],
      "name": "getAllTickets",
      "outputs": [
        {
          "components": [
            {
              "internalType": "uint256",
              "name": "index",
              "type": "uint256"
            },
            {
              "internalType": "string",
              "name": "sprintId",
              "type": "string"
            },
            {
              "internalType": "string",
              "name": "id",
              "type": "string"
            },
            {
              "internalType": "string",
              "name": "abiLink",
              "type": "string"
            },
            {
              "internalType": "string",
              "name": "repoter",
              "type": "string"
            },
            {
              "internalType": "string",
              "name": "owner",
              "type": "string"
            },
            {
              "internalType": "string",
              "name": "position",
              "type": "string"
            },
            {
              "internalType": "bool",
              "name": "status",
              "type": "bool"
            },
            {
              "internalType": "string",
              "name": "tracking",
              "type": "string"
            },
            {
              "internalType": "string",
              "name": "comments",
              "type": "string"
            }
          ],
          "internalType": "struct JIRA.Ticket[]",
          "name": "",
          "type": "tuple[]"
        }
      ],
      "stateMutability": "view",
      "type": "function"
    },
    {
      "inputs": [],
      "name": "getAllUser",
      "outputs": [
        {
          "internalType": "string[]",
          "name": "",
          "type": "string[]"
        }
      ],
      "stateMutability": "view",
      "type": "function"
    },
    {
      "inputs": [
        {
          "internalType": "uint256",
          "name": "index",
          "type": "uint256"
        }
      ],
      "name": "getTicketsAbi",
      "outputs": [
        {
          "internalType": "string",
          "name": "",
          "type": "string"
        }
      ],
      "stateMutability": "view",
      "type": "function"
    },
    {
      "inputs": [
        {
          "internalType": "uint256",
          "name": "index",
          "type": "uint256"
        }
      ],
      "name": "getTicketsOwnerImg",
      "outputs": [
        {
          "internalType": "string",
          "name": "",
          "type": "string"
        }
      ],
      "stateMutability": "view",
      "type": "function"
    },
    {
      "inputs": [],
      "name": "initialize",
      "outputs": [],
      "stateMutability": "nonpayable",
      "type": "function"
    },
    {
      "inputs": [
        {
          "internalType": "string",
          "name": "uid",
          "type": "string"
        }
      ],
      "name": "login",
      "outputs": [
        {
          "internalType": "bool",
          "name": "",
          "type": "bool"
        }
      ],
      "stateMutability": "view",
      "type": "function"
    },
    {
      "inputs": [],
      "name": "manager",
      "outputs": [
        {
          "internalType": "address",
          "name": "",
          "type": "address"
        }
      ],
      "stateMutability": "view",
      "type": "function"
    },
    {
      "inputs": [],
      "name": "project",
      "outputs": [
        {
          "internalType": "string",
          "name": "",
          "type": "string"
        }
      ],
      "stateMutability": "view",
      "type": "function"
    },
    {
      "inputs": [
        {
          "internalType": "string",
          "name": "abiLink",
          "type": "string"
        },
        {
          "internalType": "string",
          "name": "uid",
          "type": "string"
        }
      ],
      "name": "setBoardDataToUser",
      "outputs": [],
      "stateMutability": "nonpayable",
      "type": "function"
    },
    {
      "inputs": [
        {
          "internalType": "string",
          "name": "commentdata",
          "type": "string"
        },
        {
          "internalType": "uint256",
          "name": "index",
          "type": "uint256"
        },
        {
          "internalType": "string",
          "name": "tracking",
          "type": "string"
        }
      ],
      "name": "setComments",
      "outputs": [],
      "stateMutability": "nonpayable",
      "type": "function"
    },
    {
      "inputs": [
        {
          "internalType": "string",
          "name": "sprintId",
          "type": "string"
        },
        {
          "internalType": "uint256",
          "name": "index",
          "type": "uint256"
        },
        {
          "internalType": "string",
          "name": "tracking",
          "type": "string"
        }
      ],
      "name": "setSprintToTicket",
      "outputs": [],
      "stateMutability": "nonpayable",
      "type": "function"
    },
    {
      "inputs": [
        {
          "internalType": "string",
          "name": "abiLink",
          "type": "string"
        },
        {
          "internalType": "uint256",
          "name": "index",
          "type": "uint256"
        }
      ],
      "name": "setTicketTracking",
      "outputs": [],
      "stateMutability": "nonpayable",
      "type": "function"
    },
    {
      "inputs": [
        {
          "internalType": "string",
          "name": "abiLink",
          "type": "string"
        },
        {
          "internalType": "string",
          "name": "uid",
          "type": "string"
        }
      ],
      "name": "setUserAbi",
      "outputs": [],
      "stateMutability": "nonpayable",
      "type": "function"
    },
    {
      "inputs": [
        {
          "internalType": "uint256",
          "name": "",
          "type": "uint256"
        }
      ],
      "name": "sprints",
      "outputs": [
        {
          "internalType": "uint256",
          "name": "id",
          "type": "uint256"
        },
        {
          "internalType": "string",
          "name": "name",
          "type": "string"
        },
        {
          "internalType": "string",
          "name": "startDate",
          "type": "string"
        },
        {
          "internalType": "string",
          "name": "enddate",
          "type": "string"
        },
        {
          "internalType": "string",
          "name": "abiLink",
          "type": "string"
        }
      ],
      "stateMutability": "view",
      "type": "function"
    },
    {
      "inputs": [
        {
          "internalType": "uint256",
          "name": "",
          "type": "uint256"
        }
      ],
      "name": "tickets",
      "outputs": [
        {
          "internalType": "uint256",
          "name": "index",
          "type": "uint256"
        },
        {
          "internalType": "string",
          "name": "sprintId",
          "type": "string"
        },
        {
          "internalType": "string",
          "name": "id",
          "type": "string"
        },
        {
          "internalType": "string",
          "name": "abiLink",
          "type": "string"
        },
        {
          "internalType": "string",
          "name": "repoter",
          "type": "string"
        },
        {
          "internalType": "string",
          "name": "owner",
          "type": "string"
        },
        {
          "internalType": "string",
          "name": "position",
          "type": "string"
        },
        {
          "internalType": "bool",
          "name": "status",
          "type": "bool"
        },
        {
          "internalType": "string",
          "name": "tracking",
          "type": "string"
        },
        {
          "internalType": "string",
          "name": "comments",
          "type": "string"
        }
      ],
      "stateMutability": "view",
      "type": "function"
    },
    {
      "inputs": [
        {
          "internalType": "string",
          "name": "senderUid",
          "type": "string"
        },
        {
          "internalType": "string",
          "name": "receiverUid",
          "type": "string"
        },
        {
          "internalType": "string",
          "name": "updatedSenderAbi",
          "type": "string"
        },
        {
          "internalType": "string",
          "name": "updatedReceiverAbi",
          "type": "string"
        },
        {
          "internalType": "uint256",
          "name": "index",
          "type": "uint256"
        },
        {
          "internalType": "string",
          "name": "trackingData",
          "type": "string"
        }
      ],
      "name": "transferTicket",
      "outputs": [],
      "stateMutability": "nonpayable",
      "type": "function"
    },
    {
      "inputs": [
        {
          "internalType": "string",
          "name": "abiLink",
          "type": "string"
        },
        {
          "internalType": "uint256",
          "name": "index",
          "type": "uint256"
        },
        {
          "internalType": "string",
          "name": "trackingData",
          "type": "string"
        },
        {
          "internalType": "bool",
          "name": "status",
          "type": "bool"
        }
      ],
      "name": "updateTicket",
      "outputs": [],
      "stateMutability": "nonpayable",
      "type": "function"
    },
    {
      "inputs": [
        {
          "internalType": "string",
          "name": "newOwnerUid",
          "type": "string"
        },
        {
          "internalType": "uint256",
          "name": "index",
          "type": "uint256"
        }
      ],
      "name": "updateTicketOwner",
      "outputs": [],
      "stateMutability": "nonpayable",
      "type": "function"
    },
    {
      "inputs": [
        {
          "internalType": "uint256",
          "name": "",
          "type": "uint256"
        }
      ],
      "name": "userList",
      "outputs": [
        {
          "internalType": "string",
          "name": "",
          "type": "string"
        }
      ],
      "stateMutability": "view",
      "type": "function"
    },
    {
      "inputs": [
        {
          "internalType": "string",
          "name": "",
          "type": "string"
        }
      ],
      "name": "users",
      "outputs": [
        {
          "internalType": "string",
          "name": "name",
          "type": "string"
        },
        {
          "internalType": "string",
          "name": "role",
          "type": "string"
        },
        {
          "internalType": "string",
          "name": "boardData",
          "type": "string"
        },
        {
          "internalType": "string",
          "name": "profileImg",
          "type": "string"
        },
        {
          "internalType": "string",
          "name": "abiLink",
          "type": "string"
        },
        {
          "internalType": "string",
          "name": "uid",
          "type": "string"
        }
      ],
      "stateMutability": "view",
      "type": "function"
    }
  ],
  "bytecode": "0x608060405234801561001057600080fd5b50613b4a806100206000396000f3fe608060405234801561001057600080fd5b50600436106101da5760003560e01c806356aa6387116101045780639f4216e8116100a2578063cda7efab11610071578063cda7efab14610563578063cf6194511461057f578063e7b8f6ab1461059b578063f60ca60d146105b7576101da565b80639f4216e8146104df578063b37a3d821461050f578063ba46415d1461052b578063c472609b14610547576101da565b80637a7bdd59116100de5780637a7bdd59146104595780638129fc1c14610489578063837d1d411461049357806397208cdc146104af576101da565b806356aa6387146103ea578063689e1c03146104065780636cba7beb1461043b576101da565b80633b3d673d1161017c57806347f2d2be1161014b57806347f2d2be14610343578063481c6a751461035f57806348b012b71461037d57806350b44712146103b1576101da565b80633b3d673d146102d15780633c06af24146102ed57806341f9e57c1461030957806347531df814610325576101da565b806312d92c52116101b857806312d92c52146102495780631d738a98146102675780633434e7b5146102835780633a7d280c146102a1576101da565b806303e96fe3146101df5780630d8b3e9b146101fd5780630f1a97601461022d575b600080fd5b6101e76105d5565b6040516101f491906129ed565b60405180910390f35b61021760048036038101906102129190612b58565b610aea565b6040516102249190612d6a565b60405180910390f35b61024760048036038101906102429190612db8565b610ce6565b005b610251610d31565b60405161025e9190612e23565b60405180910390f35b610281600480360381019061027c9190612e3e565b610d37565b005b61028b610e1a565b6040516102989190612f5f565b60405180910390f35b6102bb60048036038101906102b69190612f81565b610ea8565b6040516102c89190612fd9565b60405180910390f35b6102eb60048036038101906102e69190612ff4565b610f75565b005b61030760048036038101906103029190612f81565b610fb9565b005b610323600480360381019061031e9190613050565b610fd3565b005b61032d611012565b60405161033a919061318a565b60405180910390f35b61035d60048036038101906103589190612ff4565b6110eb565b005b61036761112f565b60405161037491906131ed565b60405180910390f35b61039760048036038101906103929190613208565b611155565b6040516103a8959493929190613235565b60405180910390f35b6103cb60048036038101906103c69190613208565b6113bb565b6040516103e19a999897969594939291906132a4565b60405180910390f35b61040460048036038101906103ff91906133a4565b61186c565b005b610420600480360381019061041b9190612f81565b6118e7565b60405161043296959493929190613443565b60405180910390f35b610443611c69565b604051610450919061361b565b60405180910390f35b610473600480360381019061046e9190613208565b611f1a565b6040516104809190612f5f565b60405180910390f35b610491611fd7565b005b6104ad60048036038101906104a8919061363d565b61206e565b005b6104c960048036038101906104c49190613208565b6120d8565b6040516104d69190612f5f565b60405180910390f35b6104f960048036038101906104f49190613208565b6121b5565b6040516105069190612f5f565b60405180910390f35b61052960048036038101906105249190612b58565b612261565b005b61054560048036038101906105409190613728565b6123b5565b005b610561600480360381019061055c91906137e3565b61246c565b005b61057d6004803603810190610578919061386e565b6124ca565b005b61059960048036038101906105949190613050565b612530565b005b6105b560048036038101906105b091906137e3565b61256f565b005b6105bf6125cd565b6040516105cc9190612f5f565b60405180910390f35b60606002805480602002602001604051908101604052809291908181526020016000905b82821015610ae157838290600052602060002090600a02016040518061014001604052908160008201548152602001600182018054610637906139b6565b80601f0160208091040260200160405190810160405280929190818152602001828054610663906139b6565b80156106b05780601f10610685576101008083540402835291602001916106b0565b820191906000526020600020905b81548152906001019060200180831161069357829003601f168201915b505050505081526020016002820180546106c9906139b6565b80601f01602080910402602001604051908101604052809291908181526020018280546106f5906139b6565b80156107425780601f1061071757610100808354040283529160200191610742565b820191906000526020600020905b81548152906001019060200180831161072557829003601f168201915b5050505050815260200160038201805461075b906139b6565b80601f0160208091040260200160405190810160405280929190818152602001828054610787906139b6565b80156107d45780601f106107a9576101008083540402835291602001916107d4565b820191906000526020600020905b8154815290600101906020018083116107b757829003601f168201915b505050505081526020016004820180546107ed906139b6565b80601f0160208091040260200160405190810160405280929190818152602001828054610819906139b6565b80156108665780601f1061083b57610100808354040283529160200191610866565b820191906000526020600020905b81548152906001019060200180831161084957829003601f168201915b5050505050815260200160058201805461087f906139b6565b80601f01602080910402602001604051908101604052809291908181526020018280546108ab906139b6565b80156108f85780601f106108cd576101008083540402835291602001916108f8565b820191906000526020600020905b8154815290600101906020018083116108db57829003601f168201915b50505050508152602001600682018054610911906139b6565b80601f016020809104026020016040519081016040528092919081815260200182805461093d906139b6565b801561098a5780601f1061095f5761010080835404028352916020019161098a565b820191906000526020600020905b81548152906001019060200180831161096d57829003601f168201915b505050505081526020016007820160009054906101000a900460ff161515151581526020016008820180546109be906139b6565b80601f01602080910402602001604051908101604052809291908181526020018280546109ea906139b6565b8015610a375780601f10610a0c57610100808354040283529160200191610a37565b820191906000526020600020905b815481529060010190602001808311610a1a57829003601f168201915b50505050508152602001600982018054610a50906139b6565b80601f0160208091040260200160405190810160405280929190818152602001828054610a7c906139b6565b8015610ac95780601f10610a9e57610100808354040283529160200191610ac9565b820191906000526020600020905b815481529060010190602001808311610aac57829003601f168201915b505050505081525050815260200190600101906105f9565b50505050905090565b610af261265b565b600060405180610140016040528060028054905081526020018881526020018781526020018681526020018581526020016040518060200160405280600081525081526020016040518060400160405280600181526020017f3100000000000000000000000000000000000000000000000000000000000000815250815260200160011515815260200184815260200160405180602001604052806000815250815250905060028190806001815401808255809150506001900390600052602060002090600a0201600090919091909150600082015181600001556020820151816001019080519060200190610be99291906126b0565b506040820151816002019080519060200190610c069291906126b0565b506060820151816003019080519060200190610c239291906126b0565b506080820151816004019080519060200190610c409291906126b0565b5060a0820151816005019080519060200190610c5d9291906126b0565b5060c0820151816006019080519060200190610c7a9291906126b0565b5060e08201518160070160006101000a81548160ff021916908315150217905550610100820151816008019080519060200190610cb89291906126b0565b50610120820151816009019080519060200190610cd69291906126b0565b5050508091505095945050505050565b81600781905550600060018381548110610d0357610d026139e7565b5b9060005260206000209060050201905081816002019080519060200190610d2b9291906126b0565b50505050565b60075481565b60006040518060a0016040528060018054905081526020018681526020018581526020018481526020018381525090506001819080600181540180825580915050600190039060005260206000209060050201600090919091909150600082015181600001556020820151816001019080519060200190610db99291906126b0565b506040820151816002019080519060200190610dd69291906126b0565b506060820151816003019080519060200190610df39291906126b0565b506080820151816004019080519060200190610e109291906126b0565b5050505050505050565b60068054610e27906139b6565b80601f0160208091040260200160405190810160405280929190818152602001828054610e53906139b6565b8015610ea05780601f10610e7557610100808354040283529160200191610ea0565b820191906000526020600020905b815481529060010190602001808311610e8357829003601f168201915b505050505081565b600080600083604051610ebb9190613a52565b90815260200160405180910390206000018054610ed7906139b6565b80601f0160208091040260200160405190810160405280929190818152602001828054610f03906139b6565b8015610f505780601f10610f2557610100808354040283529160200191610f50565b820191906000526020600020905b815481529060010190602001808311610f3357829003601f168201915b505050505090506000815103610f6a576000915050610f70565b60019150505b919050565b600060028281548110610f8b57610f8a6139e7565b5b90600052602060002090600a0201905082816005019080519060200190610fb39291906126b0565b50505050565b8060069080519060200190610fcf9291906126b0565b5050565b60008082604051610fe49190613a52565b908152602001604051809103902090508281600201908051906020019061100c9291906126b0565b50505050565b60606003805480602002602001604051908101604052809291908181526020016000905b828210156110e2578382906000526020600020018054611055906139b6565b80601f0160208091040260200160405190810160405280929190818152602001828054611081906139b6565b80156110ce5780601f106110a3576101008083540402835291602001916110ce565b820191906000526020600020905b8154815290600101906020018083116110b157829003601f168201915b505050505081526020019060010190611036565b50505050905090565b600060028281548110611101576111006139e7565b5b90600052602060002090600a02019050828160080190805190602001906111299291906126b0565b50505050565b600460009054906101000a900473ffffffffffffffffffffffffffffffffffffffff1681565b6001818154811061116557600080fd5b906000526020600020906005020160009150905080600001549080600101805461118e906139b6565b80601f01602080910402602001604051908101604052809291908181526020018280546111ba906139b6565b80156112075780601f106111dc57610100808354040283529160200191611207565b820191906000526020600020905b8154815290600101906020018083116111ea57829003601f168201915b50505050509080600201805461121c906139b6565b80601f0160208091040260200160405190810160405280929190818152602001828054611248906139b6565b80156112955780601f1061126a57610100808354040283529160200191611295565b820191906000526020600020905b81548152906001019060200180831161127857829003601f168201915b5050505050908060030180546112aa906139b6565b80601f01602080910402602001604051908101604052809291908181526020018280546112d6906139b6565b80156113235780601f106112f857610100808354040283529160200191611323565b820191906000526020600020905b81548152906001019060200180831161130657829003601f168201915b505050505090806004018054611338906139b6565b80601f0160208091040260200160405190810160405280929190818152602001828054611364906139b6565b80156113b15780601f10611386576101008083540402835291602001916113b1565b820191906000526020600020905b81548152906001019060200180831161139457829003601f168201915b5050505050905085565b600281815481106113cb57600080fd5b90600052602060002090600a02016000915090508060000154908060010180546113f4906139b6565b80601f0160208091040260200160405190810160405280929190818152602001828054611420906139b6565b801561146d5780601f106114425761010080835404028352916020019161146d565b820191906000526020600020905b81548152906001019060200180831161145057829003601f168201915b505050505090806002018054611482906139b6565b80601f01602080910402602001604051908101604052809291908181526020018280546114ae906139b6565b80156114fb5780601f106114d0576101008083540402835291602001916114fb565b820191906000526020600020905b8154815290600101906020018083116114de57829003601f168201915b505050505090806003018054611510906139b6565b80601f016020809104026020016040519081016040528092919081815260200182805461153c906139b6565b80156115895780601f1061155e57610100808354040283529160200191611589565b820191906000526020600020905b81548152906001019060200180831161156c57829003601f168201915b50505050509080600401805461159e906139b6565b80601f01602080910402602001604051908101604052809291908181526020018280546115ca906139b6565b80156116175780601f106115ec57610100808354040283529160200191611617565b820191906000526020600020905b8154815290600101906020018083116115fa57829003601f168201915b50505050509080600501805461162c906139b6565b80601f0160208091040260200160405190810160405280929190818152602001828054611658906139b6565b80156116a55780601f1061167a576101008083540402835291602001916116a5565b820191906000526020600020905b81548152906001019060200180831161168857829003601f168201915b5050505050908060060180546116ba906139b6565b80601f01602080910402602001604051908101604052809291908181526020018280546116e6906139b6565b80156117335780601f1061170857610100808354040283529160200191611733565b820191906000526020600020905b81548152906001019060200180831161171657829003601f168201915b5050505050908060070160009054906101000a900460ff169080600801805461175b906139b6565b80601f0160208091040260200160405190810160405280929190818152602001828054611787906139b6565b80156117d45780601f106117a9576101008083540402835291602001916117d4565b820191906000526020600020905b8154815290600101906020018083116117b757829003601f168201915b5050505050908060090180546117e9906139b6565b80601f0160208091040260200160405190810160405280929190818152602001828054611815906139b6565b80156118625780601f1061183757610100808354040283529160200191611862565b820191906000526020600020905b81548152906001019060200180831161184557829003601f168201915b505050505090508a565b600060028481548110611882576118816139e7565b5b90600052602060002090600a02019050848160030190805190602001906118aa9291906126b0565b50828160080190805190602001906118c39291906126b0565b50818160070160006101000a81548160ff0219169083151502179055505050505050565b600081805160208101820180518482526020830160208501208183528095505050505050600091509050806000018054611920906139b6565b80601f016020809104026020016040519081016040528092919081815260200182805461194c906139b6565b80156119995780601f1061196e57610100808354040283529160200191611999565b820191906000526020600020905b81548152906001019060200180831161197c57829003601f168201915b5050505050908060010180546119ae906139b6565b80601f01602080910402602001604051908101604052809291908181526020018280546119da906139b6565b8015611a275780601f106119fc57610100808354040283529160200191611a27565b820191906000526020600020905b815481529060010190602001808311611a0a57829003601f168201915b505050505090806002018054611a3c906139b6565b80601f0160208091040260200160405190810160405280929190818152602001828054611a68906139b6565b8015611ab55780601f10611a8a57610100808354040283529160200191611ab5565b820191906000526020600020905b815481529060010190602001808311611a9857829003601f168201915b505050505090806003018054611aca906139b6565b80601f0160208091040260200160405190810160405280929190818152602001828054611af6906139b6565b8015611b435780601f10611b1857610100808354040283529160200191611b43565b820191906000526020600020905b815481529060010190602001808311611b2657829003601f168201915b505050505090806004018054611b58906139b6565b80601f0160208091040260200160405190810160405280929190818152602001828054611b84906139b6565b8015611bd15780601f10611ba657610100808354040283529160200191611bd1565b820191906000526020600020905b815481529060010190602001808311611bb457829003601f168201915b505050505090806005018054611be6906139b6565b80601f0160208091040260200160405190810160405280929190818152602001828054611c12906139b6565b8015611c5f5780601f10611c3457610100808354040283529160200191611c5f565b820191906000526020600020905b815481529060010190602001808311611c4257829003601f168201915b5050505050905086565b60606001805480602002602001604051908101604052809291908181526020016000905b82821015611f1157838290600052602060002090600502016040518060a001604052908160008201548152602001600182018054611cca906139b6565b80601f0160208091040260200160405190810160405280929190818152602001828054611cf6906139b6565b8015611d435780601f10611d1857610100808354040283529160200191611d43565b820191906000526020600020905b815481529060010190602001808311611d2657829003601f168201915b50505050508152602001600282018054611d5c906139b6565b80601f0160208091040260200160405190810160405280929190818152602001828054611d88906139b6565b8015611dd55780601f10611daa57610100808354040283529160200191611dd5565b820191906000526020600020905b815481529060010190602001808311611db857829003601f168201915b50505050508152602001600382018054611dee906139b6565b80601f0160208091040260200160405190810160405280929190818152602001828054611e1a906139b6565b8015611e675780601f10611e3c57610100808354040283529160200191611e67565b820191906000526020600020905b815481529060010190602001808311611e4a57829003601f168201915b50505050508152602001600482018054611e80906139b6565b80601f0160208091040260200160405190810160405280929190818152602001828054611eac906139b6565b8015611ef95780601f10611ece57610100808354040283529160200191611ef9565b820191906000526020600020905b815481529060010190602001808311611edc57829003601f168201915b50505050508152505081526020019060010190611c8d565b50505050905090565b6060600060028381548110611f3257611f316139e7565b5b90600052602060002090600a02019050806003018054611f51906139b6565b80601f0160208091040260200160405190810160405280929190818152602001828054611f7d906139b6565b8015611fca5780601f10611f9f57610100808354040283529160200191611fca565b820191906000526020600020905b815481529060010190602001808311611fad57829003601f168201915b5050505050915050919050565b33600460006101000a81548173ffffffffffffffffffffffffffffffffffffffff021916908373ffffffffffffffffffffffffffffffffffffffff1602179055506040518060400160405280600c81526020017f4a4952412057656220332e300000000000000000000000000000000000000000815250600590805190602001906120639291906126b0565b506000600781905550565b600060028581548110612084576120836139e7565b5b90600052602060002090600a02019050858160060190805190602001906120ac9291906126b0565b50818160080190805190602001906120c59291906126b0565b506120d08484610fd3565b505050505050565b60606000600283815481106120f0576120ef6139e7565b5b90600052602060002090600a020190506000816005016040516121139190613afd565b9081526020016040518091039020600301805461212f906139b6565b80601f016020809104026020016040519081016040528092919081815260200182805461215b906139b6565b80156121a85780601f1061217d576101008083540402835291602001916121a8565b820191906000526020600020905b81548152906001019060200180831161218b57829003601f168201915b5050505050915050919050565b600381815481106121c557600080fd5b9060005260206000200160009150905080546121e0906139b6565b80601f016020809104026020016040519081016040528092919081815260200182805461220c906139b6565b80156122595780601f1061222e57610100808354040283529160200191612259565b820191906000526020600020905b81548152906001019060200180831161223c57829003601f168201915b505050505081565b60006040518060c00160405280868152602001858152602001838152602001848152602001604051806020016040528060008152508152602001878152509050806000876040516122b29190613a52565b908152602001604051809103902060008201518160000190805190602001906122dc9291906126b0565b5060208201518160010190805190602001906122f99291906126b0565b5060408201518160020190805190602001906123169291906126b0565b5060608201518160030190805190602001906123339291906126b0565b5060808201518160040190805190602001906123509291906126b0565b5060a082015181600501908051906020019061236d9291906126b0565b509050506003869080600181540180825580915050600190039060005260206000200160009091909190915090805190602001906123ac9291906126b0565b50505050505050565b6000600284815481106123cb576123ca6139e7565b5b90600052602060002090600a02019050848160050190805190602001906123f39291906126b0565b506040518060400160405280600181526020017f31000000000000000000000000000000000000000000000000000000000000008152508160060190805190602001906124419291906126b0565b508181600801908051906020019061245a9291906126b0565b506124658386610fd3565b5050505050565b600060028381548110612482576124816139e7565b5b90600052602060002090600a02019050838160010190805190602001906124aa9291906126b0565b50818160080190805190602001906124c39291906126b0565b5050505050565b6124d48487610fd3565b6124de8386610fd3565b6124e88583610f75565b6000600283815481106124fe576124fd6139e7565b5b90600052602060002090600a02019050818160080190805190602001906125269291906126b0565b5050505050505050565b600080826040516125419190613a52565b90815260200160405180910390209050828160040190805190602001906125699291906126b0565b50505050565b600060028381548110612585576125846139e7565b5b90600052602060002090600a02019050838160090190805190602001906125ad9291906126b0565b50818160080190805190602001906125c69291906126b0565b5050505050565b600580546125da906139b6565b80601f0160208091040260200160405190810160405280929190818152602001828054612606906139b6565b80156126535780601f1061262857610100808354040283529160200191612653565b820191906000526020600020905b81548152906001019060200180831161263657829003601f168201915b505050505081565b6040518061014001604052806000815260200160608152602001606081526020016060815260200160608152602001606081526020016060815260200160001515815260200160608152602001606081525090565b8280546126bc906139b6565b90600052602060002090601f0160209004810192826126de5760008555612725565b82601f106126f757805160ff1916838001178555612725565b82800160010185558215612725579182015b82811115612724578251825591602001919060010190612709565b5b5090506127329190612736565b5090565b5b8082111561274f576000816000905550600101612737565b5090565b600081519050919050565b600082825260208201905092915050565b6000819050602082019050919050565b6000819050919050565b6127928161277f565b82525050565b600081519050919050565b600082825260208201905092915050565b60005b838110156127d25780820151818401526020810190506127b7565b838111156127e1576000848401525b50505050565b6000601f19601f8301169050919050565b600061280382612798565b61280d81856127a3565b935061281d8185602086016127b4565b612826816127e7565b840191505092915050565b60008115159050919050565b61284681612831565b82525050565b6000610140830160008301516128656000860182612789565b506020830151848203602086015261287d82826127f8565b9150506040830151848203604086015261289782826127f8565b915050606083015184820360608601526128b182826127f8565b915050608083015184820360808601526128cb82826127f8565b91505060a083015184820360a08601526128e582826127f8565b91505060c083015184820360c08601526128ff82826127f8565b91505060e083015161291460e086018261283d565b5061010083015184820361010086015261292e82826127f8565b91505061012083015184820361012086015261294a82826127f8565b9150508091505092915050565b6000612963838361284c565b905092915050565b6000602082019050919050565b600061298382612753565b61298d818561275e565b93508360208202850161299f8561276f565b8060005b858110156129db57848403895281516129bc8582612957565b94506129c78361296b565b925060208a019950506001810190506129a3565b50829750879550505050505092915050565b60006020820190508181036000830152612a078184612978565b905092915050565b6000604051905090565b600080fd5b600080fd5b600080fd5b600080fd5b7f4e487b7100000000000000000000000000000000000000000000000000000000600052604160045260246000fd5b612a65826127e7565b810181811067ffffffffffffffff82111715612a8457612a83612a2d565b5b80604052505050565b6000612a97612a0f565b9050612aa38282612a5c565b919050565b600067ffffffffffffffff821115612ac357612ac2612a2d565b5b612acc826127e7565b9050602081019050919050565b82818337600083830152505050565b6000612afb612af684612aa8565b612a8d565b905082815260208101848484011115612b1757612b16612a28565b5b612b22848285612ad9565b509392505050565b600082601f830112612b3f57612b3e612a23565b5b8135612b4f848260208601612ae8565b91505092915050565b600080600080600060a08688031215612b7457612b73612a19565b5b600086013567ffffffffffffffff811115612b9257612b91612a1e565b5b612b9e88828901612b2a565b955050602086013567ffffffffffffffff811115612bbf57612bbe612a1e565b5b612bcb88828901612b2a565b945050604086013567ffffffffffffffff811115612bec57612beb612a1e565b5b612bf888828901612b2a565b935050606086013567ffffffffffffffff811115612c1957612c18612a1e565b5b612c2588828901612b2a565b925050608086013567ffffffffffffffff811115612c4657612c45612a1e565b5b612c5288828901612b2a565b9150509295509295909350565b600061014083016000830151612c786000860182612789565b5060208301518482036020860152612c9082826127f8565b91505060408301518482036040860152612caa82826127f8565b91505060608301518482036060860152612cc482826127f8565b91505060808301518482036080860152612cde82826127f8565b91505060a083015184820360a0860152612cf882826127f8565b91505060c083015184820360c0860152612d1282826127f8565b91505060e0830151612d2760e086018261283d565b50610100830151848203610100860152612d4182826127f8565b915050610120830151848203610120860152612d5d82826127f8565b9150508091505092915050565b60006020820190508181036000830152612d848184612c5f565b905092915050565b612d958161277f565b8114612da057600080fd5b50565b600081359050612db281612d8c565b92915050565b60008060408385031215612dcf57612dce612a19565b5b6000612ddd85828601612da3565b925050602083013567ffffffffffffffff811115612dfe57612dfd612a1e565b5b612e0a85828601612b2a565b9150509250929050565b612e1d8161277f565b82525050565b6000602082019050612e386000830184612e14565b92915050565b60008060008060808587031215612e5857612e57612a19565b5b600085013567ffffffffffffffff811115612e7657612e75612a1e565b5b612e8287828801612b2a565b945050602085013567ffffffffffffffff811115612ea357612ea2612a1e565b5b612eaf87828801612b2a565b935050604085013567ffffffffffffffff811115612ed057612ecf612a1e565b5b612edc87828801612b2a565b925050606085013567ffffffffffffffff811115612efd57612efc612a1e565b5b612f0987828801612b2a565b91505092959194509250565b600082825260208201905092915050565b6000612f3182612798565b612f3b8185612f15565b9350612f4b8185602086016127b4565b612f54816127e7565b840191505092915050565b60006020820190508181036000830152612f798184612f26565b905092915050565b600060208284031215612f9757612f96612a19565b5b600082013567ffffffffffffffff811115612fb557612fb4612a1e565b5b612fc184828501612b2a565b91505092915050565b612fd381612831565b82525050565b6000602082019050612fee6000830184612fca565b92915050565b6000806040838503121561300b5761300a612a19565b5b600083013567ffffffffffffffff81111561302957613028612a1e565b5b61303585828601612b2a565b925050602061304685828601612da3565b9150509250929050565b6000806040838503121561306757613066612a19565b5b600083013567ffffffffffffffff81111561308557613084612a1e565b5b61309185828601612b2a565b925050602083013567ffffffffffffffff8111156130b2576130b1612a1e565b5b6130be85828601612b2a565b9150509250929050565b600081519050919050565b600082825260208201905092915050565b6000819050602082019050919050565b600061310083836127f8565b905092915050565b6000602082019050919050565b6000613120826130c8565b61312a81856130d3565b93508360208202850161313c856130e4565b8060005b85811015613178578484038952815161315985826130f4565b945061316483613108565b925060208a01995050600181019050613140565b50829750879550505050505092915050565b600060208201905081810360008301526131a48184613115565b905092915050565b600073ffffffffffffffffffffffffffffffffffffffff82169050919050565b60006131d7826131ac565b9050919050565b6131e7816131cc565b82525050565b600060208201905061320260008301846131de565b92915050565b60006020828403121561321e5761321d612a19565b5b600061322c84828501612da3565b91505092915050565b600060a08201905061324a6000830188612e14565b818103602083015261325c8187612f26565b905081810360408301526132708186612f26565b905081810360608301526132848185612f26565b905081810360808301526132988184612f26565b90509695505050505050565b6000610140820190506132ba600083018d612e14565b81810360208301526132cc818c612f26565b905081810360408301526132e0818b612f26565b905081810360608301526132f4818a612f26565b905081810360808301526133088189612f26565b905081810360a083015261331c8188612f26565b905081810360c08301526133308187612f26565b905061333f60e0830186612fca565b8181036101008301526133528185612f26565b90508181036101208301526133678184612f26565b90509b9a5050505050505050505050565b61338181612831565b811461338c57600080fd5b50565b60008135905061339e81613378565b92915050565b600080600080608085870312156133be576133bd612a19565b5b600085013567ffffffffffffffff8111156133dc576133db612a1e565b5b6133e887828801612b2a565b94505060206133f987828801612da3565b935050604085013567ffffffffffffffff81111561341a57613419612a1e565b5b61342687828801612b2a565b92505060606134378782880161338f565b91505092959194509250565b600060c082019050818103600083015261345d8189612f26565b905081810360208301526134718188612f26565b905081810360408301526134858187612f26565b905081810360608301526134998186612f26565b905081810360808301526134ad8185612f26565b905081810360a08301526134c18184612f26565b9050979650505050505050565b600081519050919050565b600082825260208201905092915050565b6000819050602082019050919050565b600060a0830160008301516135126000860182612789565b506020830151848203602086015261352a82826127f8565b9150506040830151848203604086015261354482826127f8565b9150506060830151848203606086015261355e82826127f8565b9150506080830151848203608086015261357882826127f8565b9150508091505092915050565b600061359183836134fa565b905092915050565b6000602082019050919050565b60006135b1826134ce565b6135bb81856134d9565b9350836020820285016135cd856134ea565b8060005b8581101561360957848403895281516135ea8582613585565b94506135f583613599565b925060208a019950506001810190506135d1565b50829750879550505050505092915050565b6000602082019050818103600083015261363581846135a6565b905092915050565b600080600080600060a0868803121561365957613658612a19565b5b600086013567ffffffffffffffff81111561367757613676612a1e565b5b61368388828901612b2a565b955050602061369488828901612da3565b945050604086013567ffffffffffffffff8111156136b5576136b4612a1e565b5b6136c188828901612b2a565b935050606086013567ffffffffffffffff8111156136e2576136e1612a1e565b5b6136ee88828901612b2a565b925050608086013567ffffffffffffffff81111561370f5761370e612a1e565b5b61371b88828901612b2a565b9150509295509295909350565b6000806000806080858703121561374257613741612a19565b5b600085013567ffffffffffffffff8111156137605761375f612a1e565b5b61376c87828801612b2a565b945050602061377d87828801612da3565b935050604085013567ffffffffffffffff81111561379e5761379d612a1e565b5b6137aa87828801612b2a565b925050606085013567ffffffffffffffff8111156137cb576137ca612a1e565b5b6137d787828801612b2a565b91505092959194509250565b6000806000606084860312156137fc576137fb612a19565b5b600084013567ffffffffffffffff81111561381a57613819612a1e565b5b61382686828701612b2a565b935050602061383786828701612da3565b925050604084013567ffffffffffffffff81111561385857613857612a1e565b5b61386486828701612b2a565b9150509250925092565b60008060008060008060c0878903121561388b5761388a612a19565b5b600087013567ffffffffffffffff8111156138a9576138a8612a1e565b5b6138b589828a01612b2a565b965050602087013567ffffffffffffffff8111156138d6576138d5612a1e565b5b6138e289828a01612b2a565b955050604087013567ffffffffffffffff81111561390357613902612a1e565b5b61390f89828a01612b2a565b945050606087013567ffffffffffffffff8111156139305761392f612a1e565b5b61393c89828a01612b2a565b935050608061394d89828a01612da3565b92505060a087013567ffffffffffffffff81111561396e5761396d612a1e565b5b61397a89828a01612b2a565b9150509295509295509295565b7f4e487b7100000000000000000000000000000000000000000000000000000000600052602260045260246000fd5b600060028204905060018216806139ce57607f821691505b6020821081036139e1576139e0613987565b5b50919050565b7f4e487b7100000000000000000000000000000000000000000000000000000000600052603260045260246000fd5b600081905092915050565b6000613a2c82612798565b613a368185613a16565b9350613a468185602086016127b4565b80840191505092915050565b6000613a5e8284613a21565b915081905092915050565b60008190508160005260206000209050919050565b60008154613a8b816139b6565b613a958186613a16565b94506001821660008114613ab05760018114613ac157613af4565b60ff19831686528186019350613af4565b613aca85613a69565b60005b83811015613aec57815481890152600182019150602081019050613acd565b838801955050505b50505092915050565b6000613b098284613a7e565b91508190509291505056fea2646970667358221220db558ba86701f7f59003ba50b1e802e28fa99a289b33d6d51ed4eee1543ed96064736f6c634300080d0033",
  "linkReferences": {},
  "deployedLinkReferences": {}
}